{
  "contractName": "Aucijo",
  "abi": [
    {
      "inputs": [],
      "stateMutability": "nonpayable",
      "type": "constructor"
    },
    {
      "anonymous": false,
      "inputs": [
        {
          "indexed": true,
          "internalType": "address",
          "name": "owner",
          "type": "address"
        },
        {
          "indexed": true,
          "internalType": "address",
          "name": "spender",
          "type": "address"
        },
        {
          "indexed": false,
          "internalType": "uint256",
          "name": "value",
          "type": "uint256"
        }
      ],
      "name": "Approval",
      "type": "event"
    },
    {
      "anonymous": false,
      "inputs": [
        {
          "indexed": true,
          "internalType": "address",
          "name": "from",
          "type": "address"
        },
        {
          "indexed": true,
          "internalType": "address",
          "name": "to",
          "type": "address"
        },
        {
          "indexed": false,
          "internalType": "uint256",
          "name": "value",
          "type": "uint256"
        }
      ],
      "name": "Transfer",
      "type": "event"
    },
    {
      "inputs": [
        {
          "internalType": "address",
          "name": "owner",
          "type": "address"
        },
        {
          "internalType": "address",
          "name": "spender",
          "type": "address"
        }
      ],
      "name": "allowance",
      "outputs": [
        {
          "internalType": "uint256",
          "name": "",
          "type": "uint256"
        }
      ],
      "stateMutability": "view",
      "type": "function",
      "constant": true
    },
    {
      "inputs": [
        {
          "internalType": "address",
          "name": "spender",
          "type": "address"
        },
        {
          "internalType": "uint256",
          "name": "amount",
          "type": "uint256"
        }
      ],
      "name": "approve",
      "outputs": [
        {
          "internalType": "bool",
          "name": "",
          "type": "bool"
        }
      ],
      "stateMutability": "nonpayable",
      "type": "function"
    },
    {
      "inputs": [
        {
          "internalType": "address",
          "name": "account",
          "type": "address"
        }
      ],
      "name": "balanceOf",
      "outputs": [
        {
          "internalType": "uint256",
          "name": "",
          "type": "uint256"
        }
      ],
      "stateMutability": "view",
      "type": "function",
      "constant": true
    },
    {
      "inputs": [],
      "name": "decimals",
      "outputs": [
        {
          "internalType": "uint8",
          "name": "",
          "type": "uint8"
        }
      ],
      "stateMutability": "view",
      "type": "function",
      "constant": true
    },
    {
      "inputs": [
        {
          "internalType": "address",
          "name": "spender",
          "type": "address"
        },
        {
          "internalType": "uint256",
          "name": "subtractedValue",
          "type": "uint256"
        }
      ],
      "name": "decreaseAllowance",
      "outputs": [
        {
          "internalType": "bool",
          "name": "",
          "type": "bool"
        }
      ],
      "stateMutability": "nonpayable",
      "type": "function"
    },
    {
      "inputs": [
        {
          "internalType": "address",
          "name": "spender",
          "type": "address"
        },
        {
          "internalType": "uint256",
          "name": "addedValue",
          "type": "uint256"
        }
      ],
      "name": "increaseAllowance",
      "outputs": [
        {
          "internalType": "bool",
          "name": "",
          "type": "bool"
        }
      ],
      "stateMutability": "nonpayable",
      "type": "function"
    },
    {
      "inputs": [],
      "name": "name",
      "outputs": [
        {
          "internalType": "string",
          "name": "",
          "type": "string"
        }
      ],
      "stateMutability": "view",
      "type": "function",
      "constant": true
    },
    {
      "inputs": [],
      "name": "symbol",
      "outputs": [
        {
          "internalType": "string",
          "name": "",
          "type": "string"
        }
      ],
      "stateMutability": "view",
      "type": "function",
      "constant": true
    },
    {
      "inputs": [],
      "name": "totalSupply",
      "outputs": [
        {
          "internalType": "uint256",
          "name": "",
          "type": "uint256"
        }
      ],
      "stateMutability": "view",
      "type": "function",
      "constant": true
    },
    {
      "inputs": [
        {
          "internalType": "address",
          "name": "recipient",
          "type": "address"
        },
        {
          "internalType": "uint256",
          "name": "amount",
          "type": "uint256"
        }
      ],
      "name": "transfer",
      "outputs": [
        {
          "internalType": "bool",
          "name": "",
          "type": "bool"
        }
      ],
      "stateMutability": "nonpayable",
      "type": "function"
    },
    {
      "inputs": [
        {
          "internalType": "address",
          "name": "sender",
          "type": "address"
        },
        {
          "internalType": "address",
          "name": "recipient",
          "type": "address"
        },
        {
          "internalType": "uint256",
          "name": "amount",
          "type": "uint256"
        }
      ],
      "name": "transferFrom",
      "outputs": [
        {
          "internalType": "bool",
          "name": "",
          "type": "bool"
        }
      ],
      "stateMutability": "nonpayable",
      "type": "function"
    },
    {
      "inputs": [
        {
          "internalType": "string",
          "name": "firstname",
          "type": "string"
        },
        {
          "internalType": "string",
          "name": "lastname",
          "type": "string"
        },
        {
          "internalType": "string",
          "name": "email",
          "type": "string"
        },
        {
          "internalType": "string",
          "name": "_address",
          "type": "string"
        }
      ],
      "name": "registerMember",
      "outputs": [],
      "stateMutability": "nonpayable",
      "type": "function"
    },
    {
      "inputs": [],
      "name": "wasRegistered",
      "outputs": [
        {
          "internalType": "bool",
          "name": "",
          "type": "bool"
        }
      ],
      "stateMutability": "view",
      "type": "function",
      "constant": true
    },
    {
      "inputs": [],
      "name": "getProfile",
      "outputs": [
        {
          "components": [
            {
              "internalType": "uint256",
              "name": "id",
              "type": "uint256"
            },
            {
              "internalType": "uint256",
              "name": "tokens",
              "type": "uint256"
            },
            {
              "internalType": "string",
              "name": "firstname",
              "type": "string"
            },
            {
              "internalType": "string",
              "name": "lastname",
              "type": "string"
            },
            {
              "internalType": "string",
              "name": "email",
              "type": "string"
            },
            {
              "internalType": "string",
              "name": "_address",
              "type": "string"
            },
            {
              "components": [
                {
                  "internalType": "uint256",
                  "name": "id",
                  "type": "uint256"
                },
                {
                  "internalType": "string",
                  "name": "name",
                  "type": "string"
                },
                {
                  "internalType": "address",
                  "name": "owner",
                  "type": "address"
                }
              ],
              "internalType": "struct Item[]",
              "name": "items",
              "type": "tuple[]"
            }
          ],
          "internalType": "struct Member",
          "name": "",
          "type": "tuple"
        }
      ],
      "stateMutability": "view",
      "type": "function",
      "constant": true
    },
    {
      "inputs": [
        {
          "internalType": "string",
          "name": "name",
          "type": "string"
        }
      ],
      "name": "addItem",
      "outputs": [],
      "stateMutability": "nonpayable",
      "type": "function"
    },
    {
      "inputs": [
        {
          "internalType": "uint256",
          "name": "id",
          "type": "uint256"
        }
      ],
      "name": "agree",
      "outputs": [],
      "stateMutability": "nonpayable",
      "type": "function"
    },
    {
      "inputs": [
        {
          "internalType": "uint256",
          "name": "id",
          "type": "uint256"
        }
      ],
      "name": "findItemById",
      "outputs": [
        {
          "components": [
            {
              "internalType": "uint256",
              "name": "id",
              "type": "uint256"
            },
            {
              "internalType": "string",
              "name": "name",
              "type": "string"
            },
            {
              "internalType": "address",
              "name": "owner",
              "type": "address"
            }
          ],
          "internalType": "struct Item",
          "name": "",
          "type": "tuple"
        }
      ],
      "stateMutability": "view",
      "type": "function",
      "constant": true
    },
    {
      "inputs": [
        {
          "internalType": "uint256",
          "name": "id",
          "type": "uint256"
        }
      ],
      "name": "revokeToken",
      "outputs": [],
      "stateMutability": "nonpayable",
      "type": "function"
    },
    {
      "inputs": [
        {
          "internalType": "string",
          "name": "name",
          "type": "string"
        },
        {
          "internalType": "uint256",
          "name": "itemId",
          "type": "uint256"
        },
        {
          "internalType": "string",
          "name": "description",
          "type": "string"
        },
        {
          "internalType": "uint256",
          "name": "price",
          "type": "uint256"
        },
        {
          "internalType": "uint256",
          "name": "start_time",
          "type": "uint256"
        },
        {
          "internalType": "uint256",
          "name": "end_time",
          "type": "uint256"
        }
      ],
      "name": "createAuction",
      "outputs": [],
      "stateMutability": "nonpayable",
      "type": "function"
    },
    {
      "inputs": [
        {
          "internalType": "uint256",
          "name": "id",
          "type": "uint256"
        }
      ],
      "name": "findAuctionById",
      "outputs": [
        {
          "components": [
            {
              "internalType": "uint256",
              "name": "id",
              "type": "uint256"
            },
            {
              "internalType": "string",
              "name": "name",
              "type": "string"
            },
            {
              "internalType": "uint256",
              "name": "itemId",
              "type": "uint256"
            },
            {
              "internalType": "string",
              "name": "description",
              "type": "string"
            },
            {
              "internalType": "uint256",
              "name": "price",
              "type": "uint256"
            },
            {
              "internalType": "uint256",
              "name": "start_time",
              "type": "uint256"
            },
            {
              "internalType": "uint256",
              "name": "end_time",
              "type": "uint256"
            },
            {
              "internalType": "enum AuctionStatus",
              "name": "status",
              "type": "uint8"
            },
            {
              "internalType": "address",
              "name": "owner",
              "type": "address"
            },
            {
              "internalType": "address",
              "name": "currentKing",
              "type": "address"
            }
          ],
          "internalType": "struct Auction",
          "name": "",
          "type": "tuple"
        }
      ],
      "stateMutability": "view",
      "type": "function",
      "constant": true
    },
    {
      "inputs": [],
      "name": "getAllAuction",
      "outputs": [
        {
          "components": [
            {
              "internalType": "uint256",
              "name": "id",
              "type": "uint256"
            },
            {
              "internalType": "string",
              "name": "name",
              "type": "string"
            },
            {
              "internalType": "uint256",
              "name": "itemId",
              "type": "uint256"
            },
            {
              "internalType": "string",
              "name": "description",
              "type": "string"
            },
            {
              "internalType": "uint256",
              "name": "price",
              "type": "uint256"
            },
            {
              "internalType": "uint256",
              "name": "start_time",
              "type": "uint256"
            },
            {
              "internalType": "uint256",
              "name": "end_time",
              "type": "uint256"
            },
            {
              "internalType": "enum AuctionStatus",
              "name": "status",
              "type": "uint8"
            },
            {
              "internalType": "address",
              "name": "owner",
              "type": "address"
            },
            {
              "internalType": "address",
              "name": "currentKing",
              "type": "address"
            }
          ],
          "internalType": "struct Auction[]",
          "name": "",
          "type": "tuple[]"
        }
      ],
      "stateMutability": "view",
      "type": "function",
      "constant": true
    },
    {
      "inputs": [
        {
          "internalType": "uint256",
          "name": "id",
          "type": "uint256"
        },
        {
          "internalType": "uint256",
          "name": "price",
          "type": "uint256"
        }
      ],
      "name": "bid",
      "outputs": [],
      "stateMutability": "nonpayable",
      "type": "function"
    },
    {
      "inputs": [],
      "name": "getCurrentTime",
      "outputs": [
        {
          "internalType": "uint256",
          "name": "",
          "type": "uint256"
        }
      ],
      "stateMutability": "view",
      "type": "function",
      "constant": true
    },
    {
      "inputs": [
        {
          "internalType": "uint256",
          "name": "coin",
          "type": "uint256"
        }
      ],
      "name": "coinCharge",
      "outputs": [],
      "stateMutability": "nonpayable",
      "type": "function"
    }
  ],
  "bytecode": "0x6080604052735b38da6a701c568545dcfcb03fcb875f56beddc4600560006101000a81548173ffffffffffffffffffffffffffffffffffffffff021916908373ffffffffffffffffffffffffffffffffffffffff1602179055503480156200006657600080fd5b506040518060400160405280600d81526020017f5370697269747920546f6b656e000000000000000000000000000000000000008152506040518060400160405280600381526020017f53505400000000000000000000000000000000000000000000000000000000008152508160039080519060200190620000eb929190620002a3565b50806004908051906020019062000104929190620002a3565b5050506200011a3360006200012060201b60201c565b620004ff565b600073ffffffffffffffffffffffffffffffffffffffff168273ffffffffffffffffffffffffffffffffffffffff16141562000193576040517f08c379a00000000000000000000000000000000000000000000000000000000081526004016200018a906200038b565b60405180910390fd5b620001a7600083836200029960201b60201c565b8060026000828254620001bb9190620003db565b92505081905550806000808473ffffffffffffffffffffffffffffffffffffffff1673ffffffffffffffffffffffffffffffffffffffff1681526020019081526020016000206000828254620002129190620003db565b925050819055508173ffffffffffffffffffffffffffffffffffffffff16600073ffffffffffffffffffffffffffffffffffffffff167fddf252ad1be2c89b69c2b068fc378daa952ba7f163c4a11628f55a4df523b3ef83604051620002799190620003ad565b60405180910390a362000295600083836200029e60201b60201c565b5050565b505050565b505050565b828054620002b19062000442565b90600052602060002090601f016020900481019282620002d5576000855562000321565b82601f10620002f057805160ff191683800117855562000321565b8280016001018555821562000321579182015b828111156200032057825182559160200191906001019062000303565b5b50905062000330919062000334565b5090565b5b808211156200034f57600081600090555060010162000335565b5090565b600062000362601f83620003ca565b91506200036f82620004d6565b602082019050919050565b620003858162000438565b82525050565b60006020820190508181036000830152620003a68162000353565b9050919050565b6000602082019050620003c460008301846200037a565b92915050565b600082825260208201905092915050565b6000620003e88262000438565b9150620003f58362000438565b9250827fffffffffffffffffffffffffffffffffffffffffffffffffffffffffffffffff038211156200042d576200042c62000478565b5b828201905092915050565b6000819050919050565b600060028204905060018216806200045b57607f821691505b60208210811415620004725762000471620004a7565b5b50919050565b7f4e487b7100000000000000000000000000000000000000000000000000000000600052601160045260246000fd5b7f4e487b7100000000000000000000000000000000000000000000000000000000600052602260045260246000fd5b7f45524332303a206d696e7420746f20746865207a65726f206164647265737300600082015250565b615ab0806200050f6000396000f3fe608060405234801561001057600080fd5b50600436106101585760003560e01c806370a08231116100c3578063a457c2d71161007c578063a457c2d7146103db578063a9059cbb1461040b578063d6afc9b11461043b578063dd62ed3e14610459578063e02c387614610489578063f606841e146104a557610158565b806370a0823114610307578063741a13f9146103375780637dc9e79b14610353578063891863ce1461036f5780638bb1dd801461039f57806395d89b41146103bd57610158565b806327e9f2941161011557806327e9f2941461023357806329cb924d1461024f578063313ce5671461026d578063395093511461028b57806357c03de0146102bb578063598647f8146102eb57610158565b806306fdde031461015d578063095ea7b31461017b57806309e8223a146101ab57806316056daa146101c757806318160ddd146101e557806323b872dd14610203575b600080fd5b6101656104c1565b6040516101729190614e54565b60405180910390f35b6101956004803603810190610190919061439a565b610553565b6040516101a29190614e39565b60405180910390f35b6101c560048036038101906101c091906144da565b610571565b005b6101cf6108f4565b6040516101dc9190614e17565b60405180910390f35b6101ed610c69565b6040516101fa919061517c565b60405180910390f35b61021d6004803603810190610218919061434b565b610c73565b60405161022a9190614e39565b60405180910390f35b61024d600480360381019061024891906143d6565b610d6b565b005b610257610fc7565b604051610264919061517c565b60405180910390f35b61027561105b565b6040516102829190615197565b60405180910390f35b6102a560048036038101906102a0919061439a565b611064565b6040516102b29190614e39565b60405180910390f35b6102d560048036038101906102d09190614593565b611110565b6040516102e29190615138565b60405180910390f35b610305600480360381019061030091906145bc565b6112bb565b005b610321600480360381019061031c91906142e6565b611a32565b60405161032e919061517c565b60405180910390f35b610351600480360381019061034c9190614417565b611a7a565b005b61036d60048036038101906103689190614593565b611c17565b005b61038960048036038101906103849190614593565b612047565b6040516103969190615116565b60405180910390f35b6103a76123bf565b6040516103b49190614e39565b60405180910390f35b6103c5612413565b6040516103d29190614e54565b60405180910390f35b6103f560048036038101906103f0919061439a565b6124a5565b6040516104029190614e39565b60405180910390f35b6104256004803603810190610420919061439a565b612590565b6040516104329190614e39565b60405180910390f35b6104436125ae565b604051610450919061515a565b60405180910390f35b610473600480360381019061046e919061430f565b612a3e565b604051610480919061517c565b60405180910390f35b6104a3600480360381019061049e9190614593565b612ac5565b005b6104bf60048036038101906104ba9190614593565b612bba565b005b6060600380546104d090615429565b80601f01602080910402602001604051908101604052809291908181526020018280546104fc90615429565b80156105495780601f1061051e57610100808354040283529160200191610549565b820191906000526020600020905b81548152906001019060200180831161052c57829003601f168201915b5050505050905090565b6000610567610560613485565b848461348d565b6001905092915050565b600c60003373ffffffffffffffffffffffffffffffffffffffff1673ffffffffffffffffffffffffffffffffffffffff16815260200190815260200160002060009054906101000a900460ff166105fd576040517f08c379a00000000000000000000000000000000000000000000000000000000081526004016105f4906150b6565b60405180910390fd5b6000801b866040516020016106129190614e00565b604051602081830303815290604052805190602001201180156106355750428210155b801561064057508181115b61064957600080fd5b600d600086815260200190815260200160002060009054906101000a900460ff166106a9576040517f08c379a00000000000000000000000000000000000000000000000000000000081526004016106a090614fb6565b60405180910390fd5b60006040518061014001604052806106c16006613658565b815260200188815260200187815260200186815260200185815260200184815260200183815260200160016002811115610724577f4e487b7100000000000000000000000000000000000000000000000000000000600052602160045260246000fd5b81526020013373ffffffffffffffffffffffffffffffffffffffff1681526020013373ffffffffffffffffffffffffffffffffffffffff16815250905060098190806001815401808255809150506001900390600052602060002090600902016000909190919091506000820151816000015560208201518160010190805190602001906107b3929190613fb9565b506040820151816002015560608201518160030190805190602001906107da929190613fb9565b506080820151816004015560a0820151816005015560c0820151816006015560e08201518160070160006101000a81548160ff0219169083600281111561084a577f4e487b7100000000000000000000000000000000000000000000000000000000600052602160045260246000fd5b02179055506101008201518160070160016101000a81548173ffffffffffffffffffffffffffffffffffffffff021916908373ffffffffffffffffffffffffffffffffffffffff1602179055506101208201518160080160006101000a81548173ffffffffffffffffffffffffffffffffffffffff021916908373ffffffffffffffffffffffffffffffffffffffff16021790555050506108eb6006613666565b50505050505050565b6060600c60003373ffffffffffffffffffffffffffffffffffffffff1673ffffffffffffffffffffffffffffffffffffffff16815260200190815260200160002060009054906101000a900460ff16610982576040517f08c379a0000000000000000000000000000000000000000000000000000000008152600401610979906150b6565b60405180910390fd5b6009805480602002602001604051908101604052809291908181526020016000905b82821015610c60578382906000526020600020906009020160405180610140016040529081600082015481526020016001820180546109e290615429565b80601f0160208091040260200160405190810160405280929190818152602001828054610a0e90615429565b8015610a5b5780601f10610a3057610100808354040283529160200191610a5b565b820191906000526020600020905b815481529060010190602001808311610a3e57829003601f168201915b5050505050815260200160028201548152602001600382018054610a7e90615429565b80601f0160208091040260200160405190810160405280929190818152602001828054610aaa90615429565b8015610af75780601f10610acc57610100808354040283529160200191610af7565b820191906000526020600020905b815481529060010190602001808311610ada57829003601f168201915b505050505081526020016004820154815260200160058201548152602001600682015481526020016007820160009054906101000a900460ff166002811115610b69577f4e487b7100000000000000000000000000000000000000000000000000000000600052602160045260246000fd5b6002811115610ba1577f4e487b7100000000000000000000000000000000000000000000000000000000600052602160045260246000fd5b81526020016007820160019054906101000a900473ffffffffffffffffffffffffffffffffffffffff1673ffffffffffffffffffffffffffffffffffffffff1673ffffffffffffffffffffffffffffffffffffffff1681526020016008820160009054906101000a900473ffffffffffffffffffffffffffffffffffffffff1673ffffffffffffffffffffffffffffffffffffffff1673ffffffffffffffffffffffffffffffffffffffff1681525050815260200190600101906109a4565b50505050905090565b6000600254905090565b6000610c8084848461367c565b6000600160008673ffffffffffffffffffffffffffffffffffffffff1673ffffffffffffffffffffffffffffffffffffffff1681526020019081526020016000206000610ccb613485565b73ffffffffffffffffffffffffffffffffffffffff1673ffffffffffffffffffffffffffffffffffffffff16815260200190815260200160002054905082811015610d4b576040517f08c379a0000000000000000000000000000000000000000000000000000000008152600401610d4290615016565b60405180910390fd5b610d5f85610d57613485565b85840361348d565b60019150509392505050565b600c60003373ffffffffffffffffffffffffffffffffffffffff1673ffffffffffffffffffffffffffffffffffffffff16815260200190815260200160002060009054906101000a900460ff16610df7576040517f08c379a0000000000000000000000000000000000000000000000000000000008152600401610dee906150b6565b60405180910390fd5b6000600b6000610e076008613658565b8152602001908152602001600020905081816001019080519060200190610e2f929190613fb9565b50338160020160006101000a81548173ffffffffffffffffffffffffffffffffffffffff021916908373ffffffffffffffffffffffffffffffffffffffff160217905550610e7d6008613658565b81600001819055506001600d6000610e956008613658565b815260200190815260200160002060006101000a81548160ff021916908315150217905550600a60003373ffffffffffffffffffffffffffffffffffffffff1673ffffffffffffffffffffffffffffffffffffffff168152602001908152602001600020600601819080600181540180825580915050600190039060005260206000209060030201600090919091909150600082015481600001556001820181600101908054610f4490615429565b610f4f92919061403f565b506002820160009054906101000a900473ffffffffffffffffffffffffffffffffffffffff168160020160006101000a81548173ffffffffffffffffffffffffffffffffffffffff021916908373ffffffffffffffffffffffffffffffffffffffff1602179055505050610fc36008613666565b5050565b6000600c60003373ffffffffffffffffffffffffffffffffffffffff1673ffffffffffffffffffffffffffffffffffffffff16815260200190815260200160002060009054906101000a900460ff16611055576040517f08c379a000000000000000000000000000000000000000000000000000000000815260040161104c906150b6565b60405180910390fd5b42905090565b60006012905090565b6000611106611071613485565b84846001600061107f613485565b73ffffffffffffffffffffffffffffffffffffffff1673ffffffffffffffffffffffffffffffffffffffff16815260200190815260200160002060008873ffffffffffffffffffffffffffffffffffffffff1673ffffffffffffffffffffffffffffffffffffffff1681526020019081526020016000205461110191906152b2565b61348d565b6001905092915050565b6111186140cc565b600c60003373ffffffffffffffffffffffffffffffffffffffff1673ffffffffffffffffffffffffffffffffffffffff16815260200190815260200160002060009054906101000a900460ff166111a4576040517f08c379a000000000000000000000000000000000000000000000000000000000815260040161119b906150b6565b60405180910390fd5b600b6000838152602001908152602001600020604051806060016040529081600082015481526020016001820180546111dc90615429565b80601f016020809104026020016040519081016040528092919081815260200182805461120890615429565b80156112555780601f1061122a57610100808354040283529160200191611255565b820191906000526020600020905b81548152906001019060200180831161123857829003601f168201915b505050505081526020016002820160009054906101000a900473ffffffffffffffffffffffffffffffffffffffff1673ffffffffffffffffffffffffffffffffffffffff1673ffffffffffffffffffffffffffffffffffffffff16815250509050919050565b600c60003373ffffffffffffffffffffffffffffffffffffffff1673ffffffffffffffffffffffffffffffffffffffff16815260200190815260200160002060009054906101000a900460ff16611347576040517f08c379a000000000000000000000000000000000000000000000000000000000815260040161133e906150b6565b60405180910390fd5b600280811115611380577f4e487b7100000000000000000000000000000000000000000000000000000000600052602160045260246000fd5b600983815481106113ba577f4e487b7100000000000000000000000000000000000000000000000000000000600052603260045260246000fd5b906000526020600020906009020160070160009054906101000a900460ff166002811115611411577f4e487b7100000000000000000000000000000000000000000000000000000000600052602160045260246000fd5b1415611452576040517f08c379a000000000000000000000000000000000000000000000000000000000815260040161144990614ef6565b60405180910390fd5b426009838154811061148d577f4e487b7100000000000000000000000000000000000000000000000000000000600052603260045260246000fd5b906000526020600020906009020160050154111580156114f8575042600983815481106114e3577f4e487b7100000000000000000000000000000000000000000000000000000000600052603260045260246000fd5b90600052602060002090600902016006015410155b611537576040517f08c379a000000000000000000000000000000000000000000000000000000000815260040161152e90614e76565b60405180910390fd5b3373ffffffffffffffffffffffffffffffffffffffff1660098381548110611588577f4e487b7100000000000000000000000000000000000000000000000000000000600052603260045260246000fd5b906000526020600020906009020160070160019054906101000a900473ffffffffffffffffffffffffffffffffffffffff1673ffffffffffffffffffffffffffffffffffffffff161415611611576040517f08c379a000000000000000000000000000000000000000000000000000000000815260040161160890614fd6565b60405180910390fd5b806009838154811061164c577f4e487b7100000000000000000000000000000000000000000000000000000000600052603260045260246000fd5b9060005260206000209060090201600401541080156116ac575080600a60003373ffffffffffffffffffffffffffffffffffffffff1673ffffffffffffffffffffffffffffffffffffffff16815260200190815260200160002060010154115b6116eb576040517f08c379a00000000000000000000000000000000000000000000000000000000081526004016116e290615056565b60405180910390fd5b60098281548110611725577f4e487b7100000000000000000000000000000000000000000000000000000000600052603260045260246000fd5b906000526020600020906009020160080160009054906101000a900473ffffffffffffffffffffffffffffffffffffffff1673ffffffffffffffffffffffffffffffffffffffff16600983815481106117a7577f4e487b7100000000000000000000000000000000000000000000000000000000600052603260045260246000fd5b906000526020600020906009020160070160019054906101000a900473ffffffffffffffffffffffffffffffffffffffff1673ffffffffffffffffffffffffffffffffffffffff16146118d8576118d7600560009054906101000a900473ffffffffffffffffffffffffffffffffffffffff1660098481548110611854577f4e487b7100000000000000000000000000000000000000000000000000000000600052603260045260246000fd5b906000526020600020906009020160080160009054906101000a900473ffffffffffffffffffffffffffffffffffffffff16600985815481106118c0577f4e487b7100000000000000000000000000000000000000000000000000000000600052603260045260246000fd5b90600052602060002090600902016004015461367c565b5b8060098381548110611913577f4e487b7100000000000000000000000000000000000000000000000000000000600052603260045260246000fd5b9060005260206000209060090201600401819055503360098381548110611963577f4e487b7100000000000000000000000000000000000000000000000000000000600052603260045260246000fd5b906000526020600020906009020160080160006101000a81548173ffffffffffffffffffffffffffffffffffffffff021916908373ffffffffffffffffffffffffffffffffffffffff1602179055506119de600560009054906101000a900473ffffffffffffffffffffffffffffffffffffffff1682612590565b506119e833611a32565b600a60003373ffffffffffffffffffffffffffffffffffffffff1673ffffffffffffffffffffffffffffffffffffffff168152602001908152602001600020600101819055505050565b60008060008373ffffffffffffffffffffffffffffffffffffffff1673ffffffffffffffffffffffffffffffffffffffff168152602001908152602001600020549050919050565b600c60003373ffffffffffffffffffffffffffffffffffffffff1673ffffffffffffffffffffffffffffffffffffffff16815260200190815260200160002060009054906101000a900460ff1615611b07576040517f08c379a0000000000000000000000000000000000000000000000000000000008152600401611afe90614ff6565b60405180910390fd5b6000600a60003373ffffffffffffffffffffffffffffffffffffffff1673ffffffffffffffffffffffffffffffffffffffff168152602001908152602001600020905084816002019080519060200190611b62929190613fb9565b5083816003019080519060200190611b7b929190613fb9565b5082816004019080519060200190611b94929190613fb9565b5081816005019080519060200190611bad929190613fb9565b506001600c60003373ffffffffffffffffffffffffffffffffffffffff1673ffffffffffffffffffffffffffffffffffffffff16815260200190815260200160002060006101000a81548160ff021916908315150217905550611c106007613666565b5050505050565b600c60003373ffffffffffffffffffffffffffffffffffffffff1673ffffffffffffffffffffffffffffffffffffffff16815260200190815260200160002060009054906101000a900460ff16611ca3576040517f08c379a0000000000000000000000000000000000000000000000000000000008152600401611c9a906150b6565b60405180910390fd5b3373ffffffffffffffffffffffffffffffffffffffff1660098281548110611cf4577f4e487b7100000000000000000000000000000000000000000000000000000000600052603260045260246000fd5b906000526020600020906009020160070160019054906101000a900473ffffffffffffffffffffffffffffffffffffffff1673ffffffffffffffffffffffffffffffffffffffff161415611d7d576040517f08c379a0000000000000000000000000000000000000000000000000000000008152600401611d7490614ed6565b60405180910390fd5b3373ffffffffffffffffffffffffffffffffffffffff1660098281548110611dce577f4e487b7100000000000000000000000000000000000000000000000000000000600052603260045260246000fd5b906000526020600020906009020160080160009054906101000a900473ffffffffffffffffffffffffffffffffffffffff1673ffffffffffffffffffffffffffffffffffffffff1614611e56576040517f08c379a0000000000000000000000000000000000000000000000000000000008152600401611e4d90615036565b60405180910390fd5b4260098281548110611e91577f4e487b7100000000000000000000000000000000000000000000000000000000600052603260045260246000fd5b90600052602060002090600902016006015410611ee3576040517f08c379a0000000000000000000000000000000000000000000000000000000008152600401611eda90614f16565b60405180910390fd5b611f5b600560009054906101000a900473ffffffffffffffffffffffffffffffffffffffff163360098481548110611f44577f4e487b7100000000000000000000000000000000000000000000000000000000600052603260045260246000fd5b90600052602060002090600902016004015461367c565b611f6433611a32565b600a60003373ffffffffffffffffffffffffffffffffffffffff1673ffffffffffffffffffffffffffffffffffffffff16815260200190815260200160002060010181905550600260098281548110611fe6577f4e487b7100000000000000000000000000000000000000000000000000000000600052603260045260246000fd5b906000526020600020906009020160070160006101000a81548160ff0219169083600281111561203f577f4e487b7100000000000000000000000000000000000000000000000000000000600052602160045260246000fd5b021790555050565b61204f614103565b600c60003373ffffffffffffffffffffffffffffffffffffffff1673ffffffffffffffffffffffffffffffffffffffff16815260200190815260200160002060009054906101000a900460ff166120db576040517f08c379a00000000000000000000000000000000000000000000000000000000081526004016120d2906150b6565b60405180910390fd5b60098281548110612115577f4e487b7100000000000000000000000000000000000000000000000000000000600052603260045260246000fd5b9060005260206000209060090201604051806101400160405290816000820154815260200160018201805461214990615429565b80601f016020809104026020016040519081016040528092919081815260200182805461217590615429565b80156121c25780601f10612197576101008083540402835291602001916121c2565b820191906000526020600020905b8154815290600101906020018083116121a557829003601f168201915b50505050508152602001600282015481526020016003820180546121e590615429565b80601f016020809104026020016040519081016040528092919081815260200182805461221190615429565b801561225e5780601f106122335761010080835404028352916020019161225e565b820191906000526020600020905b81548152906001019060200180831161224157829003601f168201915b505050505081526020016004820154815260200160058201548152602001600682015481526020016007820160009054906101000a900460ff1660028111156122d0577f4e487b7100000000000000000000000000000000000000000000000000000000600052602160045260246000fd5b6002811115612308577f4e487b7100000000000000000000000000000000000000000000000000000000600052602160045260246000fd5b81526020016007820160019054906101000a900473ffffffffffffffffffffffffffffffffffffffff1673ffffffffffffffffffffffffffffffffffffffff1673ffffffffffffffffffffffffffffffffffffffff1681526020016008820160009054906101000a900473ffffffffffffffffffffffffffffffffffffffff1673ffffffffffffffffffffffffffffffffffffffff1673ffffffffffffffffffffffffffffffffffffffff16815250509050919050565b6000600c60003373ffffffffffffffffffffffffffffffffffffffff1673ffffffffffffffffffffffffffffffffffffffff16815260200190815260200160002060009054906101000a900460ff16905090565b60606004805461242290615429565b80601f016020809104026020016040519081016040528092919081815260200182805461244e90615429565b801561249b5780601f106124705761010080835404028352916020019161249b565b820191906000526020600020905b81548152906001019060200180831161247e57829003601f168201915b5050505050905090565b600080600160006124b4613485565b73ffffffffffffffffffffffffffffffffffffffff1673ffffffffffffffffffffffffffffffffffffffff16815260200190815260200160002060008573ffffffffffffffffffffffffffffffffffffffff1673ffffffffffffffffffffffffffffffffffffffff16815260200190815260200160002054905082811015612571576040517f08c379a0000000000000000000000000000000000000000000000000000000008152600401612568906150d6565b60405180910390fd5b61258561257c613485565b8585840361348d565b600191505092915050565b60006125a461259d613485565b848461367c565b6001905092915050565b6125b66141ba565b600c60003373ffffffffffffffffffffffffffffffffffffffff1673ffffffffffffffffffffffffffffffffffffffff16815260200190815260200160002060009054906101000a900460ff16612642576040517f08c379a0000000000000000000000000000000000000000000000000000000008152600401612639906150b6565b60405180910390fd5b600a60003373ffffffffffffffffffffffffffffffffffffffff1673ffffffffffffffffffffffffffffffffffffffff1681526020019081526020016000206040518060e001604052908160008201548152602001600182015481526020016002820180546126b090615429565b80601f01602080910402602001604051908101604052809291908181526020018280546126dc90615429565b80156127295780601f106126fe57610100808354040283529160200191612729565b820191906000526020600020905b81548152906001019060200180831161270c57829003601f168201915b5050505050815260200160038201805461274290615429565b80601f016020809104026020016040519081016040528092919081815260200182805461276e90615429565b80156127bb5780601f10612790576101008083540402835291602001916127bb565b820191906000526020600020905b81548152906001019060200180831161279e57829003601f168201915b505050505081526020016004820180546127d490615429565b80601f016020809104026020016040519081016040528092919081815260200182805461280090615429565b801561284d5780601f106128225761010080835404028352916020019161284d565b820191906000526020600020905b81548152906001019060200180831161283057829003601f168201915b5050505050815260200160058201805461286690615429565b80601f016020809104026020016040519081016040528092919081815260200182805461289290615429565b80156128df5780601f106128b4576101008083540402835291602001916128df565b820191906000526020600020905b8154815290600101906020018083116128c257829003601f168201915b5050505050815260200160068201805480602002602001604051908101604052809291908181526020016000905b82821015612a3157838290600052602060002090600302016040518060600160405290816000820154815260200160018201805461294a90615429565b80601f016020809104026020016040519081016040528092919081815260200182805461297690615429565b80156129c35780601f10612998576101008083540402835291602001916129c3565b820191906000526020600020905b8154815290600101906020018083116129a657829003601f168201915b505050505081526020016002820160009054906101000a900473ffffffffffffffffffffffffffffffffffffffff1673ffffffffffffffffffffffffffffffffffffffff1673ffffffffffffffffffffffffffffffffffffffff16815250508152602001906001019061290d565b5050505081525050905090565b6000600160008473ffffffffffffffffffffffffffffffffffffffff1673ffffffffffffffffffffffffffffffffffffffff16815260200190815260200160002060008373ffffffffffffffffffffffffffffffffffffffff1673ffffffffffffffffffffffffffffffffffffffff16815260200190815260200160002054905092915050565b600c60003373ffffffffffffffffffffffffffffffffffffffff1673ffffffffffffffffffffffffffffffffffffffff16815260200190815260200160002060009054906101000a900460ff16612b51576040517f08c379a0000000000000000000000000000000000000000000000000000000008152600401612b48906150b6565b60405180910390fd5b612b683361271083612b639190615308565b6138fd565b612b7133611a32565b600a60003373ffffffffffffffffffffffffffffffffffffffff1673ffffffffffffffffffffffffffffffffffffffff1681526020019081526020016000206001018190555050565b600c60003373ffffffffffffffffffffffffffffffffffffffff1673ffffffffffffffffffffffffffffffffffffffff16815260200190815260200160002060009054906101000a900460ff16612c46576040517f08c379a0000000000000000000000000000000000000000000000000000000008152600401612c3d906150b6565b60405180910390fd5b3373ffffffffffffffffffffffffffffffffffffffff1660098281548110612c97577f4e487b7100000000000000000000000000000000000000000000000000000000600052603260045260246000fd5b906000526020600020906009020160070160019054906101000a900473ffffffffffffffffffffffffffffffffffffffff1673ffffffffffffffffffffffffffffffffffffffff1614612d1f576040517f08c379a0000000000000000000000000000000000000000000000000000000008152600401612d1690614eb6565b60405180910390fd5b4260098281548110612d5a577f4e487b7100000000000000000000000000000000000000000000000000000000600052603260045260246000fd5b90600052602060002090600902016005015411158015612dc557504260098281548110612db0577f4e487b7100000000000000000000000000000000000000000000000000000000600052603260045260246000fd5b90600052602060002090600902016006015410155b612e04576040517f08c379a0000000000000000000000000000000000000000000000000000000008152600401612dfb90614f56565b60405180910390fd5b612ee7600560009054906101000a900473ffffffffffffffffffffffffffffffffffffffff1660098381548110612e64577f4e487b7100000000000000000000000000000000000000000000000000000000600052603260045260246000fd5b906000526020600020906009020160070160019054906101000a900473ffffffffffffffffffffffffffffffffffffffff1660098481548110612ed0577f4e487b7100000000000000000000000000000000000000000000000000000000600052603260045260246000fd5b90600052602060002090600902016004015461367c565b612f5b60098281548110612f24577f4e487b7100000000000000000000000000000000000000000000000000000000600052603260045260246000fd5b906000526020600020906009020160070160019054906101000a900473ffffffffffffffffffffffffffffffffffffffff16611a32565b600a600060098481548110612f99577f4e487b7100000000000000000000000000000000000000000000000000000000600052603260045260246000fd5b906000526020600020906009020160070160019054906101000a900473ffffffffffffffffffffffffffffffffffffffff1673ffffffffffffffffffffffffffffffffffffffff1673ffffffffffffffffffffffffffffffffffffffff1681526020019081526020016000206001018190555061311660098281548110613049577f4e487b7100000000000000000000000000000000000000000000000000000000600052603260045260246000fd5b906000526020600020906009020160020154600a600060098581548110613099577f4e487b7100000000000000000000000000000000000000000000000000000000600052603260045260246000fd5b906000526020600020906009020160070160019054906101000a900473ffffffffffffffffffffffffffffffffffffffff1673ffffffffffffffffffffffffffffffffffffffff1673ffffffffffffffffffffffffffffffffffffffff168152602001908152602001600020600601613a5d90919063ffffffff16565b60098181548110613150577f4e487b7100000000000000000000000000000000000000000000000000000000600052603260045260246000fd5b906000526020600020906009020160080160009054906101000a900473ffffffffffffffffffffffffffffffffffffffff16600b6000600984815481106131c0577f4e487b7100000000000000000000000000000000000000000000000000000000600052603260045260246000fd5b906000526020600020906009020160020154815260200190815260200160002060020160006101000a81548173ffffffffffffffffffffffffffffffffffffffff021916908373ffffffffffffffffffffffffffffffffffffffff160217905550600a60006009838154811061325f577f4e487b7100000000000000000000000000000000000000000000000000000000600052603260045260246000fd5b906000526020600020906009020160080160009054906101000a900473ffffffffffffffffffffffffffffffffffffffff1673ffffffffffffffffffffffffffffffffffffffff1673ffffffffffffffffffffffffffffffffffffffff168152602001908152602001600020600601600b60006009848154811061330c577f4e487b7100000000000000000000000000000000000000000000000000000000600052603260045260246000fd5b9060005260206000209060090201600201548152602001908152602001600020908060018154018082558091505060019003906000526020600020906003020160009091909190915060008201548160000155600182018160010190805461337390615429565b61337e92919061403f565b506002820160009054906101000a900473ffffffffffffffffffffffffffffffffffffffff168160020160006101000a81548173ffffffffffffffffffffffffffffffffffffffff021916908373ffffffffffffffffffffffffffffffffffffffff1602179055505050600260098281548110613424577f4e487b7100000000000000000000000000000000000000000000000000000000600052603260045260246000fd5b906000526020600020906009020160070160006101000a81548160ff0219169083600281111561347d577f4e487b7100000000000000000000000000000000000000000000000000000000600052602160045260246000fd5b021790555050565b600033905090565b600073ffffffffffffffffffffffffffffffffffffffff168373ffffffffffffffffffffffffffffffffffffffff1614156134fd576040517f08c379a00000000000000000000000000000000000000000000000000000000081526004016134f490615096565b60405180910390fd5b600073ffffffffffffffffffffffffffffffffffffffff168273ffffffffffffffffffffffffffffffffffffffff16141561356d576040517f08c379a000000000000000000000000000000000000000000000000000000000815260040161356490614f36565b60405180910390fd5b80600160008573ffffffffffffffffffffffffffffffffffffffff1673ffffffffffffffffffffffffffffffffffffffff16815260200190815260200160002060008473ffffffffffffffffffffffffffffffffffffffff1673ffffffffffffffffffffffffffffffffffffffff168152602001908152602001600020819055508173ffffffffffffffffffffffffffffffffffffffff168373ffffffffffffffffffffffffffffffffffffffff167f8c5be1e5ebec7d5bd14f71427d1e84f3dd0314c0f7b2291e5b200ac8c7c3b9258360405161364b919061517c565b60405180910390a3505050565b600081600001549050919050565b6001816000016000828254019250508190555050565b600073ffffffffffffffffffffffffffffffffffffffff168373ffffffffffffffffffffffffffffffffffffffff1614156136ec576040517f08c379a00000000000000000000000000000000000000000000000000000000081526004016136e390615076565b60405180910390fd5b600073ffffffffffffffffffffffffffffffffffffffff168273ffffffffffffffffffffffffffffffffffffffff16141561375c576040517f08c379a000000000000000000000000000000000000000000000000000000000815260040161375390614e96565b60405180910390fd5b613767838383613e54565b60008060008573ffffffffffffffffffffffffffffffffffffffff1673ffffffffffffffffffffffffffffffffffffffff168152602001908152602001600020549050818110156137ed576040517f08c379a00000000000000000000000000000000000000000000000000000000081526004016137e490614f76565b60405180910390fd5b8181036000808673ffffffffffffffffffffffffffffffffffffffff1673ffffffffffffffffffffffffffffffffffffffff16815260200190815260200160002081905550816000808573ffffffffffffffffffffffffffffffffffffffff1673ffffffffffffffffffffffffffffffffffffffff168152602001908152602001600020600082825461388091906152b2565b925050819055508273ffffffffffffffffffffffffffffffffffffffff168473ffffffffffffffffffffffffffffffffffffffff167fddf252ad1be2c89b69c2b068fc378daa952ba7f163c4a11628f55a4df523b3ef846040516138e4919061517c565b60405180910390a36138f7848484613e59565b50505050565b600073ffffffffffffffffffffffffffffffffffffffff168273ffffffffffffffffffffffffffffffffffffffff16141561396d576040517f08c379a0000000000000000000000000000000000000000000000000000000008152600401613964906150f6565b60405180910390fd5b61397960008383613e54565b806002600082825461398b91906152b2565b92505081905550806000808473ffffffffffffffffffffffffffffffffffffffff1673ffffffffffffffffffffffffffffffffffffffff16815260200190815260200160002060008282546139e091906152b2565b925050819055508173ffffffffffffffffffffffffffffffffffffffff16600073ffffffffffffffffffffffffffffffffffffffff167fddf252ad1be2c89b69c2b068fc378daa952ba7f163c4a11628f55a4df523b3ef83604051613a45919061517c565b60405180910390a3613a5960008383613e59565b5050565b6000828054905011613a6e57600080fd5b6000613a7a8383613e5e565b90506000838281548110613ab7577f4e487b7100000000000000000000000000000000000000000000000000000000600052603260045260246000fd5b906000526020600020906003020160405180606001604052908160008201548152602001600182018054613aea90615429565b80601f0160208091040260200160405190810160405280929190818152602001828054613b1690615429565b8015613b635780601f10613b3857610100808354040283529160200191613b63565b820191906000526020600020905b815481529060010190602001808311613b4657829003601f168201915b505050505081526020016002820160009054906101000a900473ffffffffffffffffffffffffffffffffffffffff1673ffffffffffffffffffffffffffffffffffffffff1673ffffffffffffffffffffffffffffffffffffffff168152505090508360018580549050613bd69190615339565b81548110613c0d577f4e487b7100000000000000000000000000000000000000000000000000000000600052603260045260246000fd5b9060005260206000209060030201848381548110613c54577f4e487b7100000000000000000000000000000000000000000000000000000000600052603260045260246000fd5b9060005260206000209060030201600082015481600001556001820181600101908054613c8090615429565b613c8b92919061403f565b506002820160009054906101000a900473ffffffffffffffffffffffffffffffffffffffff168160020160006101000a81548173ffffffffffffffffffffffffffffffffffffffff021916908373ffffffffffffffffffffffffffffffffffffffff160217905550905050808460018680549050613d099190615339565b81548110613d40577f4e487b7100000000000000000000000000000000000000000000000000000000600052603260045260246000fd5b9060005260206000209060030201600082015181600001556020820151816001019080519060200190613d74929190613fb9565b5060408201518160020160006101000a81548173ffffffffffffffffffffffffffffffffffffffff021916908373ffffffffffffffffffffffffffffffffffffffff16021790555090505083805480613df6577f4e487b7100000000000000000000000000000000000000000000000000000000600052603160045260246000fd5b6001900381819060005260206000209060030201600080820160009055600182016000613e2391906141f7565b6002820160006101000a81549073ffffffffffffffffffffffffffffffffffffffff02191690555050905550505050565b505050565b505050565b6000613e6a8383613f2e565b613ea9576040517f08c379a0000000000000000000000000000000000000000000000000000000008152600401613ea090614f96565b60405180910390fd5b60005b8380549050811015613f265782848281548110613ef2577f4e487b7100000000000000000000000000000000000000000000000000000000600052603260045260246000fd5b9060005260206000209060030201600001541415613f135780915050613f28565b8080613f1e9061548c565b915050613eac565b505b92915050565b600080600090505b8380549050811015613fb15782848281548110613f7c577f4e487b7100000000000000000000000000000000000000000000000000000000600052603260045260246000fd5b9060005260206000209060030201600001541415613f9e576001915050613fb3565b8080613fa99061548c565b915050613f36565b505b92915050565b828054613fc590615429565b90600052602060002090601f016020900481019282613fe7576000855561402e565b82601f1061400057805160ff191683800117855561402e565b8280016001018555821561402e579182015b8281111561402d578251825591602001919060010190614012565b5b50905061403b9190614237565b5090565b82805461404b90615429565b90600052602060002090601f01602090048101928261406d57600085556140bb565b82601f1061407e57805485556140bb565b828001600101855582156140bb57600052602060002091601f016020900482015b828111156140ba57825482559160010191906001019061409f565b5b5090506140c89190614237565b5090565b60405180606001604052806000815260200160608152602001600073ffffffffffffffffffffffffffffffffffffffff1681525090565b604051806101400160405280600081526020016060815260200160008152602001606081526020016000815260200160008152602001600081526020016000600281111561417a577f4e487b7100000000000000000000000000000000000000000000000000000000600052602160045260246000fd5b8152602001600073ffffffffffffffffffffffffffffffffffffffff168152602001600073ffffffffffffffffffffffffffffffffffffffff1681525090565b6040518060e00160405280600081526020016000815260200160608152602001606081526020016060815260200160608152602001606081525090565b50805461420390615429565b6000825580601f106142155750614234565b601f0160209004906000526020600020908101906142339190614237565b5b50565b5b80821115614250576000816000905550600101614238565b5090565b6000614267614262846151d7565b6151b2565b90508281526020810184848401111561427f57600080fd5b61428a8482856153e7565b509392505050565b6000813590506142a181615a4c565b92915050565b600082601f8301126142b857600080fd5b81356142c8848260208601614254565b91505092915050565b6000813590506142e081615a63565b92915050565b6000602082840312156142f857600080fd5b600061430684828501614292565b91505092915050565b6000806040838503121561432257600080fd5b600061433085828601614292565b925050602061434185828601614292565b9150509250929050565b60008060006060848603121561436057600080fd5b600061436e86828701614292565b935050602061437f86828701614292565b9250506040614390868287016142d1565b9150509250925092565b600080604083850312156143ad57600080fd5b60006143bb85828601614292565b92505060206143cc858286016142d1565b9150509250929050565b6000602082840312156143e857600080fd5b600082013567ffffffffffffffff81111561440257600080fd5b61440e848285016142a7565b91505092915050565b6000806000806080858703121561442d57600080fd5b600085013567ffffffffffffffff81111561444757600080fd5b614453878288016142a7565b945050602085013567ffffffffffffffff81111561447057600080fd5b61447c878288016142a7565b935050604085013567ffffffffffffffff81111561449957600080fd5b6144a5878288016142a7565b925050606085013567ffffffffffffffff8111156144c257600080fd5b6144ce878288016142a7565b91505092959194509250565b60008060008060008060c087890312156144f357600080fd5b600087013567ffffffffffffffff81111561450d57600080fd5b61451989828a016142a7565b965050602061452a89828a016142d1565b955050604087013567ffffffffffffffff81111561454757600080fd5b61455389828a016142a7565b945050606061456489828a016142d1565b935050608061457589828a016142d1565b92505060a061458689828a016142d1565b9150509295509295509295565b6000602082840312156145a557600080fd5b60006145b3848285016142d1565b91505092915050565b600080604083850312156145cf57600080fd5b60006145dd858286016142d1565b92505060206145ee858286016142d1565b9150509250929050565b60006146048383614ab9565b905092915050565b60006146188383614c7b565b905092915050565b6146298161536d565b82525050565b600061463a82615228565b6146448185615263565b93508360208202850161465685615208565b8060005b85811015614692578484038952815161467385826145f8565b945061467e83615249565b925060208a0199505060018101905061465a565b50829750879550505050505092915050565b60006146af82615233565b6146b98185615274565b9350836020820285016146cb85615218565b8060005b8581101561470757848403895281516146e8858261460c565b94506146f383615256565b925060208a019950506001810190506146cf565b50829750879550505050505092915050565b6147228161537f565b82525050565b614731816153d5565b82525050565b60006147428261523e565b61474c8185615285565b935061475c8185602086016153f6565b614765816155c0565b840191505092915050565b600061477b8261523e565b6147858185615296565b93506147958185602086016153f6565b61479e816155c0565b840191505092915050565b60006147b48261523e565b6147be81856152a7565b93506147ce8185602086016153f6565b80840191505092915050565b60006147e7601783615296565b91506147f2826155d1565b602082019050919050565b600061480a602383615296565b9150614815826155fa565b604082019050919050565b600061482d600f83615296565b915061483882615649565b602082019050919050565b6000614850600c83615296565b915061485b82615672565b602082019050919050565b6000614873601283615296565b915061487e8261569b565b602082019050919050565b6000614896601283615296565b91506148a1826156c4565b602082019050919050565b60006148b9602283615296565b91506148c4826156ed565b604082019050919050565b60006148dc601783615296565b91506148e78261573c565b602082019050919050565b60006148ff602683615296565b915061490a82615765565b604082019050919050565b6000614922600f83615296565b915061492d826157b4565b602082019050919050565b6000614945600e83615296565b9150614950826157dd565b602082019050919050565b6000614968601183615296565b915061497382615806565b602082019050919050565b600061498b601683615296565b91506149968261582f565b602082019050919050565b60006149ae602883615296565b91506149b982615858565b604082019050919050565b60006149d1600c83615296565b91506149dc826158a7565b602082019050919050565b60006149f4601783615296565b91506149ff826158d0565b602082019050919050565b6000614a17602583615296565b9150614a22826158f9565b604082019050919050565b6000614a3a602483615296565b9150614a4582615948565b604082019050919050565b6000614a5d601a83615296565b9150614a6882615997565b602082019050919050565b6000614a80602583615296565b9150614a8b826159c0565b604082019050919050565b6000614aa3601f83615296565b9150614aae82615a0f565b602082019050919050565b600061014083016000830151614ad26000860182614dd3565b5060208301518482036020860152614aea8282614737565b9150506040830151614aff6040860182614dd3565b5060608301518482036060860152614b178282614737565b9150506080830151614b2c6080860182614dd3565b5060a0830151614b3f60a0860182614dd3565b5060c0830151614b5260c0860182614dd3565b5060e0830151614b6560e0860182614728565b50610100830151614b7a610100860182614620565b50610120830151614b8f610120860182614620565b508091505092915050565b600061014083016000830151614bb36000860182614dd3565b5060208301518482036020860152614bcb8282614737565b9150506040830151614be06040860182614dd3565b5060608301518482036060860152614bf88282614737565b9150506080830151614c0d6080860182614dd3565b5060a0830151614c2060a0860182614dd3565b5060c0830151614c3360c0860182614dd3565b5060e0830151614c4660e0860182614728565b50610100830151614c5b610100860182614620565b50610120830151614c70610120860182614620565b508091505092915050565b6000606083016000830151614c936000860182614dd3565b5060208301518482036020860152614cab8282614737565b9150506040830151614cc06040860182614620565b508091505092915050565b6000606083016000830151614ce36000860182614dd3565b5060208301518482036020860152614cfb8282614737565b9150506040830151614d106040860182614620565b508091505092915050565b600060e083016000830151614d336000860182614dd3565b506020830151614d466020860182614dd3565b5060408301518482036040860152614d5e8282614737565b91505060608301518482036060860152614d788282614737565b91505060808301518482036080860152614d928282614737565b91505060a083015184820360a0860152614dac8282614737565b91505060c083015184820360c0860152614dc682826146a4565b9150508091505092915050565b614ddc816153be565b82525050565b614deb816153be565b82525050565b614dfa816153c8565b82525050565b6000614e0c82846147a9565b915081905092915050565b60006020820190508181036000830152614e31818461462f565b905092915050565b6000602082019050614e4e6000830184614719565b92915050565b60006020820190508181036000830152614e6e8184614770565b905092915050565b60006020820190508181036000830152614e8f816147da565b9050919050565b60006020820190508181036000830152614eaf816147fd565b9050919050565b60006020820190508181036000830152614ecf81614820565b9050919050565b60006020820190508181036000830152614eef81614843565b9050919050565b60006020820190508181036000830152614f0f81614866565b9050919050565b60006020820190508181036000830152614f2f81614889565b9050919050565b60006020820190508181036000830152614f4f816148ac565b9050919050565b60006020820190508181036000830152614f6f816148cf565b9050919050565b60006020820190508181036000830152614f8f816148f2565b9050919050565b60006020820190508181036000830152614faf81614915565b9050919050565b60006020820190508181036000830152614fcf81614938565b9050919050565b60006020820190508181036000830152614fef8161495b565b9050919050565b6000602082019050818103600083015261500f8161497e565b9050919050565b6000602082019050818103600083015261502f816149a1565b9050919050565b6000602082019050818103600083015261504f816149c4565b9050919050565b6000602082019050818103600083015261506f816149e7565b9050919050565b6000602082019050818103600083015261508f81614a0a565b9050919050565b600060208201905081810360008301526150af81614a2d565b9050919050565b600060208201905081810360008301526150cf81614a50565b9050919050565b600060208201905081810360008301526150ef81614a73565b9050919050565b6000602082019050818103600083015261510f81614a96565b9050919050565b600060208201905081810360008301526151308184614b9a565b905092915050565b600060208201905081810360008301526151528184614ccb565b905092915050565b600060208201905081810360008301526151748184614d1b565b905092915050565b60006020820190506151916000830184614de2565b92915050565b60006020820190506151ac6000830184614df1565b92915050565b60006151bc6151cd565b90506151c8828261545b565b919050565b6000604051905090565b600067ffffffffffffffff8211156151f2576151f1615591565b5b6151fb826155c0565b9050602081019050919050565b6000819050602082019050919050565b6000819050602082019050919050565b600081519050919050565b600081519050919050565b600081519050919050565b6000602082019050919050565b6000602082019050919050565b600082825260208201905092915050565b600082825260208201905092915050565b600082825260208201905092915050565b600082825260208201905092915050565b600081905092915050565b60006152bd826153be565b91506152c8836153be565b9250827fffffffffffffffffffffffffffffffffffffffffffffffffffffffffffffffff038211156152fd576152fc6154d5565b5b828201905092915050565b6000615313826153be565b915061531e836153be565b92508261532e5761532d615504565b5b828204905092915050565b6000615344826153be565b915061534f836153be565b925082821015615362576153616154d5565b5b828203905092915050565b60006153788261539e565b9050919050565b60008115159050919050565b600081905061539982615a38565b919050565b600073ffffffffffffffffffffffffffffffffffffffff82169050919050565b6000819050919050565b600060ff82169050919050565b60006153e08261538b565b9050919050565b82818337600083830152505050565b60005b838110156154145780820151818401526020810190506153f9565b83811115615423576000848401525b50505050565b6000600282049050600182168061544157607f821691505b6020821081141561545557615454615562565b5b50919050565b615464826155c0565b810181811067ffffffffffffffff8211171561548357615482615591565b5b80604052505050565b6000615497826153be565b91507fffffffffffffffffffffffffffffffffffffffffffffffffffffffffffffffff8214156154ca576154c96154d5565b5b600182019050919050565b7f4e487b7100000000000000000000000000000000000000000000000000000000600052601160045260246000fd5b7f4e487b7100000000000000000000000000000000000000000000000000000000600052601260045260246000fd5b7f4e487b7100000000000000000000000000000000000000000000000000000000600052602160045260246000fd5b7f4e487b7100000000000000000000000000000000000000000000000000000000600052602260045260246000fd5b7f4e487b7100000000000000000000000000000000000000000000000000000000600052604160045260246000fd5b6000601f19601f8301169050919050565b7f4f757473696465206f662061756374696f6e2074696d65000000000000000000600082015250565b7f45524332303a207472616e7366657220746f20746865207a65726f206164647260008201527f6573730000000000000000000000000000000000000000000000000000000000602082015250565b7f6e6f74207065726d697373696f6e210000000000000000000000000000000000600082015250565b7f596f75206973206f776e65720000000000000000000000000000000000000000600082015250565b7f61756374696f6e2077617320636c6f7365640000000000000000000000000000600082015250565b7f596f75206e6f74207065726d697373696f6e0000000000000000000000000000600082015250565b7f45524332303a20617070726f766520746f20746865207a65726f20616464726560008201527f7373000000000000000000000000000000000000000000000000000000000000602082015250565b7f4f757469646573206f662061756374696f6e2074696d65000000000000000000600082015250565b7f45524332303a207472616e7366657220616d6f756e742065786365656473206260008201527f616c616e63650000000000000000000000000000000000000000000000000000602082015250565b7f56616c7565206e6f7420666f756e640000000000000000000000000000000000600082015250565b7f4974656d206e6f74204578697374000000000000000000000000000000000000600082015250565b7f596f752061726520746865206f776e6572000000000000000000000000000000600082015250565b7f4d656d6265722077617320726567697374657265642100000000000000000000600082015250565b7f45524332303a207472616e7366657220616d6f756e742065786365656473206160008201527f6c6c6f77616e6365000000000000000000000000000000000000000000000000602082015250565b7f596f75206e6f74206b696e670000000000000000000000000000000000000000600082015250565b7f596f7520617265206e6f7420656e6f7567687420535054000000000000000000600082015250565b7f45524332303a207472616e736665722066726f6d20746865207a65726f20616460008201527f6472657373000000000000000000000000000000000000000000000000000000602082015250565b7f45524332303a20617070726f76652066726f6d20746865207a65726f2061646460008201527f7265737300000000000000000000000000000000000000000000000000000000602082015250565b7f4d656d62657220776173206e6f74207265676973746572656421000000000000600082015250565b7f45524332303a2064656372656173656420616c6c6f77616e63652062656c6f7760008201527f207a65726f000000000000000000000000000000000000000000000000000000602082015250565b7f45524332303a206d696e7420746f20746865207a65726f206164647265737300600082015250565b60038110615a4957615a48615533565b5b50565b615a558161536d565b8114615a6057600080fd5b50565b615a6c816153be565b8114615a7757600080fd5b5056fea264697066735822122097cc174902ca627ce19f05366933c590825bf2cf3fb5aee9a9fc99abe76ad24264736f6c63430008040033",
  "immutableReferences": {},
  "source": "// contracts/MyToken.sol\r\n// SPDX-License-Identifier: MIT\r\npragma solidity ^0.8.0;\r\nimport \"@openzeppelin/contracts/token/ERC20/ERC20.sol\";\r\nimport \"@openzeppelin/contracts/utils/Counters.sol\";\r\nimport \"./Utils.sol\";\r\nimport \"./Schemas.sol\";\r\ncontract Aucijo is ERC20 {\r\n    constructor() ERC20(\"Spirity Token\", \"SPT\") {\r\n        _mint(msg.sender, 0);\r\n    }\r\n    \r\n    address private StoreToken = 0x5B38Da6a701c568545dCfcB03FcB875f56beddC4;\r\n    \r\n    using Counters for Counters.Counter;\r\n    using Array for Item[];\r\n    \r\n    Counters.Counter private _auctionId;\r\n    Counters.Counter private _memberId;\r\n    Counters.Counter private _itemId;\r\n \r\n    Auction[] auctions;\r\n    mapping(address => Member) members;\r\n    mapping(uint => Item) items;\r\n    mapping(address => bool) registered;\r\n    mapping(uint => bool) itemExist;\r\n    \r\n    modifier mRegistered() {\r\n        require(registered[msg.sender], 'Member was not registered!');\r\n        _;\r\n    }\r\n    function registerMember(string memory firstname, string memory lastname, string memory email, string memory _address) public {\r\n        require(!registered[msg.sender],'Member was registered!');\r\n        Member storage member = members[msg.sender];\r\n        member.firstname = firstname;\r\n        member.lastname = lastname;\r\n        member.email = email;\r\n        member._address = _address;\r\n        registered[msg.sender] = true;\r\n        _memberId.increment();\r\n    }\r\n    function wasRegistered() public view returns(bool){\r\n        return registered[msg.sender];\r\n    }\r\n    function getProfile() public view mRegistered returns(Member memory){\r\n        return members[msg.sender];\r\n    }\r\n    function addItem(string memory name) public mRegistered{\r\n        Item storage item = items[_itemId.current()];\r\n        item.name = name;\r\n        item.owner = msg.sender;\r\n        item.id = _itemId.current();\r\n        itemExist[_itemId.current()] = true;\r\n        members[msg.sender].items.push(item);\r\n        _itemId.increment();\r\n    }\r\n\r\n    function agree(uint id) public mRegistered{\r\n        require(auctions[id].owner == msg.sender, 'not permission!'); // yu cu phi l ch s hu mi c thc thi\r\n        require(auctions[id].start_time <= block.timestamp && auctions[id].end_time >= block.timestamp, 'Outides of auction time');\r\n        // processing seller: auctions[id].owner\r\n        _transfer(StoreToken, auctions[id].owner, auctions[id].price);\r\n        members[auctions[id].owner].tokens = balanceOf(auctions[id].owner);\r\n        members[auctions[id].owner].items.remove(auctions[id].itemId);\r\n        // proessing purchaser: auctions[id].currentKing\r\n        items[auctions[id].itemId].owner = auctions[id].currentKing;\r\n        members[auctions[id].currentKing].items.push(items[auctions[id].itemId]);\r\n        auctions[id].status = AuctionStatus.CLOSED;\r\n        \r\n    } \r\n    function findItemById(uint id) public view mRegistered returns(Item memory){\r\n        return items[id];\r\n    }\r\n    // function revokeToken trong tng hp ngi to hp ng khng agree nhng  qu hn u gi, ngi u gi cao nht c  quy n \r\n    // thu hi token\r\n    function revokeToken(uint id) public mRegistered {\r\n        require(auctions[id].owner != msg.sender,'You is owner');\r\n        require(auctions[id].currentKing == msg.sender,'You not king');\r\n        require(auctions[id].end_time < block.timestamp,'You not permission');\r\n        _transfer(StoreToken, msg.sender, auctions[id].price);\r\n        members[msg.sender].tokens = balanceOf(msg.sender);\r\n        auctions[id].status = AuctionStatus.CLOSED;\r\n    }\r\n    function createAuction(string memory name,uint itemId,  string memory description, uint price, uint start_time, uint end_time) public mRegistered{\r\n        require(keccak256(abi.encodePacked((name))) > 0 && start_time >= block.timestamp && end_time > start_time);\r\n        require(itemExist[itemId],'Item not Exist');\r\n        Auction memory auction = Auction(_auctionId.current(), name, itemId, description, price, start_time, end_time, AuctionStatus.START, msg.sender, msg.sender);\r\n        auctions.push(auction);\r\n        _auctionId.increment();\r\n    }\r\n    \r\n    function findAuctionById(uint id) public view mRegistered returns(Auction memory){\r\n        return auctions[id];\r\n    }\r\n    function getAllAuction() public view mRegistered returns(Auction[] memory){\r\n        return auctions;\r\n    }\r\n    // function upgradeStatusAuction(uint id) public mRegistered{\r\n    //     require(auctions[id].owner == msg.sender,'You are not the owner');\r\n    //     auctions[id].status = AuctionStatus.CLOSED ;\r\n    // }\r\n    // u gi ch c thc hin khi trong thi gian start v end \r\n    // khi ngi dng u gi, s c mt StoreToken gi s tin ngi u gi   gi s tin ngi u gi\r\n    \r\n    function bid(uint id, uint price) public mRegistered{\r\n        require(auctions[id].status != AuctionStatus.CLOSED,'auction was closed');\r\n        require(auctions[id].start_time <= block.timestamp && auctions[id].end_time >= block.timestamp, 'Outside of auction time');\r\n        require(auctions[id].owner != msg.sender,'You are the owner');\r\n        require(auctions[id].price < price && members[msg.sender].tokens > price, 'You are not enought SPT');\r\n        if(auctions[id].owner != auctions[id].currentKing) _transfer(StoreToken, auctions[id].currentKing, auctions[id].price);\r\n        auctions[id].price = price;\r\n        auctions[id].currentKing = msg.sender;\r\n        transfer(StoreToken, price);\r\n        members[msg.sender].tokens = balanceOf(msg.sender);\r\n    }\r\n    function getCurrentTime() public view mRegistered returns(uint){\r\n        return block.timestamp;\r\n    }\r\n    function coinCharge(uint coin) public mRegistered{\r\n        _mint(msg.sender, coin/10000);\r\n        members[msg.sender].tokens = balanceOf(msg.sender);\r\n    }\r\n    \r\n    \r\n}",
  "sourcePath": "D:/aucijo/contracts/base/Aucijo.sol",
  "compiler": {
    "name": "solc",
    "version": "0.8.4+commit.c7e474f2.Emscripten.clang"
  },
  "schemaVersion": "3.4.1",
  "updatedAt": "2021-07-09T17:23:37.338Z",
  "networkType": "ethereum",
  "devdoc": {
    "kind": "dev",
    "methods": {
      "allowance(address,address)": {
        "details": "See {IERC20-allowance}."
      },
      "approve(address,uint256)": {
        "details": "See {IERC20-approve}. Requirements: - `spender` cannot be the zero address."
      },
      "balanceOf(address)": {
        "details": "See {IERC20-balanceOf}."
      },
      "decimals()": {
        "details": "Returns the number of decimals used to get its user representation. For example, if `decimals` equals `2`, a balance of `505` tokens should be displayed to a user as `5,05` (`505 / 10 ** 2`). Tokens usually opt for a value of 18, imitating the relationship between Ether and Wei. This is the value {ERC20} uses, unless this function is overridden; NOTE: This information is only used for _display_ purposes: it in no way affects any of the arithmetic of the contract, including {IERC20-balanceOf} and {IERC20-transfer}."
      },
      "decreaseAllowance(address,uint256)": {
        "details": "Atomically decreases the allowance granted to `spender` by the caller. This is an alternative to {approve} that can be used as a mitigation for problems described in {IERC20-approve}. Emits an {Approval} event indicating the updated allowance. Requirements: - `spender` cannot be the zero address. - `spender` must have allowance for the caller of at least `subtractedValue`."
      },
      "increaseAllowance(address,uint256)": {
        "details": "Atomically increases the allowance granted to `spender` by the caller. This is an alternative to {approve} that can be used as a mitigation for problems described in {IERC20-approve}. Emits an {Approval} event indicating the updated allowance. Requirements: - `spender` cannot be the zero address."
      },
      "name()": {
        "details": "Returns the name of the token."
      },
      "symbol()": {
        "details": "Returns the symbol of the token, usually a shorter version of the name."
      },
      "totalSupply()": {
        "details": "See {IERC20-totalSupply}."
      },
      "transfer(address,uint256)": {
        "details": "See {IERC20-transfer}. Requirements: - `recipient` cannot be the zero address. - the caller must have a balance of at least `amount`."
      },
      "transferFrom(address,address,uint256)": {
        "details": "See {IERC20-transferFrom}. Emits an {Approval} event indicating the updated allowance. This is not required by the EIP. See the note at the beginning of {ERC20}. Requirements: - `sender` and `recipient` cannot be the zero address. - `sender` must have a balance of at least `amount`. - the caller must have allowance for ``sender``'s tokens of at least `amount`."
      }
    },
    "version": 1
  },
  "userdoc": {
    "kind": "user",
    "methods": {},
    "version": 1
  }
}