{
  "contractName": "Aucijo",
  "abi": [
    {
      "inputs": [],
      "stateMutability": "nonpayable",
      "type": "constructor"
    },
    {
      "anonymous": false,
      "inputs": [
        {
          "indexed": false,
          "internalType": "uint256",
          "name": "id",
          "type": "uint256"
        },
        {
          "indexed": false,
          "internalType": "string",
          "name": "name",
          "type": "string"
        },
        {
          "indexed": false,
          "internalType": "uint256",
          "name": "itemId",
          "type": "uint256"
        },
        {
          "indexed": false,
          "internalType": "string",
          "name": "description",
          "type": "string"
        },
        {
          "indexed": false,
          "internalType": "uint256",
          "name": "price",
          "type": "uint256"
        },
        {
          "indexed": false,
          "internalType": "uint256",
          "name": "start_time",
          "type": "uint256"
        },
        {
          "indexed": false,
          "internalType": "uint256",
          "name": "end_time",
          "type": "uint256"
        }
      ],
      "name": "AddAuction",
      "type": "event"
    },
    {
      "anonymous": false,
      "inputs": [
        {
          "indexed": true,
          "internalType": "address",
          "name": "_from",
          "type": "address"
        },
        {
          "indexed": false,
          "internalType": "uint256",
          "name": "_id",
          "type": "uint256"
        },
        {
          "indexed": false,
          "internalType": "string",
          "name": "_value",
          "type": "string"
        }
      ],
      "name": "AddItem",
      "type": "event"
    },
    {
      "anonymous": false,
      "inputs": [
        {
          "indexed": true,
          "internalType": "address",
          "name": "owner",
          "type": "address"
        },
        {
          "indexed": true,
          "internalType": "address",
          "name": "spender",
          "type": "address"
        },
        {
          "indexed": false,
          "internalType": "uint256",
          "name": "value",
          "type": "uint256"
        }
      ],
      "name": "Approval",
      "type": "event"
    },
    {
      "anonymous": false,
      "inputs": [
        {
          "indexed": true,
          "internalType": "uint256",
          "name": "id",
          "type": "uint256"
        },
        {
          "indexed": false,
          "internalType": "address",
          "name": "currentKing",
          "type": "address"
        },
        {
          "indexed": false,
          "internalType": "uint256",
          "name": "price",
          "type": "uint256"
        },
        {
          "indexed": false,
          "internalType": "uint256",
          "name": "becomeAt",
          "type": "uint256"
        }
      ],
      "name": "BecomeKing",
      "type": "event"
    },
    {
      "anonymous": false,
      "inputs": [
        {
          "indexed": true,
          "internalType": "address",
          "name": "from",
          "type": "address"
        },
        {
          "indexed": true,
          "internalType": "address",
          "name": "to",
          "type": "address"
        },
        {
          "indexed": false,
          "internalType": "uint256",
          "name": "value",
          "type": "uint256"
        }
      ],
      "name": "Transfer",
      "type": "event"
    },
    {
      "inputs": [
        {
          "internalType": "address",
          "name": "owner",
          "type": "address"
        },
        {
          "internalType": "address",
          "name": "spender",
          "type": "address"
        }
      ],
      "name": "allowance",
      "outputs": [
        {
          "internalType": "uint256",
          "name": "",
          "type": "uint256"
        }
      ],
      "stateMutability": "view",
      "type": "function"
    },
    {
      "inputs": [
        {
          "internalType": "address",
          "name": "spender",
          "type": "address"
        },
        {
          "internalType": "uint256",
          "name": "amount",
          "type": "uint256"
        }
      ],
      "name": "approve",
      "outputs": [
        {
          "internalType": "bool",
          "name": "",
          "type": "bool"
        }
      ],
      "stateMutability": "nonpayable",
      "type": "function"
    },
    {
      "inputs": [
        {
          "internalType": "address",
          "name": "account",
          "type": "address"
        }
      ],
      "name": "balanceOf",
      "outputs": [
        {
          "internalType": "uint256",
          "name": "",
          "type": "uint256"
        }
      ],
      "stateMutability": "view",
      "type": "function"
    },
    {
      "inputs": [],
      "name": "decimals",
      "outputs": [
        {
          "internalType": "uint8",
          "name": "",
          "type": "uint8"
        }
      ],
      "stateMutability": "view",
      "type": "function"
    },
    {
      "inputs": [
        {
          "internalType": "address",
          "name": "spender",
          "type": "address"
        },
        {
          "internalType": "uint256",
          "name": "subtractedValue",
          "type": "uint256"
        }
      ],
      "name": "decreaseAllowance",
      "outputs": [
        {
          "internalType": "bool",
          "name": "",
          "type": "bool"
        }
      ],
      "stateMutability": "nonpayable",
      "type": "function"
    },
    {
      "inputs": [
        {
          "internalType": "address",
          "name": "spender",
          "type": "address"
        },
        {
          "internalType": "uint256",
          "name": "addedValue",
          "type": "uint256"
        }
      ],
      "name": "increaseAllowance",
      "outputs": [
        {
          "internalType": "bool",
          "name": "",
          "type": "bool"
        }
      ],
      "stateMutability": "nonpayable",
      "type": "function"
    },
    {
      "inputs": [],
      "name": "name",
      "outputs": [
        {
          "internalType": "string",
          "name": "",
          "type": "string"
        }
      ],
      "stateMutability": "view",
      "type": "function"
    },
    {
      "inputs": [],
      "name": "symbol",
      "outputs": [
        {
          "internalType": "string",
          "name": "",
          "type": "string"
        }
      ],
      "stateMutability": "view",
      "type": "function"
    },
    {
      "inputs": [],
      "name": "totalSupply",
      "outputs": [
        {
          "internalType": "uint256",
          "name": "",
          "type": "uint256"
        }
      ],
      "stateMutability": "view",
      "type": "function"
    },
    {
      "inputs": [
        {
          "internalType": "address",
          "name": "recipient",
          "type": "address"
        },
        {
          "internalType": "uint256",
          "name": "amount",
          "type": "uint256"
        }
      ],
      "name": "transfer",
      "outputs": [
        {
          "internalType": "bool",
          "name": "",
          "type": "bool"
        }
      ],
      "stateMutability": "nonpayable",
      "type": "function"
    },
    {
      "inputs": [
        {
          "internalType": "address",
          "name": "sender",
          "type": "address"
        },
        {
          "internalType": "address",
          "name": "recipient",
          "type": "address"
        },
        {
          "internalType": "uint256",
          "name": "amount",
          "type": "uint256"
        }
      ],
      "name": "transferFrom",
      "outputs": [
        {
          "internalType": "bool",
          "name": "",
          "type": "bool"
        }
      ],
      "stateMutability": "nonpayable",
      "type": "function"
    },
    {
      "inputs": [
        {
          "internalType": "string",
          "name": "firstname",
          "type": "string"
        },
        {
          "internalType": "string",
          "name": "lastname",
          "type": "string"
        },
        {
          "internalType": "string",
          "name": "email",
          "type": "string"
        },
        {
          "internalType": "string",
          "name": "_address",
          "type": "string"
        },
        {
          "internalType": "string",
          "name": "phonenumber",
          "type": "string"
        }
      ],
      "name": "registerMember",
      "outputs": [],
      "stateMutability": "nonpayable",
      "type": "function"
    },
    {
      "inputs": [],
      "name": "wasRegistered",
      "outputs": [
        {
          "internalType": "bool",
          "name": "",
          "type": "bool"
        }
      ],
      "stateMutability": "view",
      "type": "function"
    },
    {
      "inputs": [],
      "name": "getProfile",
      "outputs": [
        {
          "components": [
            {
              "internalType": "uint256",
              "name": "id",
              "type": "uint256"
            },
            {
              "internalType": "uint256",
              "name": "tokens",
              "type": "uint256"
            },
            {
              "internalType": "string",
              "name": "firstname",
              "type": "string"
            },
            {
              "internalType": "string",
              "name": "lastname",
              "type": "string"
            },
            {
              "internalType": "string",
              "name": "email",
              "type": "string"
            },
            {
              "internalType": "string",
              "name": "phonenumber",
              "type": "string"
            },
            {
              "internalType": "string",
              "name": "_address",
              "type": "string"
            },
            {
              "components": [
                {
                  "internalType": "uint256",
                  "name": "id",
                  "type": "uint256"
                },
                {
                  "internalType": "string",
                  "name": "name",
                  "type": "string"
                },
                {
                  "internalType": "address",
                  "name": "owner",
                  "type": "address"
                }
              ],
              "internalType": "struct Item[]",
              "name": "items",
              "type": "tuple[]"
            }
          ],
          "internalType": "struct Member",
          "name": "",
          "type": "tuple"
        }
      ],
      "stateMutability": "view",
      "type": "function"
    },
    {
      "inputs": [
        {
          "internalType": "string",
          "name": "name",
          "type": "string"
        }
      ],
      "name": "addItem",
      "outputs": [],
      "stateMutability": "nonpayable",
      "type": "function"
    },
    {
      "inputs": [
        {
          "internalType": "uint256",
          "name": "id",
          "type": "uint256"
        }
      ],
      "name": "agree",
      "outputs": [],
      "stateMutability": "nonpayable",
      "type": "function"
    },
    {
      "inputs": [
        {
          "internalType": "uint256",
          "name": "id",
          "type": "uint256"
        }
      ],
      "name": "revokeAuction",
      "outputs": [],
      "stateMutability": "nonpayable",
      "type": "function"
    },
    {
      "inputs": [
        {
          "internalType": "uint256",
          "name": "id",
          "type": "uint256"
        }
      ],
      "name": "findItemById",
      "outputs": [
        {
          "components": [
            {
              "internalType": "uint256",
              "name": "id",
              "type": "uint256"
            },
            {
              "internalType": "string",
              "name": "name",
              "type": "string"
            },
            {
              "internalType": "address",
              "name": "owner",
              "type": "address"
            }
          ],
          "internalType": "struct Item",
          "name": "",
          "type": "tuple"
        }
      ],
      "stateMutability": "view",
      "type": "function"
    },
    {
      "inputs": [
        {
          "internalType": "uint256",
          "name": "id",
          "type": "uint256"
        }
      ],
      "name": "revokeToken",
      "outputs": [],
      "stateMutability": "nonpayable",
      "type": "function"
    },
    {
      "inputs": [
        {
          "internalType": "string",
          "name": "name",
          "type": "string"
        },
        {
          "internalType": "uint256",
          "name": "itemId",
          "type": "uint256"
        },
        {
          "internalType": "string",
          "name": "description",
          "type": "string"
        },
        {
          "internalType": "uint256",
          "name": "price",
          "type": "uint256"
        },
        {
          "internalType": "uint256",
          "name": "start_time",
          "type": "uint256"
        },
        {
          "internalType": "uint256",
          "name": "end_time",
          "type": "uint256"
        }
      ],
      "name": "createAuction",
      "outputs": [],
      "stateMutability": "nonpayable",
      "type": "function"
    },
    {
      "inputs": [
        {
          "internalType": "uint256",
          "name": "id",
          "type": "uint256"
        }
      ],
      "name": "findAuctionById",
      "outputs": [
        {
          "components": [
            {
              "internalType": "uint256",
              "name": "id",
              "type": "uint256"
            },
            {
              "internalType": "string",
              "name": "name",
              "type": "string"
            },
            {
              "internalType": "uint256",
              "name": "itemId",
              "type": "uint256"
            },
            {
              "internalType": "string",
              "name": "description",
              "type": "string"
            },
            {
              "internalType": "uint256",
              "name": "price",
              "type": "uint256"
            },
            {
              "internalType": "uint256",
              "name": "start_time",
              "type": "uint256"
            },
            {
              "internalType": "uint256",
              "name": "end_time",
              "type": "uint256"
            },
            {
              "internalType": "enum AuctionStatus",
              "name": "status",
              "type": "uint8"
            },
            {
              "internalType": "address",
              "name": "owner",
              "type": "address"
            },
            {
              "internalType": "address",
              "name": "currentKing",
              "type": "address"
            }
          ],
          "internalType": "struct Auction",
          "name": "",
          "type": "tuple"
        }
      ],
      "stateMutability": "view",
      "type": "function"
    },
    {
      "inputs": [],
      "name": "getAllAuction",
      "outputs": [
        {
          "components": [
            {
              "internalType": "uint256",
              "name": "id",
              "type": "uint256"
            },
            {
              "internalType": "string",
              "name": "name",
              "type": "string"
            },
            {
              "internalType": "uint256",
              "name": "itemId",
              "type": "uint256"
            },
            {
              "internalType": "string",
              "name": "description",
              "type": "string"
            },
            {
              "internalType": "uint256",
              "name": "price",
              "type": "uint256"
            },
            {
              "internalType": "uint256",
              "name": "start_time",
              "type": "uint256"
            },
            {
              "internalType": "uint256",
              "name": "end_time",
              "type": "uint256"
            },
            {
              "internalType": "enum AuctionStatus",
              "name": "status",
              "type": "uint8"
            },
            {
              "internalType": "address",
              "name": "owner",
              "type": "address"
            },
            {
              "internalType": "address",
              "name": "currentKing",
              "type": "address"
            }
          ],
          "internalType": "struct Auction[]",
          "name": "",
          "type": "tuple[]"
        }
      ],
      "stateMutability": "view",
      "type": "function"
    },
    {
      "inputs": [
        {
          "internalType": "uint256",
          "name": "id",
          "type": "uint256"
        },
        {
          "internalType": "uint256",
          "name": "price",
          "type": "uint256"
        }
      ],
      "name": "bid",
      "outputs": [],
      "stateMutability": "nonpayable",
      "type": "function"
    },
    {
      "inputs": [],
      "name": "getCurrentTime",
      "outputs": [
        {
          "internalType": "uint256",
          "name": "",
          "type": "uint256"
        }
      ],
      "stateMutability": "view",
      "type": "function"
    },
    {
      "inputs": [
        {
          "internalType": "uint256",
          "name": "coin",
          "type": "uint256"
        }
      ],
      "name": "coinCharge",
      "outputs": [],
      "stateMutability": "nonpayable",
      "type": "function"
    }
  ],
  "bytecode": "0x6080604052600580546001600160a01b03191673aefdf92622c243a246ec10ad9e1b218f0a0ef0c31790553480156200003757600080fd5b506040518060400160405280600d81526020016c29b834b934ba3c902a37b5b2b760991b8152506040518060400160405280600381526020016214d41560ea1b815250816003908051906020019062000092929190620001ac565b508051620000a8906004906020840190620001ac565b505050620000be336000620000c460201b60201c565b620002b4565b6001600160a01b0382166200011f5760405162461bcd60e51b815260206004820152601f60248201527f45524332303a206d696e7420746f20746865207a65726f206164647265737300604482015260640160405180910390fd5b806002600082825462000133919062000252565b90915550506001600160a01b038216600090815260208190526040812080548392906200016290849062000252565b90915550506040518181526001600160a01b038316906000907fddf252ad1be2c89b69c2b068fc378daa952ba7f163c4a11628f55a4df523b3ef9060200160405180910390a35050565b828054620001ba9062000277565b90600052602060002090601f016020900481019282620001de576000855562000229565b82601f10620001f957805160ff191683800117855562000229565b8280016001018555821562000229579182015b82811115620002295782518255916020019190600101906200020c565b50620002379291506200023b565b5090565b5b808211156200023757600081556001016200023c565b600082198211156200027257634e487b7160e01b81526011600452602481fd5b500190565b600181811c908216806200028c57607f821691505b60208210811415620002ae57634e487b7160e01b600052602260045260246000fd5b50919050565b6139d280620002c46000396000f3fe608060405234801561001057600080fd5b50600436106101335760003560e01c806306fdde0314610138578063095ea7b31461015657806309e8223a1461017957806316056daa1461018e57806318160ddd146101a357806323b872dd146101b557806327e9f294146101c857806329cb924d146101db578063313ce567146101e357806339509351146101f257806357c03de014610205578063598647f814610225578063701d4a671461023857806370a082311461024b5780637dc9e79b1461025e578063891863ce146102715780638bb1dd801461029157806395d89b41146102a9578063a457c2d7146102b1578063a9059cbb146102c4578063bf17522a146102d7578063d6afc9b1146102ea578063dd62ed3e146102ff578063e02c387614610338578063f606841e1461034b575b600080fd5b61014061035e565b60405161014d9190613622565b60405180910390f35b610169610164366004613224565b6103f0565b604051901515815260200161014d565b61018c610187366004613352565b610407565b005b610196610763565b60405161014d91906135c1565b6002545b60405190815260200161014d565b6101696101c33660046131e9565b6109c2565b61018c6101d636600461324d565b610a6c565b6101a7610be6565b6040516012815260200161014d565b610169610200366004613224565b610c1a565b6102186102133660046133d7565b610c56565b60405161014d9190613733565b61018c6102333660046133ef565b610d89565b61018c610246366004613287565b61122e565b6101a7610259366004613196565b611337565b61018c61026c3660046133d7565b611352565b61028461027f3660046133d7565b611635565b60405161014d9190613720565b336000908152600c602052604090205460ff16610169565b610140611879565b6101696102bf366004613224565b611888565b6101696102d2366004613224565b611921565b61018c6102e53660046133d7565b61192e565b6102f2611cfd565b60405161014d9190613746565b6101a761030d3660046131b7565b6001600160a01b03918216600090815260016020908152604080832093909416825291909152205490565b61018c6103463660046133d7565b6121a9565b61018c6103593660046133d7565b61220c565b60606003805461036d906138fa565b80601f0160208091040260200160405190810160405280929190818152602001828054610399906138fa565b80156103e65780601f106103bb576101008083540402835291602001916103e6565b820191906000526020600020905b8154815290600101906020018083116103c957829003601f168201915b5050505050905090565b60006103fd3384846127c8565b5060015b92915050565b336000908152600c602052604090205460ff1661043f5760405162461bcd60e51b8152600401610436906136ec565b60405180910390fd5b6040516000906104539088906020016135a5565b604051602081830303815290604052805190602001201180156104765750428210155b801561048157508181115b61049d5760405162461bcd60e51b815260040161043690613635565b6000858152600d602052604090205460ff166104ec5760405162461bcd60e51b815260206004820152600e60248201526d125d195b481b9bdd08115e1a5cdd60921b6044820152606401610436565b6000858152600e602052604090205460ff161561053f5760405162461bcd60e51b81526020600482015260116024820152704974656d207761732061756374696f6e2160781b6044820152606401610436565b6000858152600e6020526040808220805460ff19166001179055805161014081019091528061056d60065490565b8152602001888152602001878152602001868152602001858152602001848152602001838152602001600160028111156105b757634e487b7160e01b600052602160045260246000fd5b8152336020808301829052604090920152600980546001810182556000829052835191027f6e1540171b6c0c960b71a7020d9f60077f6af931a8bbf590da0223dacf75c7af81019182558383015180519495508594929361063f937f6e1540171b6c0c960b71a7020d9f60077f6af931a8bbf590da0223dacf75c7b090930192910190612f36565b506040820151600282015560608201518051610665916003840191602090910190612f36565b506080820151600482015560a0820151600582015560c0820151600682015560e082015160078201805460ff191660018360028111156106b557634e487b7160e01b600052602160045260246000fd5b021790555061010082810151600783018054610100600160a81b0319166001600160a01b039283169093029290921790915561012090920151600890910180546001600160a01b031916919092161790556006547fb94e5c49f48c6fb667365a6e5fc1a77cd310568dde5e3413747e9c2104f6a78d90888888888888604051610744979695949392919061382e565b60405180910390a161075a600680546001019055565b50505050505050565b336000908152600c602052604090205460609060ff166107955760405162461bcd60e51b8152600401610436906136ec565b6009805480602002602001604051908101604052809291908181526020016000905b828210156109b9578382906000526020600020906009020160405180610140016040529081600082015481526020016001820180546107f5906138fa565b80601f0160208091040260200160405190810160405280929190818152602001828054610821906138fa565b801561086e5780601f106108435761010080835404028352916020019161086e565b820191906000526020600020905b81548152906001019060200180831161085157829003601f168201915b5050505050815260200160028201548152602001600382018054610891906138fa565b80601f01602080910402602001604051908101604052809291908181526020018280546108bd906138fa565b801561090a5780601f106108df5761010080835404028352916020019161090a565b820191906000526020600020905b8154815290600101906020018083116108ed57829003601f168201915b5050509183525050600482015460208201526005820154604082015260068201546060820152600782015460809091019060ff16600281111561095d57634e487b7160e01b600052602160045260246000fd5b600281111561097c57634e487b7160e01b600052602160045260246000fd5b815260078201546001600160a01b0361010090910481166020808401919091526008909301541660409091015290825260019290920191016107b7565b50505050905090565b60006109cf8484846128ec565b6001600160a01b038416600090815260016020908152604080832033845290915290205482811015610a545760405162461bcd60e51b815260206004820152602860248201527f45524332303a207472616e7366657220616d6f756e74206578636565647320616044820152676c6c6f77616e636560c01b6064820152608401610436565b610a6185338584036127c8565b506001949350505050565b336000908152600c602052604090205460ff16610a9b5760405162461bcd60e51b8152600401610436906136ec565b6000600b6000610aaa60085490565b8152602001908152602001600020905081816001019080519060200190610ad2929190612f36565b506002810180546001600160a01b03191633179055610af060085490565b81556001600d6000610b0160085490565b815260208082019290925260409081016000908120805460ff191694151594909417909355338352600a825282206007018054600181810183559184529190922083546003909202019081558282018054849383019190610b61906138fa565b610b6c929190612fba565b50600291820154910180546001600160a01b0319166001600160a01b03909216919091179055337fc13dfb7e65ffaf5db347a448814a2b0c1f17a29c8b5a05ed1d872751672e9083610bbd60085490565b84604051610bcc929190613815565b60405180910390a2610be2600880546001019055565b5050565b336000908152600c602052604081205460ff16610c155760405162461bcd60e51b8152600401610436906136ec565b504290565b3360008181526001602090815260408083206001600160a01b038716845290915281205490916103fd918590610c5190869061387f565b6127c8565b610c836040518060600160405280600081526020016060815260200160006001600160a01b031681525090565b336000908152600c602052604090205460ff16610cb25760405162461bcd60e51b8152600401610436906136ec565b600b600083815260200190815260200160002060405180606001604052908160008201548152602001600182018054610cea906138fa565b80601f0160208091040260200160405190810160405280929190818152602001828054610d16906138fa565b8015610d635780601f10610d3857610100808354040283529160200191610d63565b820191906000526020600020905b815481529060010190602001808311610d4657829003601f168201915b5050509183525050600291909101546001600160a01b031660209091015290505b919050565b336000908152600c602052604090205460ff16610db85760405162461bcd60e51b8152600401610436906136ec565b600260098381548110610ddb57634e487b7160e01b600052603260045260246000fd5b600091825260209091206007600990920201015460ff166002811115610e1157634e487b7160e01b600052602160045260246000fd5b1415610e545760405162461bcd60e51b8152602060048201526012602482015271185d58dd1a5bdb881dd85cc818db1bdcd95960721b6044820152606401610436565b4260098381548110610e7657634e487b7160e01b600052603260045260246000fd5b90600052602060002090600902016005015411158015610ec857504260098381548110610eb357634e487b7160e01b600052603260045260246000fd5b90600052602060002090600902016006015410155b610ee45760405162461bcd60e51b815260040161043690613635565b336001600160a01b031660098381548110610f0f57634e487b7160e01b600052603260045260246000fd5b600091825260209091206009909102016007015461010090046001600160a01b03161415610f735760405162461bcd60e51b81526020600482015260116024820152702cb7ba9030b932903a34329037bbb732b960791b6044820152606401610436565b8060098381548110610f9557634e487b7160e01b600052603260045260246000fd5b906000526020600020906009020160040154108015610fc55750336000908152600a602052604090206001015481105b61100b5760405162461bcd60e51b8152602060048201526017602482015276165bdd48185c99481b9bdd08195b9bdd59da1d0814d415604a1b6044820152606401610436565b6009828154811061102c57634e487b7160e01b600052603260045260246000fd5b906000526020600020906009020160080160009054906101000a90046001600160a01b03166001600160a01b03166009838154811061107b57634e487b7160e01b600052603260045260246000fd5b600091825260209091206009909102016007015461010090046001600160a01b0316146111335760055460098054611133926001600160a01b03169190859081106110d657634e487b7160e01b600052603260045260246000fd5b906000526020600020906009020160080160009054906101000a90046001600160a01b03166009858154811061111c57634e487b7160e01b600052603260045260246000fd5b9060005260206000209060090201600401546128ec565b806009838154811061115557634e487b7160e01b600052603260045260246000fd5b906000526020600020906009020160040181905550336009838154811061118c57634e487b7160e01b600052603260045260246000fd5b6000918252602090912060099091020160080180546001600160a01b0319166001600160a01b039283161790556005546111c7911682611921565b506111d133611337565b336000818152600a60209081526040918290206001019390935580519182529181018390524281830152905183917f63d94e2815da937158a9dbe6184977549ff247792cd6c1bae8d2aca2bac8b326919081900360600190a25050565b336000908152600c602052604090205460ff16156112875760405162461bcd60e51b81526020600482015260166024820152754d656d6265722077617320726567697374657265642160501b6044820152606401610436565b336000908152600a60209081526040909120865190916112ae916002840191890190612f36565b5084516112c49060038301906020880190612f36565b5083516112da9060048301906020870190612f36565b5082516112f09060068301906020860190612f36565b5081516113069060058301906020850190612f36565b50336000908152600c60205260409020805460ff1916600117905561132f600780546001019055565b505050505050565b6001600160a01b031660009081526020819052604090205490565b336000908152600c602052604090205460ff166113815760405162461bcd60e51b8152600401610436906136ec565b336001600160a01b0316600982815481106113ac57634e487b7160e01b600052603260045260246000fd5b600091825260209091206009909102016007015461010090046001600160a01b0316141561140b5760405162461bcd60e51b815260206004820152600c60248201526b2cb7ba9034b99037bbb732b960a11b6044820152606401610436565b336001600160a01b03166009828154811061143657634e487b7160e01b600052603260045260246000fd5b60009182526020909120600860099092020101546001600160a01b03161461148f5760405162461bcd60e51b815260206004820152600c60248201526b596f75206e6f74206b696e6760a01b6044820152606401610436565b42600982815481106114b157634e487b7160e01b600052603260045260246000fd5b906000526020600020906009020160060154106115055760405162461bcd60e51b81526020600482015260126024820152712cb7ba903737ba103832b936b4b9b9b4b7b760711b6044820152606401610436565b60016009828154811061152857634e487b7160e01b600052603260045260246000fd5b600091825260209091206007600990920201015460ff16600281111561155e57634e487b7160e01b600052602160045260246000fd5b1461157b5760405162461bcd60e51b81526004016104369061368f565b600554600980546115b0926001600160a01b03169133918590811061111c57634e487b7160e01b600052603260045260246000fd5b6115b933611337565b336000908152600a60205260409020600101556009805460029190839081106115f257634e487b7160e01b600052603260045260246000fd5b60009182526020909120600760099092020101805460ff1916600183600281111561162d57634e487b7160e01b600052602160045260246000fd5b021790555050565b61163d613035565b336000908152600c602052604090205460ff1661166c5760405162461bcd60e51b8152600401610436906136ec565b6009828154811061168d57634e487b7160e01b600052603260045260246000fd5b906000526020600020906009020160405180610140016040529081600082015481526020016001820180546116c1906138fa565b80601f01602080910402602001604051908101604052809291908181526020018280546116ed906138fa565b801561173a5780601f1061170f5761010080835404028352916020019161173a565b820191906000526020600020905b81548152906001019060200180831161171d57829003601f168201915b505050505081526020016002820154815260200160038201805461175d906138fa565b80601f0160208091040260200160405190810160405280929190818152602001828054611789906138fa565b80156117d65780601f106117ab576101008083540402835291602001916117d6565b820191906000526020600020905b8154815290600101906020018083116117b957829003601f168201915b5050509183525050600482015460208201526005820154604082015260068201546060820152600782015460809091019060ff16600281111561182957634e487b7160e01b600052602160045260246000fd5b600281111561184857634e487b7160e01b600052602160045260246000fd5b8152600782015461010090046001600160a01b03908116602083015260089092015490911660409091015292915050565b60606004805461036d906138fa565b3360009081526001602090815260408083206001600160a01b03861684529091528120548281101561190a5760405162461bcd60e51b815260206004820152602560248201527f45524332303a2064656372656173656420616c6c6f77616e63652062656c6f77604482015264207a65726f60d81b6064820152608401610436565b61191733858584036127c8565b5060019392505050565b60006103fd3384846128ec565b336000908152600c602052604090205460ff1661195d5760405162461bcd60e51b8152600401610436906136ec565b336001600160a01b03166009828154811061198857634e487b7160e01b600052603260045260246000fd5b600091825260209091206009909102016007015461010090046001600160a01b0316146119c75760405162461bcd60e51b815260040161043690613666565b42600982815481106119e957634e487b7160e01b600052603260045260246000fd5b90600052602060002090600902016005015411158015611a3b57504260098281548110611a2657634e487b7160e01b600052603260045260246000fd5b90600052602060002090600902016006015410155b611a575760405162461bcd60e51b8152600401610436906136bb565b600160098281548110611a7a57634e487b7160e01b600052603260045260246000fd5b600091825260209091206007600990920201015460ff166002811115611ab057634e487b7160e01b600052602160045260246000fd5b14611acd5760405162461bcd60e51b81526004016104369061368f565b336001600160a01b031660098281548110611af857634e487b7160e01b600052603260045260246000fd5b60009182526020909120600860099092020101546001600160a01b031614611c395760055460098054611b94926001600160a01b0316919084908110611b4e57634e487b7160e01b600052603260045260246000fd5b906000526020600020906009020160080160009054906101000a90046001600160a01b03166009848154811061111c57634e487b7160e01b600052603260045260246000fd5b611be260098281548110611bb857634e487b7160e01b600052603260045260246000fd5b906000526020600020906009020160070160019054906101000a90046001600160a01b0316611337565b600a600060098481548110611c0757634e487b7160e01b600052603260045260246000fd5b60009182526020808320600860099093020191909101546001600160a01b031683528201929092526040019020600101555b600260098281548110611c5c57634e487b7160e01b600052603260045260246000fd5b60009182526020909120600760099092020101805460ff19166001836002811115611c9757634e487b7160e01b600052602160045260246000fd5b02179055506000600e600060098481548110611cc357634e487b7160e01b600052603260045260246000fd5b906000526020600020906009020160020154815260200190815260200160002060006101000a81548160ff02191690831515021790555050565b611d4560405180610100016040528060008152602001600081526020016060815260200160608152602001606081526020016060815260200160608152602001606081525090565b336000908152600c602052604090205460ff16611d745760405162461bcd60e51b8152600401610436906136ec565b600a6000336001600160a01b03166001600160a01b03168152602001908152602001600020604051806101000160405290816000820154815260200160018201548152602001600282018054611dc9906138fa565b80601f0160208091040260200160405190810160405280929190818152602001828054611df5906138fa565b8015611e425780601f10611e1757610100808354040283529160200191611e42565b820191906000526020600020905b815481529060010190602001808311611e2557829003601f168201915b50505050508152602001600382018054611e5b906138fa565b80601f0160208091040260200160405190810160405280929190818152602001828054611e87906138fa565b8015611ed45780601f10611ea957610100808354040283529160200191611ed4565b820191906000526020600020905b815481529060010190602001808311611eb757829003601f168201915b50505050508152602001600482018054611eed906138fa565b80601f0160208091040260200160405190810160405280929190818152602001828054611f19906138fa565b8015611f665780601f10611f3b57610100808354040283529160200191611f66565b820191906000526020600020905b815481529060010190602001808311611f4957829003601f168201915b50505050508152602001600582018054611f7f906138fa565b80601f0160208091040260200160405190810160405280929190818152602001828054611fab906138fa565b8015611ff85780601f10611fcd57610100808354040283529160200191611ff8565b820191906000526020600020905b815481529060010190602001808311611fdb57829003601f168201915b50505050508152602001600682018054612011906138fa565b80601f016020809104026020016040519081016040528092919081815260200182805461203d906138fa565b801561208a5780601f1061205f5761010080835404028352916020019161208a565b820191906000526020600020905b81548152906001019060200180831161206d57829003601f168201915b5050505050815260200160078201805480602002602001604051908101604052809291908181526020016000905b8282101561219c5783829060005260206000209060030201604051806060016040529081600082015481526020016001820180546120f5906138fa565b80601f0160208091040260200160405190810160405280929190818152602001828054612121906138fa565b801561216e5780601f106121435761010080835404028352916020019161216e565b820191906000526020600020905b81548152906001019060200180831161215157829003601f168201915b5050509183525050600291909101546001600160a01b031660209182015290825260019290920191016120b8565b5050505081525050905090565b336000908152600c602052604090205460ff166121d85760405162461bcd60e51b8152600401610436906136ec565b6121ed336121e861271084613897565b612aaa565b6121f633611337565b336000908152600a602052604090206001015550565b336000908152600c602052604090205460ff1661223b5760405162461bcd60e51b8152600401610436906136ec565b336001600160a01b03166009828154811061226657634e487b7160e01b600052603260045260246000fd5b600091825260209091206009909102016007015461010090046001600160a01b0316146122a55760405162461bcd60e51b815260040161043690613666565b42600982815481106122c757634e487b7160e01b600052603260045260246000fd5b906000526020600020906009020160050154111580156123195750426009828154811061230457634e487b7160e01b600052603260045260246000fd5b90600052602060002090600902016006015410155b6123355760405162461bcd60e51b8152600401610436906136bb565b60016009828154811061235857634e487b7160e01b600052603260045260246000fd5b600091825260209091206007600990920201015460ff16600281111561238e57634e487b7160e01b600052602160045260246000fd5b146123ab5760405162461bcd60e51b81526004016104369061368f565b336001600160a01b0316600982815481106123d657634e487b7160e01b600052603260045260246000fd5b60009182526020909120600860099092020101546001600160a01b031614156124375760405162461bcd60e51b8152602060048201526013602482015272596f752061726520646573747275637469766560681b6044820152606401610436565b600554600980546124b1926001600160a01b031691908490811061246b57634e487b7160e01b600052603260045260246000fd5b906000526020600020906009020160070160019054906101000a90046001600160a01b03166009848154811061111c57634e487b7160e01b600052603260045260246000fd5b6124d560098281548110611bb857634e487b7160e01b600052603260045260246000fd5b600a6000600984815481106124fa57634e487b7160e01b600052603260045260246000fd5b906000526020600020906009020160070160019054906101000a90046001600160a01b03166001600160a01b03166001600160a01b03168152602001908152602001600020600101819055506125db6009828154811061256a57634e487b7160e01b600052603260045260246000fd5b906000526020600020906009020160020154600a6000600985815481106125a157634e487b7160e01b600052603260045260246000fd5b6000918252602080832060076009909302018201546001600160a01b03610100909104168452830193909352604090910190200190612b77565b600981815481106125fc57634e487b7160e01b600052603260045260246000fd5b906000526020600020906009020160080160009054906101000a90046001600160a01b0316600b60006009848154811061264657634e487b7160e01b600052603260045260246000fd5b906000526020600020906009020160020154815260200190815260200160002060020160006101000a8154816001600160a01b0302191690836001600160a01b03160217905550600a6000600983815481106126b257634e487b7160e01b600052603260045260246000fd5b906000526020600020906009020160080160009054906101000a90046001600160a01b03166001600160a01b03166001600160a01b03168152602001908152602001600020600701600b60006009848154811061271f57634e487b7160e01b600052603260045260246000fd5b60009182526020808320600260099093020191909101548352828101939093526040909101812083546001818101865594835292909120815460039093020191825582810180549193830191612774906138fa565b61277f929190612fba565b5060029182015490820180546001600160a01b0319166001600160a01b039092169190911790556009805483908110611c5c57634e487b7160e01b600052603260045260246000fd5b6001600160a01b03831661282a5760405162461bcd60e51b8152602060048201526024808201527f45524332303a20617070726f76652066726f6d20746865207a65726f206164646044820152637265737360e01b6064820152608401610436565b6001600160a01b03821661288b5760405162461bcd60e51b815260206004820152602260248201527f45524332303a20617070726f766520746f20746865207a65726f206164647265604482015261737360f01b6064820152608401610436565b6001600160a01b0383811660008181526001602090815260408083209487168084529482529182902085905590518481527f8c5be1e5ebec7d5bd14f71427d1e84f3dd0314c0f7b2291e5b200ac8c7c3b925910160405180910390a3505050565b6001600160a01b0383166129505760405162461bcd60e51b815260206004820152602560248201527f45524332303a207472616e736665722066726f6d20746865207a65726f206164604482015264647265737360d81b6064820152608401610436565b6001600160a01b0382166129b25760405162461bcd60e51b815260206004820152602360248201527f45524332303a207472616e7366657220746f20746865207a65726f206164647260448201526265737360e81b6064820152608401610436565b6001600160a01b03831660009081526020819052604090205481811015612a2a5760405162461bcd60e51b815260206004820152602660248201527f45524332303a207472616e7366657220616d6f756e7420657863656564732062604482015265616c616e636560d01b6064820152608401610436565b6001600160a01b03808516600090815260208190526040808220858503905591851681529081208054849290612a6190849061387f565b92505081905550826001600160a01b0316846001600160a01b031660008051602061397d83398151915284604051612a9b91815260200190565b60405180910390a35b50505050565b6001600160a01b038216612b005760405162461bcd60e51b815260206004820152601f60248201527f45524332303a206d696e7420746f20746865207a65726f2061646472657373006044820152606401610436565b8060026000828254612b12919061387f565b90915550506001600160a01b03821660009081526020819052604081208054839290612b3f90849061387f565b90915550506040518181526001600160a01b0383169060009060008051602061397d8339815191529060200160405180910390a35050565b8154612b8257600080fd5b6000612b8e8383612e25565b90506000838281548110612bb257634e487b7160e01b600052603260045260246000fd5b906000526020600020906003020160405180606001604052908160008201548152602001600182018054612be5906138fa565b80601f0160208091040260200160405190810160405280929190818152602001828054612c11906138fa565b8015612c5e5780601f10612c3357610100808354040283529160200191612c5e565b820191906000526020600020905b815481529060010190602001808311612c4157829003601f168201915b5050509183525050600291909101546001600160a01b031660209091015284549091508490612c8f906001906138b7565b81548110612cad57634e487b7160e01b600052603260045260246000fd5b9060005260206000209060030201848381548110612cdb57634e487b7160e01b600052603260045260246000fd5b9060005260206000209060030201600082015481600001556001820181600101908054612d07906138fa565b612d12929190612fba565b50600291820154910180546001600160a01b0319166001600160a01b03909216919091179055835481908590612d4a906001906138b7565b81548110612d6857634e487b7160e01b600052603260045260246000fd5b9060005260206000209060030201600082015181600001556020820151816001019080519060200190612d9c929190612f36565b5060409190910151600290910180546001600160a01b0319166001600160a01b039092169190911790558354849080612de557634e487b7160e01b600052603160045260246000fd5b60008281526020812060036000199093019283020181815590612e0b60018301826130a7565b5060020180546001600160a01b0319169055905550505050565b6000612e318383612ed4565b612e6f5760405162461bcd60e51b815260206004820152600f60248201526e15985b1d59481b9bdd08199bdd5b99608a1b6044820152606401610436565b60005b8354811015612ecd5782848281548110612e9c57634e487b7160e01b600052603260045260246000fd5b9060005260206000209060030201600001541415612ebb579050610401565b80612ec581613935565b915050612e72565b5092915050565b6000805b8354811015612ecd5782848281548110612f0257634e487b7160e01b600052603260045260246000fd5b9060005260206000209060030201600001541415612f24576001915050610401565b80612f2e81613935565b915050612ed8565b828054612f42906138fa565b90600052602060002090601f016020900481019282612f645760008555612faa565b82601f10612f7d57805160ff1916838001178555612faa565b82800160010185558215612faa579182015b82811115612faa578251825591602001919060010190612f8f565b50612fb69291506130e4565b5090565b828054612fc6906138fa565b90600052602060002090601f016020900481019282612fe85760008555612faa565b82601f10612ff95780548555612faa565b82800160010185558215612faa57600052602060002091601f016020900482015b82811115612faa57825482559160010191906001019061301a565b604051806101400160405280600081526020016060815260200160008152602001606081526020016000815260200160008152602001600081526020016000600281111561309357634e487b7160e01b600052602160045260246000fd5b815260006020820181905260409091015290565b5080546130b3906138fa565b6000825580601f106130c3575050565b601f0160209004906000526020600020908101906130e191906130e4565b50565b5b80821115612fb657600081556001016130e5565b80356001600160a01b0381168114610d8457600080fd5b600082601f830112613120578081fd5b81356001600160401b038082111561313a5761313a613966565b604051601f8301601f19908116603f0116810190828211818310171561316257613162613966565b8160405283815286602085880101111561317a578485fd5b8360208701602083013792830160200193909352509392505050565b6000602082840312156131a7578081fd5b6131b0826130f9565b9392505050565b600080604083850312156131c9578081fd5b6131d2836130f9565b91506131e0602084016130f9565b90509250929050565b6000806000606084860312156131fd578081fd5b613206846130f9565b9250613214602085016130f9565b9150604084013590509250925092565b60008060408385031215613236578182fd5b61323f836130f9565b946020939093013593505050565b60006020828403121561325e578081fd5b81356001600160401b03811115613273578182fd5b61327f84828501613110565b949350505050565b600080600080600060a0868803121561329e578081fd5b85356001600160401b03808211156132b4578283fd5b6132c089838a01613110565b965060208801359150808211156132d5578283fd5b6132e189838a01613110565b955060408801359150808211156132f6578283fd5b61330289838a01613110565b94506060880135915080821115613317578283fd5b61332389838a01613110565b93506080880135915080821115613338578283fd5b5061334588828901613110565b9150509295509295909350565b60008060008060008060c0878903121561336a578081fd5b86356001600160401b0380821115613380578283fd5b61338c8a838b01613110565b97506020890135965060408901359150808211156133a8578283fd5b506133b589828a01613110565b945050606087013592506080870135915060a087013590509295509295509295565b6000602082840312156133e8578081fd5b5035919050565b60008060408385031215613401578182fd5b50508035926020909101359150565b6001600160a01b03169052565b600081518084526020808501808196508360051b81019150828601855b85811015613464578284038952613452848351613569565b9885019893509084019060010161343a565b5091979650505050505050565b6003811061348f57634e487b7160e01b600052602160045260246000fd5b9052565b600081518084526134ab8160208601602086016138ce565b601f01601f19169290920160200192915050565b60006101408251845260208301518160208601526134df82860182613493565b91505060408301516040850152606083015184820360608601526135038282613493565b9150506080830151608085015260a083015160a085015260c083015160c085015260e083015161353660e0860182613471565b506101008084015161354a82870182613410565b50506101208084015161355f82870182613410565b5090949350505050565b8051825260006020820151606060208501526135886060850182613493565b6040938401516001600160a01b0316949093019390935250919050565b600082516135b78184602087016138ce565b9190910192915050565b6000602080830181845280855180835260408601915060408160051b8701019250838701855b8281101561361557603f198886030184526136038583516134bf565b945092850192908501906001016135e7565b5092979650505050505050565b6020815260006131b06020830184613493565b6020808252601790820152764f757473696465206f662061756374696f6e2074696d6560481b604082015260600190565b6020808252600f908201526e6e6f74207065726d697373696f6e2160881b604082015260600190565b602080825260129082015271105d58dd1a5bdb881dd85cc818db1bdcd95960721b604082015260600190565b6020808252601790820152764f757469646573206f662061756374696f6e2074696d6560481b604082015260600190565b6020808252601a90820152794d656d62657220776173206e6f7420726567697374657265642160301b604082015260600190565b6020815260006131b060208301846134bf565b6020815260006131b06020830184613569565b60208152815160208201526020820151604082015260006040830151610100806060850152613779610120850183613493565b91506060850151601f19808685030160808701526137978483613493565b935060808701519150808685030160a08701526137b48483613493565b935060a08701519150808685030160c08701526137d18483613493565b935060c08701519150808685030160e08701526137ee8483613493565b935060e087015191508086850301838701525061380b838261341d565b9695505050505050565b82815260406020820152600061327f6040830184613493565b87815260e06020820152600061384760e0830189613493565b876040840152828103606084015261385f8188613493565b6080840196909652505060a081019290925260c090910152949350505050565b6000821982111561389257613892613950565b500190565b6000826138b257634e487b7160e01b81526012600452602481fd5b500490565b6000828210156138c9576138c9613950565b500390565b60005b838110156138e95781810151838201526020016138d1565b83811115612aa45750506000910152565b600181811c9082168061390e57607f821691505b6020821081141561392f57634e487b7160e01b600052602260045260246000fd5b50919050565b600060001982141561394957613949613950565b5060010190565b634e487b7160e01b600052601160045260246000fd5b634e487b7160e01b600052604160045260246000fdfeddf252ad1be2c89b69c2b068fc378daa952ba7f163c4a11628f55a4df523b3efa2646970667358221220c39f9fecf866eff86858c55bae1a8e2b21e64ce04ba55e98ab9f81d6912fa80064736f6c63430008040033",
  "immutableReferences": {},
  "source": "// contracts/MyToken.sol\r\n// SPDX-License-Identifier: MIT\r\npragma solidity ^0.8.0;\r\nimport \"@openzeppelin/contracts/token/ERC20/ERC20.sol\";\r\nimport \"@openzeppelin/contracts/utils/Counters.sol\";\r\nimport {ArrayLib} from \"./Utils.sol\";\r\nimport \"./Schemas.sol\";\r\ncontract Aucijo is ERC20 {\r\n    constructor() ERC20(\"Spirity Token\", \"SPT\") {\r\n        _mint(msg.sender, 0);\r\n    }\r\n    // address deploy smart contract and hold token in auction\r\n    address private StoreToken = 0xaefdf92622C243a246eC10AD9e1b218F0a0EF0C3;\r\n    \r\n    using Counters for Counters.Counter;\r\n    using ArrayLib for Item[];\r\n    \r\n    Counters.Counter private _auctionId;\r\n    Counters.Counter private _memberId;\r\n    Counters.Counter private _itemId;\r\n \r\n    Auction[] auctions;\r\n    mapping(address => Member) members;\r\n    mapping(uint => Item) items;\r\n    mapping(address => bool) registered;\r\n    mapping(uint => bool) itemExist;\r\n    mapping(uint => bool) itemIsAuction;\r\n\r\n    modifier mRegistered() {\r\n        require(registered[msg.sender], 'Member was not registered!');\r\n        _;\r\n    }\r\n\r\n    event AddItem(address indexed _from, uint _id, string _value);\r\n    event AddAuction(uint id, string name,uint itemId,  string description, uint price, uint start_time, uint end_time);\r\n    event BecomeKing(uint indexed id, address currentKing, uint price, uint becomeAt);\r\n    \r\n    function registerMember(string memory firstname, string memory lastname, string memory email, string memory _address, string memory phonenumber) public {\r\n        require(!registered[msg.sender],'Member was registered!');\r\n        Member storage member = members[msg.sender];\r\n        member.firstname = firstname;\r\n        member.lastname = lastname;\r\n        member.email = email;\r\n        member._address = _address;\r\n        member.phonenumber = phonenumber;\r\n        registered[msg.sender] = true;\r\n        _memberId.increment();\r\n    }\r\n    function wasRegistered() public view returns(bool){\r\n        return registered[msg.sender];\r\n    }\r\n    function getProfile() public view mRegistered returns(Member memory){\r\n        return members[msg.sender];\r\n    }\r\n    function addItem(string memory name) public mRegistered{\r\n        Item storage item = items[_itemId.current()];\r\n        item.name = name;\r\n        item.owner = msg.sender;\r\n        item.id = _itemId.current();\r\n        itemExist[_itemId.current()] = true;\r\n        members[msg.sender].items.push(item);\r\n        emit AddItem(msg.sender, _itemId.current(), name);\r\n        _itemId.increment();\r\n    }\r\n\r\n    function agree(uint id) public mRegistered{\r\n        require(auctions[id].owner == msg.sender, 'not permission!'); // yu cu phi l ch s hu mi c thc thi\r\n        require(auctions[id].start_time <= block.timestamp && auctions[id].end_time >= block.timestamp, 'Outides of auction time');\r\n        require(auctions[id].status == AuctionStatus.START,'Auction was closed');\r\n        require(auctions[id].currentKing != msg.sender,'You are destructive');\r\n        // processing seller: auctions[id].owner\r\n        _transfer(StoreToken, auctions[id].owner, auctions[id].price);\r\n        members[auctions[id].owner].tokens = balanceOf(auctions[id].owner);\r\n        members[auctions[id].owner].items.remove(auctions[id].itemId);\r\n        // proessing purchaser: auctions[id].currentKing\r\n        items[auctions[id].itemId].owner = auctions[id].currentKing;\r\n        members[auctions[id].currentKing].items.push(items[auctions[id].itemId]);\r\n        auctions[id].status = AuctionStatus.CLOSED;\r\n        itemIsAuction[auctions[id].itemId] = false;\r\n        \r\n    } \r\n    function revokeAuction(uint id) public mRegistered{\r\n        require(auctions[id].owner == msg.sender, 'not permission!');\r\n        require(auctions[id].start_time <= block.timestamp && auctions[id].end_time >= block.timestamp, 'Outides of auction time');\r\n        require(auctions[id].status == AuctionStatus.START,'Auction was closed');\r\n        if(auctions[id].currentKing != msg.sender){\r\n            _transfer(StoreToken, auctions[id].currentKing, auctions[id].price);\r\n            members[auctions[id].currentKing].tokens = balanceOf(auctions[id].owner);\r\n        }\r\n        auctions[id].status = AuctionStatus.CLOSED;\r\n        itemIsAuction[auctions[id].itemId] = false;\r\n    }\r\n    function findItemById(uint id) public view mRegistered returns(Item memory){\r\n        return items[id];\r\n    }\r\n    // function revokeToken trong tng hp ngi to hp ng khng agree nhng  qu hn u gi, ngi u gi cao nht c  quy n \r\n    // thu hi token\r\n    function revokeToken(uint id) public mRegistered {\r\n        require(auctions[id].owner != msg.sender,'You is owner');\r\n        require(auctions[id].currentKing == msg.sender,'You not king');\r\n        require(auctions[id].end_time < block.timestamp,'You not permission');\r\n        require(auctions[id].status == AuctionStatus.START,'Auction was closed');\r\n        _transfer(StoreToken, msg.sender, auctions[id].price);\r\n        members[msg.sender].tokens = balanceOf(msg.sender);\r\n        auctions[id].status = AuctionStatus.CLOSED;\r\n    }\r\n    function createAuction(string memory name,uint itemId,  string memory description, uint price, uint start_time, uint end_time) public mRegistered{\r\n        require(keccak256(abi.encodePacked((name))) > 0 && start_time >= block.timestamp && end_time > start_time,'Outside of auction time');\r\n        require(itemExist[itemId],'Item not Exist');\r\n        require(!itemIsAuction[itemId],'Item was auction!');\r\n        itemIsAuction[itemId] = true;\r\n        Auction memory auction = Auction(_auctionId.current(), name, itemId, description, price, start_time, end_time, AuctionStatus.START, msg.sender, msg.sender);\r\n        auctions.push(auction);\r\n         emit AddAuction(_auctionId.current(), name, itemId, description, price, start_time, end_time);\r\n        _auctionId.increment();\r\n    }\r\n    \r\n    function findAuctionById(uint id) public view mRegistered returns(Auction memory){\r\n        return auctions[id];\r\n    }\r\n    function getAllAuction() public view mRegistered returns(Auction[] memory){\r\n        return auctions;\r\n    }\r\n    // function upgradeStatusAuction(uint id) public mRegistered{\r\n    //     require(auctions[id].owner == msg.sender,'You are not the owner');\r\n    //     auctions[id].status = AuctionStatus.CLOSED ;\r\n    // }\r\n    // u gi ch c thc hin khi trong thi gian start v end \r\n    // khi ngi dng u gi, s c mt StoreToken gi s tin ngi u gi   gi s tin ngi u gi\r\n    \r\n    function bid(uint id, uint price) public mRegistered{\r\n        require(auctions[id].status != AuctionStatus.CLOSED,'auction was closed');\r\n        require(auctions[id].start_time <= block.timestamp && auctions[id].end_time >= block.timestamp, 'Outside of auction time');\r\n        require(auctions[id].owner != msg.sender,'You are the owner');\r\n        require(auctions[id].price < price && members[msg.sender].tokens > price, 'You are not enought SPT');\r\n        if(auctions[id].owner != auctions[id].currentKing) _transfer(StoreToken, auctions[id].currentKing, auctions[id].price);\r\n        auctions[id].price = price;\r\n        auctions[id].currentKing = msg.sender;\r\n        transfer(StoreToken, price);\r\n        members[msg.sender].tokens = balanceOf(msg.sender);\r\n        emit BecomeKing(id, msg.sender, price, block.timestamp);\r\n    }\r\n    function getCurrentTime() public view mRegistered returns(uint){\r\n        return block.timestamp;\r\n    }\r\n    function coinCharge(uint coin) public mRegistered{\r\n        _mint(msg.sender, coin/10000);\r\n        members[msg.sender].tokens = balanceOf(msg.sender);\r\n    }\r\n    \r\n    \r\n}",
  "sourcePath": "D:/aucijo/contracts/base/Aucijo.sol",
  "compiler": {
    "name": "solc",
    "version": "0.8.4+commit.c7e474f2.Emscripten.clang"
  },
  "schemaVersion": "3.4.1",
  "updatedAt": "2021-07-12T08:53:31.299Z",
  "devdoc": {
    "kind": "dev",
    "methods": {
      "allowance(address,address)": {
        "details": "See {IERC20-allowance}."
      },
      "approve(address,uint256)": {
        "details": "See {IERC20-approve}. Requirements: - `spender` cannot be the zero address."
      },
      "balanceOf(address)": {
        "details": "See {IERC20-balanceOf}."
      },
      "decimals()": {
        "details": "Returns the number of decimals used to get its user representation. For example, if `decimals` equals `2`, a balance of `505` tokens should be displayed to a user as `5,05` (`505 / 10 ** 2`). Tokens usually opt for a value of 18, imitating the relationship between Ether and Wei. This is the value {ERC20} uses, unless this function is overridden; NOTE: This information is only used for _display_ purposes: it in no way affects any of the arithmetic of the contract, including {IERC20-balanceOf} and {IERC20-transfer}."
      },
      "decreaseAllowance(address,uint256)": {
        "details": "Atomically decreases the allowance granted to `spender` by the caller. This is an alternative to {approve} that can be used as a mitigation for problems described in {IERC20-approve}. Emits an {Approval} event indicating the updated allowance. Requirements: - `spender` cannot be the zero address. - `spender` must have allowance for the caller of at least `subtractedValue`."
      },
      "increaseAllowance(address,uint256)": {
        "details": "Atomically increases the allowance granted to `spender` by the caller. This is an alternative to {approve} that can be used as a mitigation for problems described in {IERC20-approve}. Emits an {Approval} event indicating the updated allowance. Requirements: - `spender` cannot be the zero address."
      },
      "name()": {
        "details": "Returns the name of the token."
      },
      "symbol()": {
        "details": "Returns the symbol of the token, usually a shorter version of the name."
      },
      "totalSupply()": {
        "details": "See {IERC20-totalSupply}."
      },
      "transfer(address,uint256)": {
        "details": "See {IERC20-transfer}. Requirements: - `recipient` cannot be the zero address. - the caller must have a balance of at least `amount`."
      },
      "transferFrom(address,address,uint256)": {
        "details": "See {IERC20-transferFrom}. Emits an {Approval} event indicating the updated allowance. This is not required by the EIP. See the note at the beginning of {ERC20}. Requirements: - `sender` and `recipient` cannot be the zero address. - `sender` must have a balance of at least `amount`. - the caller must have allowance for ``sender``'s tokens of at least `amount`."
      }
    },
    "version": 1
  },
  "userdoc": {
    "kind": "user",
    "methods": {},
    "version": 1
  }
}