{
  "contractName": "Aucijo",
  "abi": [
    {
      "inputs": [],
      "stateMutability": "nonpayable",
      "type": "constructor"
    },
    {
      "anonymous": false,
      "inputs": [
        {
          "indexed": false,
          "internalType": "uint256",
          "name": "id",
          "type": "uint256"
        },
        {
          "indexed": false,
          "internalType": "string",
          "name": "name",
          "type": "string"
        },
        {
          "indexed": false,
          "internalType": "uint256",
          "name": "itemId",
          "type": "uint256"
        },
        {
          "indexed": false,
          "internalType": "string",
          "name": "description",
          "type": "string"
        },
        {
          "indexed": false,
          "internalType": "uint256",
          "name": "price",
          "type": "uint256"
        },
        {
          "indexed": false,
          "internalType": "uint256",
          "name": "start_time",
          "type": "uint256"
        },
        {
          "indexed": false,
          "internalType": "uint256",
          "name": "end_time",
          "type": "uint256"
        }
      ],
      "name": "AddAuction",
      "type": "event"
    },
    {
      "anonymous": false,
      "inputs": [
        {
          "indexed": true,
          "internalType": "address",
          "name": "_from",
          "type": "address"
        },
        {
          "indexed": false,
          "internalType": "uint256",
          "name": "_id",
          "type": "uint256"
        },
        {
          "indexed": false,
          "internalType": "string",
          "name": "_value",
          "type": "string"
        }
      ],
      "name": "AddItem",
      "type": "event"
    },
    {
      "anonymous": false,
      "inputs": [
        {
          "indexed": true,
          "internalType": "address",
          "name": "owner",
          "type": "address"
        },
        {
          "indexed": true,
          "internalType": "address",
          "name": "spender",
          "type": "address"
        },
        {
          "indexed": false,
          "internalType": "uint256",
          "name": "value",
          "type": "uint256"
        }
      ],
      "name": "Approval",
      "type": "event"
    },
    {
      "anonymous": false,
      "inputs": [
        {
          "indexed": true,
          "internalType": "uint256",
          "name": "id",
          "type": "uint256"
        },
        {
          "indexed": false,
          "internalType": "address",
          "name": "currentKing",
          "type": "address"
        },
        {
          "indexed": false,
          "internalType": "uint256",
          "name": "becomeAt",
          "type": "uint256"
        }
      ],
      "name": "BecomeKing",
      "type": "event"
    },
    {
      "anonymous": false,
      "inputs": [
        {
          "indexed": true,
          "internalType": "address",
          "name": "from",
          "type": "address"
        },
        {
          "indexed": true,
          "internalType": "address",
          "name": "to",
          "type": "address"
        },
        {
          "indexed": false,
          "internalType": "uint256",
          "name": "value",
          "type": "uint256"
        }
      ],
      "name": "Transfer",
      "type": "event"
    },
    {
      "inputs": [
        {
          "internalType": "address",
          "name": "owner",
          "type": "address"
        },
        {
          "internalType": "address",
          "name": "spender",
          "type": "address"
        }
      ],
      "name": "allowance",
      "outputs": [
        {
          "internalType": "uint256",
          "name": "",
          "type": "uint256"
        }
      ],
      "stateMutability": "view",
      "type": "function",
      "constant": true
    },
    {
      "inputs": [
        {
          "internalType": "address",
          "name": "spender",
          "type": "address"
        },
        {
          "internalType": "uint256",
          "name": "amount",
          "type": "uint256"
        }
      ],
      "name": "approve",
      "outputs": [
        {
          "internalType": "bool",
          "name": "",
          "type": "bool"
        }
      ],
      "stateMutability": "nonpayable",
      "type": "function"
    },
    {
      "inputs": [
        {
          "internalType": "address",
          "name": "account",
          "type": "address"
        }
      ],
      "name": "balanceOf",
      "outputs": [
        {
          "internalType": "uint256",
          "name": "",
          "type": "uint256"
        }
      ],
      "stateMutability": "view",
      "type": "function",
      "constant": true
    },
    {
      "inputs": [],
      "name": "decimals",
      "outputs": [
        {
          "internalType": "uint8",
          "name": "",
          "type": "uint8"
        }
      ],
      "stateMutability": "view",
      "type": "function",
      "constant": true
    },
    {
      "inputs": [
        {
          "internalType": "address",
          "name": "spender",
          "type": "address"
        },
        {
          "internalType": "uint256",
          "name": "subtractedValue",
          "type": "uint256"
        }
      ],
      "name": "decreaseAllowance",
      "outputs": [
        {
          "internalType": "bool",
          "name": "",
          "type": "bool"
        }
      ],
      "stateMutability": "nonpayable",
      "type": "function"
    },
    {
      "inputs": [
        {
          "internalType": "address",
          "name": "spender",
          "type": "address"
        },
        {
          "internalType": "uint256",
          "name": "addedValue",
          "type": "uint256"
        }
      ],
      "name": "increaseAllowance",
      "outputs": [
        {
          "internalType": "bool",
          "name": "",
          "type": "bool"
        }
      ],
      "stateMutability": "nonpayable",
      "type": "function"
    },
    {
      "inputs": [],
      "name": "name",
      "outputs": [
        {
          "internalType": "string",
          "name": "",
          "type": "string"
        }
      ],
      "stateMutability": "view",
      "type": "function",
      "constant": true
    },
    {
      "inputs": [],
      "name": "symbol",
      "outputs": [
        {
          "internalType": "string",
          "name": "",
          "type": "string"
        }
      ],
      "stateMutability": "view",
      "type": "function",
      "constant": true
    },
    {
      "inputs": [],
      "name": "totalSupply",
      "outputs": [
        {
          "internalType": "uint256",
          "name": "",
          "type": "uint256"
        }
      ],
      "stateMutability": "view",
      "type": "function",
      "constant": true
    },
    {
      "inputs": [
        {
          "internalType": "address",
          "name": "recipient",
          "type": "address"
        },
        {
          "internalType": "uint256",
          "name": "amount",
          "type": "uint256"
        }
      ],
      "name": "transfer",
      "outputs": [
        {
          "internalType": "bool",
          "name": "",
          "type": "bool"
        }
      ],
      "stateMutability": "nonpayable",
      "type": "function"
    },
    {
      "inputs": [
        {
          "internalType": "address",
          "name": "sender",
          "type": "address"
        },
        {
          "internalType": "address",
          "name": "recipient",
          "type": "address"
        },
        {
          "internalType": "uint256",
          "name": "amount",
          "type": "uint256"
        }
      ],
      "name": "transferFrom",
      "outputs": [
        {
          "internalType": "bool",
          "name": "",
          "type": "bool"
        }
      ],
      "stateMutability": "nonpayable",
      "type": "function"
    },
    {
      "inputs": [
        {
          "internalType": "string",
          "name": "firstname",
          "type": "string"
        },
        {
          "internalType": "string",
          "name": "lastname",
          "type": "string"
        },
        {
          "internalType": "string",
          "name": "email",
          "type": "string"
        },
        {
          "internalType": "string",
          "name": "_address",
          "type": "string"
        },
        {
          "internalType": "string",
          "name": "phonenumber",
          "type": "string"
        }
      ],
      "name": "registerMember",
      "outputs": [],
      "stateMutability": "nonpayable",
      "type": "function"
    },
    {
      "inputs": [],
      "name": "wasRegistered",
      "outputs": [
        {
          "internalType": "bool",
          "name": "",
          "type": "bool"
        }
      ],
      "stateMutability": "view",
      "type": "function",
      "constant": true
    },
    {
      "inputs": [],
      "name": "getProfile",
      "outputs": [
        {
          "components": [
            {
              "internalType": "uint256",
              "name": "id",
              "type": "uint256"
            },
            {
              "internalType": "uint256",
              "name": "tokens",
              "type": "uint256"
            },
            {
              "internalType": "string",
              "name": "firstname",
              "type": "string"
            },
            {
              "internalType": "string",
              "name": "lastname",
              "type": "string"
            },
            {
              "internalType": "string",
              "name": "email",
              "type": "string"
            },
            {
              "internalType": "string",
              "name": "phonenumber",
              "type": "string"
            },
            {
              "internalType": "string",
              "name": "_address",
              "type": "string"
            },
            {
              "components": [
                {
                  "internalType": "uint256",
                  "name": "id",
                  "type": "uint256"
                },
                {
                  "internalType": "string",
                  "name": "name",
                  "type": "string"
                },
                {
                  "internalType": "address",
                  "name": "owner",
                  "type": "address"
                }
              ],
              "internalType": "struct Item[]",
              "name": "items",
              "type": "tuple[]"
            }
          ],
          "internalType": "struct Member",
          "name": "",
          "type": "tuple"
        }
      ],
      "stateMutability": "view",
      "type": "function",
      "constant": true
    },
    {
      "inputs": [
        {
          "internalType": "string",
          "name": "name",
          "type": "string"
        }
      ],
      "name": "addItem",
      "outputs": [],
      "stateMutability": "nonpayable",
      "type": "function"
    },
    {
      "inputs": [
        {
          "internalType": "uint256",
          "name": "id",
          "type": "uint256"
        }
      ],
      "name": "agree",
      "outputs": [],
      "stateMutability": "nonpayable",
      "type": "function"
    },
    {
      "inputs": [
        {
          "internalType": "uint256",
          "name": "id",
          "type": "uint256"
        }
      ],
      "name": "findItemById",
      "outputs": [
        {
          "components": [
            {
              "internalType": "uint256",
              "name": "id",
              "type": "uint256"
            },
            {
              "internalType": "string",
              "name": "name",
              "type": "string"
            },
            {
              "internalType": "address",
              "name": "owner",
              "type": "address"
            }
          ],
          "internalType": "struct Item",
          "name": "",
          "type": "tuple"
        }
      ],
      "stateMutability": "view",
      "type": "function",
      "constant": true
    },
    {
      "inputs": [
        {
          "internalType": "uint256",
          "name": "id",
          "type": "uint256"
        }
      ],
      "name": "revokeToken",
      "outputs": [],
      "stateMutability": "nonpayable",
      "type": "function"
    },
    {
      "inputs": [
        {
          "internalType": "string",
          "name": "name",
          "type": "string"
        },
        {
          "internalType": "uint256",
          "name": "itemId",
          "type": "uint256"
        },
        {
          "internalType": "string",
          "name": "description",
          "type": "string"
        },
        {
          "internalType": "uint256",
          "name": "price",
          "type": "uint256"
        },
        {
          "internalType": "uint256",
          "name": "start_time",
          "type": "uint256"
        },
        {
          "internalType": "uint256",
          "name": "end_time",
          "type": "uint256"
        }
      ],
      "name": "createAuction",
      "outputs": [],
      "stateMutability": "nonpayable",
      "type": "function"
    },
    {
      "inputs": [
        {
          "internalType": "uint256",
          "name": "id",
          "type": "uint256"
        }
      ],
      "name": "findAuctionById",
      "outputs": [
        {
          "components": [
            {
              "internalType": "uint256",
              "name": "id",
              "type": "uint256"
            },
            {
              "internalType": "string",
              "name": "name",
              "type": "string"
            },
            {
              "internalType": "uint256",
              "name": "itemId",
              "type": "uint256"
            },
            {
              "internalType": "string",
              "name": "description",
              "type": "string"
            },
            {
              "internalType": "uint256",
              "name": "price",
              "type": "uint256"
            },
            {
              "internalType": "uint256",
              "name": "start_time",
              "type": "uint256"
            },
            {
              "internalType": "uint256",
              "name": "end_time",
              "type": "uint256"
            },
            {
              "internalType": "enum AuctionStatus",
              "name": "status",
              "type": "uint8"
            },
            {
              "internalType": "address",
              "name": "owner",
              "type": "address"
            },
            {
              "internalType": "address",
              "name": "currentKing",
              "type": "address"
            }
          ],
          "internalType": "struct Auction",
          "name": "",
          "type": "tuple"
        }
      ],
      "stateMutability": "view",
      "type": "function",
      "constant": true
    },
    {
      "inputs": [],
      "name": "getAllAuction",
      "outputs": [
        {
          "components": [
            {
              "internalType": "uint256",
              "name": "id",
              "type": "uint256"
            },
            {
              "internalType": "string",
              "name": "name",
              "type": "string"
            },
            {
              "internalType": "uint256",
              "name": "itemId",
              "type": "uint256"
            },
            {
              "internalType": "string",
              "name": "description",
              "type": "string"
            },
            {
              "internalType": "uint256",
              "name": "price",
              "type": "uint256"
            },
            {
              "internalType": "uint256",
              "name": "start_time",
              "type": "uint256"
            },
            {
              "internalType": "uint256",
              "name": "end_time",
              "type": "uint256"
            },
            {
              "internalType": "enum AuctionStatus",
              "name": "status",
              "type": "uint8"
            },
            {
              "internalType": "address",
              "name": "owner",
              "type": "address"
            },
            {
              "internalType": "address",
              "name": "currentKing",
              "type": "address"
            }
          ],
          "internalType": "struct Auction[]",
          "name": "",
          "type": "tuple[]"
        }
      ],
      "stateMutability": "view",
      "type": "function",
      "constant": true
    },
    {
      "inputs": [
        {
          "internalType": "uint256",
          "name": "id",
          "type": "uint256"
        },
        {
          "internalType": "uint256",
          "name": "price",
          "type": "uint256"
        }
      ],
      "name": "bid",
      "outputs": [],
      "stateMutability": "nonpayable",
      "type": "function"
    },
    {
      "inputs": [],
      "name": "getCurrentTime",
      "outputs": [
        {
          "internalType": "uint256",
          "name": "",
          "type": "uint256"
        }
      ],
      "stateMutability": "view",
      "type": "function",
      "constant": true
    },
    {
      "inputs": [
        {
          "internalType": "uint256",
          "name": "coin",
          "type": "uint256"
        }
      ],
      "name": "coinCharge",
      "outputs": [],
      "stateMutability": "nonpayable",
      "type": "function"
    }
  ],
  "bytecode": "0x608060405273aefdf92622c243a246ec10ad9e1b218f0a0ef0c3600560006101000a81548173ffffffffffffffffffffffffffffffffffffffff021916908373ffffffffffffffffffffffffffffffffffffffff1602179055503480156200006657600080fd5b506040518060400160405280600d81526020017f5370697269747920546f6b656e000000000000000000000000000000000000008152506040518060400160405280600381526020017f53505400000000000000000000000000000000000000000000000000000000008152508160039080519060200190620000eb929190620002a3565b50806004908051906020019062000104929190620002a3565b5050506200011a3360006200012060201b60201c565b620004ff565b600073ffffffffffffffffffffffffffffffffffffffff168273ffffffffffffffffffffffffffffffffffffffff16141562000193576040517f08c379a00000000000000000000000000000000000000000000000000000000081526004016200018a906200038b565b60405180910390fd5b620001a7600083836200029960201b60201c565b8060026000828254620001bb9190620003db565b92505081905550806000808473ffffffffffffffffffffffffffffffffffffffff1673ffffffffffffffffffffffffffffffffffffffff1681526020019081526020016000206000828254620002129190620003db565b925050819055508173ffffffffffffffffffffffffffffffffffffffff16600073ffffffffffffffffffffffffffffffffffffffff167fddf252ad1be2c89b69c2b068fc378daa952ba7f163c4a11628f55a4df523b3ef83604051620002799190620003ad565b60405180910390a362000295600083836200029e60201b60201c565b5050565b505050565b505050565b828054620002b19062000442565b90600052602060002090601f016020900481019282620002d5576000855562000321565b82601f10620002f057805160ff191683800117855562000321565b8280016001018555821562000321579182015b828111156200032057825182559160200191906001019062000303565b5b50905062000330919062000334565b5090565b5b808211156200034f57600081600090555060010162000335565b5090565b600062000362601f83620003ca565b91506200036f82620004d6565b602082019050919050565b620003858162000438565b82525050565b60006020820190508181036000830152620003a68162000353565b9050919050565b6000602082019050620003c460008301846200037a565b92915050565b600082825260208201905092915050565b6000620003e88262000438565b9150620003f58362000438565b9250827fffffffffffffffffffffffffffffffffffffffffffffffffffffffffffffffff038211156200042d576200042c62000478565b5b828201905092915050565b6000819050919050565b600060028204905060018216806200045b57607f821691505b60208210811415620004725762000471620004a7565b5b50919050565b7f4e487b7100000000000000000000000000000000000000000000000000000000600052601160045260246000fd5b7f4e487b7100000000000000000000000000000000000000000000000000000000600052602260045260246000fd5b7f45524332303a206d696e7420746f20746865207a65726f206164647265737300600082015250565b615f16806200050f6000396000f3fe608060405234801561001057600080fd5b50600436106101585760003560e01c8063701d4a67116100c3578063a457c2d71161007c578063a457c2d7146103db578063a9059cbb1461040b578063d6afc9b11461043b578063dd62ed3e14610459578063e02c387614610489578063f606841e146104a557610158565b8063701d4a671461030757806370a08231146103235780637dc9e79b14610353578063891863ce1461036f5780638bb1dd801461039f57806395d89b41146103bd57610158565b806327e9f2941161011557806327e9f2941461023357806329cb924d1461024f578063313ce5671461026d578063395093511461028b57806357c03de0146102bb578063598647f8146102eb57610158565b806306fdde031461015d578063095ea7b31461017b57806309e8223a146101ab57806316056daa146101c757806318160ddd146101e557806323b872dd14610203575b600080fd5b6101656104c1565b60405161017291906151c4565b60405180910390f35b61019560048036038101906101909190614668565b610553565b6040516101a291906151a9565b60405180910390f35b6101c560048036038101906101c091906147d4565b610571565b005b6101cf610a03565b6040516101dc9190615187565b60405180910390f35b6101ed610d78565b6040516101fa919061550c565b60405180910390f35b61021d60048036038101906102189190614619565b610d82565b60405161022a91906151a9565b60405180910390f35b61024d600480360381019061024891906146a4565b610e7a565b005b61025761112f565b604051610264919061550c565b60405180910390f35b6102756111c3565b60405161028291906155d4565b60405180910390f35b6102a560048036038101906102a09190614668565b6111cc565b6040516102b291906151a9565b60405180910390f35b6102d560048036038101906102d0919061488d565b611278565b6040516102e291906154c8565b60405180910390f35b610305600480360381019061030091906148b6565b611423565b005b610321600480360381019061031c91906146e5565b611bd4565b005b61033d600480360381019061033891906145b4565b611d8b565b60405161034a919061550c565b60405180910390f35b61036d6004803603810190610368919061488d565b611dd3565b005b6103896004803603810190610384919061488d565b612203565b60405161039691906154a6565b60405180910390f35b6103a761257b565b6040516103b491906151a9565b60405180910390f35b6103c56125cf565b6040516103d291906151c4565b60405180910390f35b6103f560048036038101906103f09190614668565b612661565b60405161040291906151a9565b60405180910390f35b61042560048036038101906104209190614668565b61274c565b60405161043291906151a9565b60405180910390f35b61044361276a565b60405161045091906154ea565b60405180910390f35b610473600480360381019061046e91906145dd565b612c8d565b604051610480919061550c565b60405180910390f35b6104a3600480360381019061049e919061488d565b612d14565b005b6104bf60048036038101906104ba919061488d565b612e09565b005b6060600380546104d090615866565b80601f01602080910402602001604051908101604052809291908181526020018280546104fc90615866565b80156105495780601f1061051e57610100808354040283529160200191610549565b820191906000526020600020905b81548152906001019060200180831161052c57829003601f168201915b5050505050905090565b600061056761056061374b565b8484613753565b6001905092915050565b600c60003373ffffffffffffffffffffffffffffffffffffffff1673ffffffffffffffffffffffffffffffffffffffff16815260200190815260200160002060009054906101000a900460ff166105fd576040517f08c379a00000000000000000000000000000000000000000000000000000000081526004016105f490615446565b60405180910390fd5b6000801b866040516020016106129190615147565b604051602081830303815290604052805190602001201180156106355750428210155b801561064057508181115b61067f576040517f08c379a0000000000000000000000000000000000000000000000000000000008152600401610676906151e6565b60405180910390fd5b600d600086815260200190815260200160002060009054906101000a900460ff166106df576040517f08c379a00000000000000000000000000000000000000000000000000000000081526004016106d690615326565b60405180910390fd5b600e600086815260200190815260200160002060009054906101000a900460ff1615610740576040517f08c379a000000000000000000000000000000000000000000000000000000000815260040161073790615346565b60405180910390fd5b6001600e600087815260200190815260200160002060006101000a81548160ff0219169083151502179055506000604051806101400160405280610784600661391e565b8152602001888152602001878152602001868152602001858152602001848152602001838152602001600160028111156107e7577f4e487b7100000000000000000000000000000000000000000000000000000000600052602160045260246000fd5b81526020013373ffffffffffffffffffffffffffffffffffffffff1681526020013373ffffffffffffffffffffffffffffffffffffffff168152509050600981908060018154018082558091505060019003906000526020600020906009020160009091909190915060008201518160000155602082015181600101908051906020019061087692919061427f565b5060408201518160020155606082015181600301908051906020019061089d92919061427f565b506080820151816004015560a0820151816005015560c0820151816006015560e08201518160070160006101000a81548160ff0219169083600281111561090d577f4e487b7100000000000000000000000000000000000000000000000000000000600052602160045260246000fd5b02179055506101008201518160070160016101000a81548173ffffffffffffffffffffffffffffffffffffffff021916908373ffffffffffffffffffffffffffffffffffffffff1602179055506101208201518160080160006101000a81548173ffffffffffffffffffffffffffffffffffffffff021916908373ffffffffffffffffffffffffffffffffffffffff16021790555050507fb94e5c49f48c6fb667365a6e5fc1a77cd310568dde5e3413747e9c2104f6a78d6109cf600661391e565b8888888888886040516109e89796959493929190615557565b60405180910390a16109fa600661392c565b50505050505050565b6060600c60003373ffffffffffffffffffffffffffffffffffffffff1673ffffffffffffffffffffffffffffffffffffffff16815260200190815260200160002060009054906101000a900460ff16610a91576040517f08c379a0000000000000000000000000000000000000000000000000000000008152600401610a8890615446565b60405180910390fd5b6009805480602002602001604051908101604052809291908181526020016000905b82821015610d6f57838290600052602060002090600902016040518061014001604052908160008201548152602001600182018054610af190615866565b80601f0160208091040260200160405190810160405280929190818152602001828054610b1d90615866565b8015610b6a5780601f10610b3f57610100808354040283529160200191610b6a565b820191906000526020600020905b815481529060010190602001808311610b4d57829003601f168201915b5050505050815260200160028201548152602001600382018054610b8d90615866565b80601f0160208091040260200160405190810160405280929190818152602001828054610bb990615866565b8015610c065780601f10610bdb57610100808354040283529160200191610c06565b820191906000526020600020905b815481529060010190602001808311610be957829003601f168201915b505050505081526020016004820154815260200160058201548152602001600682015481526020016007820160009054906101000a900460ff166002811115610c78577f4e487b7100000000000000000000000000000000000000000000000000000000600052602160045260246000fd5b6002811115610cb0577f4e487b7100000000000000000000000000000000000000000000000000000000600052602160045260246000fd5b81526020016007820160019054906101000a900473ffffffffffffffffffffffffffffffffffffffff1673ffffffffffffffffffffffffffffffffffffffff1673ffffffffffffffffffffffffffffffffffffffff1681526020016008820160009054906101000a900473ffffffffffffffffffffffffffffffffffffffff1673ffffffffffffffffffffffffffffffffffffffff1673ffffffffffffffffffffffffffffffffffffffff168152505081526020019060010190610ab3565b50505050905090565b6000600254905090565b6000610d8f848484613942565b6000600160008673ffffffffffffffffffffffffffffffffffffffff1673ffffffffffffffffffffffffffffffffffffffff1681526020019081526020016000206000610dda61374b565b73ffffffffffffffffffffffffffffffffffffffff1673ffffffffffffffffffffffffffffffffffffffff16815260200190815260200160002054905082811015610e5a576040517f08c379a0000000000000000000000000000000000000000000000000000000008152600401610e51906153a6565b60405180910390fd5b610e6e85610e6661374b565b858403613753565b60019150509392505050565b600c60003373ffffffffffffffffffffffffffffffffffffffff1673ffffffffffffffffffffffffffffffffffffffff16815260200190815260200160002060009054906101000a900460ff16610f06576040517f08c379a0000000000000000000000000000000000000000000000000000000008152600401610efd90615446565b60405180910390fd5b6000600b6000610f16600861391e565b8152602001908152602001600020905081816001019080519060200190610f3e92919061427f565b50338160020160006101000a81548173ffffffffffffffffffffffffffffffffffffffff021916908373ffffffffffffffffffffffffffffffffffffffff160217905550610f8c600861391e565b81600001819055506001600d6000610fa4600861391e565b815260200190815260200160002060006101000a81548160ff021916908315150217905550600a60003373ffffffffffffffffffffffffffffffffffffffff1673ffffffffffffffffffffffffffffffffffffffff16815260200190815260200160002060070181908060018154018082558091505060019003906000526020600020906003020160009091909190915060008201548160000155600182018160010190805461105390615866565b61105e929190614305565b506002820160009054906101000a900473ffffffffffffffffffffffffffffffffffffffff168160020160006101000a81548173ffffffffffffffffffffffffffffffffffffffff021916908373ffffffffffffffffffffffffffffffffffffffff16021790555050503373ffffffffffffffffffffffffffffffffffffffff167fc13dfb7e65ffaf5db347a448814a2b0c1f17a29c8b5a05ed1d872751672e908361110a600861391e565b84604051611119929190615527565b60405180910390a261112b600861392c565b5050565b6000600c60003373ffffffffffffffffffffffffffffffffffffffff1673ffffffffffffffffffffffffffffffffffffffff16815260200190815260200160002060009054906101000a900460ff166111bd576040517f08c379a00000000000000000000000000000000000000000000000000000000081526004016111b490615446565b60405180910390fd5b42905090565b60006012905090565b600061126e6111d961374b565b8484600160006111e761374b565b73ffffffffffffffffffffffffffffffffffffffff1673ffffffffffffffffffffffffffffffffffffffff16815260200190815260200160002060008873ffffffffffffffffffffffffffffffffffffffff1673ffffffffffffffffffffffffffffffffffffffff1681526020019081526020016000205461126991906156ef565b613753565b6001905092915050565b611280614392565b600c60003373ffffffffffffffffffffffffffffffffffffffff1673ffffffffffffffffffffffffffffffffffffffff16815260200190815260200160002060009054906101000a900460ff1661130c576040517f08c379a000000000000000000000000000000000000000000000000000000000815260040161130390615446565b60405180910390fd5b600b60008381526020019081526020016000206040518060600160405290816000820154815260200160018201805461134490615866565b80601f016020809104026020016040519081016040528092919081815260200182805461137090615866565b80156113bd5780601f10611392576101008083540402835291602001916113bd565b820191906000526020600020905b8154815290600101906020018083116113a057829003601f168201915b505050505081526020016002820160009054906101000a900473ffffffffffffffffffffffffffffffffffffffff1673ffffffffffffffffffffffffffffffffffffffff1673ffffffffffffffffffffffffffffffffffffffff16815250509050919050565b600c60003373ffffffffffffffffffffffffffffffffffffffff1673ffffffffffffffffffffffffffffffffffffffff16815260200190815260200160002060009054906101000a900460ff166114af576040517f08c379a00000000000000000000000000000000000000000000000000000000081526004016114a690615446565b60405180910390fd5b6002808111156114e8577f4e487b7100000000000000000000000000000000000000000000000000000000600052602160045260246000fd5b60098381548110611522577f4e487b7100000000000000000000000000000000000000000000000000000000600052603260045260246000fd5b906000526020600020906009020160070160009054906101000a900460ff166002811115611579577f4e487b7100000000000000000000000000000000000000000000000000000000600052602160045260246000fd5b14156115ba576040517f08c379a00000000000000000000000000000000000000000000000000000000081526004016115b190615266565b60405180910390fd5b42600983815481106115f5577f4e487b7100000000000000000000000000000000000000000000000000000000600052603260045260246000fd5b906000526020600020906009020160050154111580156116605750426009838154811061164b577f4e487b7100000000000000000000000000000000000000000000000000000000600052603260045260246000fd5b90600052602060002090600902016006015410155b61169f576040517f08c379a0000000000000000000000000000000000000000000000000000000008152600401611696906151e6565b60405180910390fd5b3373ffffffffffffffffffffffffffffffffffffffff16600983815481106116f0577f4e487b7100000000000000000000000000000000000000000000000000000000600052603260045260246000fd5b906000526020600020906009020160070160019054906101000a900473ffffffffffffffffffffffffffffffffffffffff1673ffffffffffffffffffffffffffffffffffffffff161415611779576040517f08c379a000000000000000000000000000000000000000000000000000000000815260040161177090615366565b60405180910390fd5b80600983815481106117b4577f4e487b7100000000000000000000000000000000000000000000000000000000600052603260045260246000fd5b906000526020600020906009020160040154108015611814575080600a60003373ffffffffffffffffffffffffffffffffffffffff1673ffffffffffffffffffffffffffffffffffffffff16815260200190815260200160002060010154115b611853576040517f08c379a000000000000000000000000000000000000000000000000000000000815260040161184a906153e6565b60405180910390fd5b6009828154811061188d577f4e487b7100000000000000000000000000000000000000000000000000000000600052603260045260246000fd5b906000526020600020906009020160080160009054906101000a900473ffffffffffffffffffffffffffffffffffffffff1673ffffffffffffffffffffffffffffffffffffffff166009838154811061190f577f4e487b7100000000000000000000000000000000000000000000000000000000600052603260045260246000fd5b906000526020600020906009020160070160019054906101000a900473ffffffffffffffffffffffffffffffffffffffff1673ffffffffffffffffffffffffffffffffffffffff1614611a4057611a3f600560009054906101000a900473ffffffffffffffffffffffffffffffffffffffff16600984815481106119bc577f4e487b7100000000000000000000000000000000000000000000000000000000600052603260045260246000fd5b906000526020600020906009020160080160009054906101000a900473ffffffffffffffffffffffffffffffffffffffff1660098581548110611a28577f4e487b7100000000000000000000000000000000000000000000000000000000600052603260045260246000fd5b906000526020600020906009020160040154613942565b5b8060098381548110611a7b577f4e487b7100000000000000000000000000000000000000000000000000000000600052603260045260246000fd5b9060005260206000209060090201600401819055503360098381548110611acb577f4e487b7100000000000000000000000000000000000000000000000000000000600052603260045260246000fd5b906000526020600020906009020160080160006101000a81548173ffffffffffffffffffffffffffffffffffffffff021916908373ffffffffffffffffffffffffffffffffffffffff160217905550611b46600560009054906101000a900473ffffffffffffffffffffffffffffffffffffffff168261274c565b50611b5033611d8b565b600a60003373ffffffffffffffffffffffffffffffffffffffff1673ffffffffffffffffffffffffffffffffffffffff16815260200190815260200160002060010181905550817f744bc0b8e1e46010c6412b907bb5790f76b981c485d707ea53ad030f1750c86c3342604051611bc892919061515e565b60405180910390a25050565b600c60003373ffffffffffffffffffffffffffffffffffffffff1673ffffffffffffffffffffffffffffffffffffffff16815260200190815260200160002060009054906101000a900460ff1615611c61576040517f08c379a0000000000000000000000000000000000000000000000000000000008152600401611c5890615386565b60405180910390fd5b6000600a60003373ffffffffffffffffffffffffffffffffffffffff1673ffffffffffffffffffffffffffffffffffffffff168152602001908152602001600020905085816002019080519060200190611cbc92919061427f565b5084816003019080519060200190611cd592919061427f565b5083816004019080519060200190611cee92919061427f565b5082816006019080519060200190611d0792919061427f565b5081816005019080519060200190611d2092919061427f565b506001600c60003373ffffffffffffffffffffffffffffffffffffffff1673ffffffffffffffffffffffffffffffffffffffff16815260200190815260200160002060006101000a81548160ff021916908315150217905550611d83600761392c565b505050505050565b60008060008373ffffffffffffffffffffffffffffffffffffffff1673ffffffffffffffffffffffffffffffffffffffff168152602001908152602001600020549050919050565b600c60003373ffffffffffffffffffffffffffffffffffffffff1673ffffffffffffffffffffffffffffffffffffffff16815260200190815260200160002060009054906101000a900460ff16611e5f576040517f08c379a0000000000000000000000000000000000000000000000000000000008152600401611e5690615446565b60405180910390fd5b3373ffffffffffffffffffffffffffffffffffffffff1660098281548110611eb0577f4e487b7100000000000000000000000000000000000000000000000000000000600052603260045260246000fd5b906000526020600020906009020160070160019054906101000a900473ffffffffffffffffffffffffffffffffffffffff1673ffffffffffffffffffffffffffffffffffffffff161415611f39576040517f08c379a0000000000000000000000000000000000000000000000000000000008152600401611f3090615246565b60405180910390fd5b3373ffffffffffffffffffffffffffffffffffffffff1660098281548110611f8a577f4e487b7100000000000000000000000000000000000000000000000000000000600052603260045260246000fd5b906000526020600020906009020160080160009054906101000a900473ffffffffffffffffffffffffffffffffffffffff1673ffffffffffffffffffffffffffffffffffffffff1614612012576040517f08c379a0000000000000000000000000000000000000000000000000000000008152600401612009906153c6565b60405180910390fd5b426009828154811061204d577f4e487b7100000000000000000000000000000000000000000000000000000000600052603260045260246000fd5b9060005260206000209060090201600601541061209f576040517f08c379a000000000000000000000000000000000000000000000000000000000815260040161209690615286565b60405180910390fd5b612117600560009054906101000a900473ffffffffffffffffffffffffffffffffffffffff163360098481548110612100577f4e487b7100000000000000000000000000000000000000000000000000000000600052603260045260246000fd5b906000526020600020906009020160040154613942565b61212033611d8b565b600a60003373ffffffffffffffffffffffffffffffffffffffff1673ffffffffffffffffffffffffffffffffffffffff168152602001908152602001600020600101819055506002600982815481106121a2577f4e487b7100000000000000000000000000000000000000000000000000000000600052603260045260246000fd5b906000526020600020906009020160070160006101000a81548160ff021916908360028111156121fb577f4e487b7100000000000000000000000000000000000000000000000000000000600052602160045260246000fd5b021790555050565b61220b6143c9565b600c60003373ffffffffffffffffffffffffffffffffffffffff1673ffffffffffffffffffffffffffffffffffffffff16815260200190815260200160002060009054906101000a900460ff16612297576040517f08c379a000000000000000000000000000000000000000000000000000000000815260040161228e90615446565b60405180910390fd5b600982815481106122d1577f4e487b7100000000000000000000000000000000000000000000000000000000600052603260045260246000fd5b9060005260206000209060090201604051806101400160405290816000820154815260200160018201805461230590615866565b80601f016020809104026020016040519081016040528092919081815260200182805461233190615866565b801561237e5780601f106123535761010080835404028352916020019161237e565b820191906000526020600020905b81548152906001019060200180831161236157829003601f168201915b50505050508152602001600282015481526020016003820180546123a190615866565b80601f01602080910402602001604051908101604052809291908181526020018280546123cd90615866565b801561241a5780601f106123ef5761010080835404028352916020019161241a565b820191906000526020600020905b8154815290600101906020018083116123fd57829003601f168201915b505050505081526020016004820154815260200160058201548152602001600682015481526020016007820160009054906101000a900460ff16600281111561248c577f4e487b7100000000000000000000000000000000000000000000000000000000600052602160045260246000fd5b60028111156124c4577f4e487b7100000000000000000000000000000000000000000000000000000000600052602160045260246000fd5b81526020016007820160019054906101000a900473ffffffffffffffffffffffffffffffffffffffff1673ffffffffffffffffffffffffffffffffffffffff1673ffffffffffffffffffffffffffffffffffffffff1681526020016008820160009054906101000a900473ffffffffffffffffffffffffffffffffffffffff1673ffffffffffffffffffffffffffffffffffffffff1673ffffffffffffffffffffffffffffffffffffffff16815250509050919050565b6000600c60003373ffffffffffffffffffffffffffffffffffffffff1673ffffffffffffffffffffffffffffffffffffffff16815260200190815260200160002060009054906101000a900460ff16905090565b6060600480546125de90615866565b80601f016020809104026020016040519081016040528092919081815260200182805461260a90615866565b80156126575780601f1061262c57610100808354040283529160200191612657565b820191906000526020600020905b81548152906001019060200180831161263a57829003601f168201915b5050505050905090565b6000806001600061267061374b565b73ffffffffffffffffffffffffffffffffffffffff1673ffffffffffffffffffffffffffffffffffffffff16815260200190815260200160002060008573ffffffffffffffffffffffffffffffffffffffff1673ffffffffffffffffffffffffffffffffffffffff1681526020019081526020016000205490508281101561272d576040517f08c379a000000000000000000000000000000000000000000000000000000000815260040161272490615466565b60405180910390fd5b61274161273861374b565b85858403613753565b600191505092915050565b600061276061275961374b565b8484613942565b6001905092915050565b612772614480565b600c60003373ffffffffffffffffffffffffffffffffffffffff1673ffffffffffffffffffffffffffffffffffffffff16815260200190815260200160002060009054906101000a900460ff166127fe576040517f08c379a00000000000000000000000000000000000000000000000000000000081526004016127f590615446565b60405180910390fd5b600a60003373ffffffffffffffffffffffffffffffffffffffff1673ffffffffffffffffffffffffffffffffffffffff16815260200190815260200160002060405180610100016040529081600082015481526020016001820154815260200160028201805461286d90615866565b80601f016020809104026020016040519081016040528092919081815260200182805461289990615866565b80156128e65780601f106128bb576101008083540402835291602001916128e6565b820191906000526020600020905b8154815290600101906020018083116128c957829003601f168201915b505050505081526020016003820180546128ff90615866565b80601f016020809104026020016040519081016040528092919081815260200182805461292b90615866565b80156129785780601f1061294d57610100808354040283529160200191612978565b820191906000526020600020905b81548152906001019060200180831161295b57829003601f168201915b5050505050815260200160048201805461299190615866565b80601f01602080910402602001604051908101604052809291908181526020018280546129bd90615866565b8015612a0a5780601f106129df57610100808354040283529160200191612a0a565b820191906000526020600020905b8154815290600101906020018083116129ed57829003601f168201915b50505050508152602001600582018054612a2390615866565b80601f0160208091040260200160405190810160405280929190818152602001828054612a4f90615866565b8015612a9c5780601f10612a7157610100808354040283529160200191612a9c565b820191906000526020600020905b815481529060010190602001808311612a7f57829003601f168201915b50505050508152602001600682018054612ab590615866565b80601f0160208091040260200160405190810160405280929190818152602001828054612ae190615866565b8015612b2e5780601f10612b0357610100808354040283529160200191612b2e565b820191906000526020600020905b815481529060010190602001808311612b1157829003601f168201915b5050505050815260200160078201805480602002602001604051908101604052809291908181526020016000905b82821015612c80578382906000526020600020906003020160405180606001604052908160008201548152602001600182018054612b9990615866565b80601f0160208091040260200160405190810160405280929190818152602001828054612bc590615866565b8015612c125780601f10612be757610100808354040283529160200191612c12565b820191906000526020600020905b815481529060010190602001808311612bf557829003601f168201915b505050505081526020016002820160009054906101000a900473ffffffffffffffffffffffffffffffffffffffff1673ffffffffffffffffffffffffffffffffffffffff1673ffffffffffffffffffffffffffffffffffffffff168152505081526020019060010190612b5c565b5050505081525050905090565b6000600160008473ffffffffffffffffffffffffffffffffffffffff1673ffffffffffffffffffffffffffffffffffffffff16815260200190815260200160002060008373ffffffffffffffffffffffffffffffffffffffff1673ffffffffffffffffffffffffffffffffffffffff16815260200190815260200160002054905092915050565b600c60003373ffffffffffffffffffffffffffffffffffffffff1673ffffffffffffffffffffffffffffffffffffffff16815260200190815260200160002060009054906101000a900460ff16612da0576040517f08c379a0000000000000000000000000000000000000000000000000000000008152600401612d9790615446565b60405180910390fd5b612db73361271083612db29190615745565b613bc3565b612dc033611d8b565b600a60003373ffffffffffffffffffffffffffffffffffffffff1673ffffffffffffffffffffffffffffffffffffffff1681526020019081526020016000206001018190555050565b600c60003373ffffffffffffffffffffffffffffffffffffffff1673ffffffffffffffffffffffffffffffffffffffff16815260200190815260200160002060009054906101000a900460ff16612e95576040517f08c379a0000000000000000000000000000000000000000000000000000000008152600401612e8c90615446565b60405180910390fd5b3373ffffffffffffffffffffffffffffffffffffffff1660098281548110612ee6577f4e487b7100000000000000000000000000000000000000000000000000000000600052603260045260246000fd5b906000526020600020906009020160070160019054906101000a900473ffffffffffffffffffffffffffffffffffffffff1673ffffffffffffffffffffffffffffffffffffffff1614612f6e576040517f08c379a0000000000000000000000000000000000000000000000000000000008152600401612f6590615226565b60405180910390fd5b4260098281548110612fa9577f4e487b7100000000000000000000000000000000000000000000000000000000600052603260045260246000fd5b9060005260206000209060090201600501541115801561301457504260098281548110612fff577f4e487b7100000000000000000000000000000000000000000000000000000000600052603260045260246000fd5b90600052602060002090600902016006015410155b613053576040517f08c379a000000000000000000000000000000000000000000000000000000000815260040161304a906152c6565b60405180910390fd5b613136600560009054906101000a900473ffffffffffffffffffffffffffffffffffffffff16600983815481106130b3577f4e487b7100000000000000000000000000000000000000000000000000000000600052603260045260246000fd5b906000526020600020906009020160070160019054906101000a900473ffffffffffffffffffffffffffffffffffffffff166009848154811061311f577f4e487b7100000000000000000000000000000000000000000000000000000000600052603260045260246000fd5b906000526020600020906009020160040154613942565b6131aa60098281548110613173577f4e487b7100000000000000000000000000000000000000000000000000000000600052603260045260246000fd5b906000526020600020906009020160070160019054906101000a900473ffffffffffffffffffffffffffffffffffffffff16611d8b565b600a6000600984815481106131e8577f4e487b7100000000000000000000000000000000000000000000000000000000600052603260045260246000fd5b906000526020600020906009020160070160019054906101000a900473ffffffffffffffffffffffffffffffffffffffff1673ffffffffffffffffffffffffffffffffffffffff1673ffffffffffffffffffffffffffffffffffffffff1681526020019081526020016000206001018190555061336560098281548110613298577f4e487b7100000000000000000000000000000000000000000000000000000000600052603260045260246000fd5b906000526020600020906009020160020154600a6000600985815481106132e8577f4e487b7100000000000000000000000000000000000000000000000000000000600052603260045260246000fd5b906000526020600020906009020160070160019054906101000a900473ffffffffffffffffffffffffffffffffffffffff1673ffffffffffffffffffffffffffffffffffffffff1673ffffffffffffffffffffffffffffffffffffffff168152602001908152602001600020600701613d2390919063ffffffff16565b6009818154811061339f577f4e487b7100000000000000000000000000000000000000000000000000000000600052603260045260246000fd5b906000526020600020906009020160080160009054906101000a900473ffffffffffffffffffffffffffffffffffffffff16600b60006009848154811061340f577f4e487b7100000000000000000000000000000000000000000000000000000000600052603260045260246000fd5b906000526020600020906009020160020154815260200190815260200160002060020160006101000a81548173ffffffffffffffffffffffffffffffffffffffff021916908373ffffffffffffffffffffffffffffffffffffffff160217905550600a6000600983815481106134ae577f4e487b7100000000000000000000000000000000000000000000000000000000600052603260045260246000fd5b906000526020600020906009020160080160009054906101000a900473ffffffffffffffffffffffffffffffffffffffff1673ffffffffffffffffffffffffffffffffffffffff1673ffffffffffffffffffffffffffffffffffffffff168152602001908152602001600020600701600b60006009848154811061355b577f4e487b7100000000000000000000000000000000000000000000000000000000600052603260045260246000fd5b906000526020600020906009020160020154815260200190815260200160002090806001815401808255809150506001900390600052602060002090600302016000909190919091506000820154816000015560018201816001019080546135c290615866565b6135cd929190614305565b506002820160009054906101000a900473ffffffffffffffffffffffffffffffffffffffff168160020160006101000a81548173ffffffffffffffffffffffffffffffffffffffff021916908373ffffffffffffffffffffffffffffffffffffffff1602179055505050600260098281548110613673577f4e487b7100000000000000000000000000000000000000000000000000000000600052603260045260246000fd5b906000526020600020906009020160070160006101000a81548160ff021916908360028111156136cc577f4e487b7100000000000000000000000000000000000000000000000000000000600052602160045260246000fd5b02179055506000600e600060098481548110613711577f4e487b7100000000000000000000000000000000000000000000000000000000600052603260045260246000fd5b906000526020600020906009020160020154815260200190815260200160002060006101000a81548160ff02191690831515021790555050565b600033905090565b600073ffffffffffffffffffffffffffffffffffffffff168373ffffffffffffffffffffffffffffffffffffffff1614156137c3576040517f08c379a00000000000000000000000000000000000000000000000000000000081526004016137ba90615426565b60405180910390fd5b600073ffffffffffffffffffffffffffffffffffffffff168273ffffffffffffffffffffffffffffffffffffffff161415613833576040517f08c379a000000000000000000000000000000000000000000000000000000000815260040161382a906152a6565b60405180910390fd5b80600160008573ffffffffffffffffffffffffffffffffffffffff1673ffffffffffffffffffffffffffffffffffffffff16815260200190815260200160002060008473ffffffffffffffffffffffffffffffffffffffff1673ffffffffffffffffffffffffffffffffffffffff168152602001908152602001600020819055508173ffffffffffffffffffffffffffffffffffffffff168373ffffffffffffffffffffffffffffffffffffffff167f8c5be1e5ebec7d5bd14f71427d1e84f3dd0314c0f7b2291e5b200ac8c7c3b92583604051613911919061550c565b60405180910390a3505050565b600081600001549050919050565b6001816000016000828254019250508190555050565b600073ffffffffffffffffffffffffffffffffffffffff168373ffffffffffffffffffffffffffffffffffffffff1614156139b2576040517f08c379a00000000000000000000000000000000000000000000000000000000081526004016139a990615406565b60405180910390fd5b600073ffffffffffffffffffffffffffffffffffffffff168273ffffffffffffffffffffffffffffffffffffffff161415613a22576040517f08c379a0000000000000000000000000000000000000000000000000000000008152600401613a1990615206565b60405180910390fd5b613a2d83838361411a565b60008060008573ffffffffffffffffffffffffffffffffffffffff1673ffffffffffffffffffffffffffffffffffffffff16815260200190815260200160002054905081811015613ab3576040517f08c379a0000000000000000000000000000000000000000000000000000000008152600401613aaa906152e6565b60405180910390fd5b8181036000808673ffffffffffffffffffffffffffffffffffffffff1673ffffffffffffffffffffffffffffffffffffffff16815260200190815260200160002081905550816000808573ffffffffffffffffffffffffffffffffffffffff1673ffffffffffffffffffffffffffffffffffffffff1681526020019081526020016000206000828254613b4691906156ef565b925050819055508273ffffffffffffffffffffffffffffffffffffffff168473ffffffffffffffffffffffffffffffffffffffff167fddf252ad1be2c89b69c2b068fc378daa952ba7f163c4a11628f55a4df523b3ef84604051613baa919061550c565b60405180910390a3613bbd84848461411f565b50505050565b600073ffffffffffffffffffffffffffffffffffffffff168273ffffffffffffffffffffffffffffffffffffffff161415613c33576040517f08c379a0000000000000000000000000000000000000000000000000000000008152600401613c2a90615486565b60405180910390fd5b613c3f6000838361411a565b8060026000828254613c5191906156ef565b92505081905550806000808473ffffffffffffffffffffffffffffffffffffffff1673ffffffffffffffffffffffffffffffffffffffff1681526020019081526020016000206000828254613ca691906156ef565b925050819055508173ffffffffffffffffffffffffffffffffffffffff16600073ffffffffffffffffffffffffffffffffffffffff167fddf252ad1be2c89b69c2b068fc378daa952ba7f163c4a11628f55a4df523b3ef83604051613d0b919061550c565b60405180910390a3613d1f6000838361411f565b5050565b6000828054905011613d3457600080fd5b6000613d408383614124565b90506000838281548110613d7d577f4e487b7100000000000000000000000000000000000000000000000000000000600052603260045260246000fd5b906000526020600020906003020160405180606001604052908160008201548152602001600182018054613db090615866565b80601f0160208091040260200160405190810160405280929190818152602001828054613ddc90615866565b8015613e295780601f10613dfe57610100808354040283529160200191613e29565b820191906000526020600020905b815481529060010190602001808311613e0c57829003601f168201915b505050505081526020016002820160009054906101000a900473ffffffffffffffffffffffffffffffffffffffff1673ffffffffffffffffffffffffffffffffffffffff1673ffffffffffffffffffffffffffffffffffffffff168152505090508360018580549050613e9c9190615776565b81548110613ed3577f4e487b7100000000000000000000000000000000000000000000000000000000600052603260045260246000fd5b9060005260206000209060030201848381548110613f1a577f4e487b7100000000000000000000000000000000000000000000000000000000600052603260045260246000fd5b9060005260206000209060030201600082015481600001556001820181600101908054613f4690615866565b613f51929190614305565b506002820160009054906101000a900473ffffffffffffffffffffffffffffffffffffffff168160020160006101000a81548173ffffffffffffffffffffffffffffffffffffffff021916908373ffffffffffffffffffffffffffffffffffffffff160217905550905050808460018680549050613fcf9190615776565b81548110614006577f4e487b7100000000000000000000000000000000000000000000000000000000600052603260045260246000fd5b906000526020600020906003020160008201518160000155602082015181600101908051906020019061403a92919061427f565b5060408201518160020160006101000a81548173ffffffffffffffffffffffffffffffffffffffff021916908373ffffffffffffffffffffffffffffffffffffffff160217905550905050838054806140bc577f4e487b7100000000000000000000000000000000000000000000000000000000600052603160045260246000fd5b60019003818190600052602060002090600302016000808201600090556001820160006140e991906144c5565b6002820160006101000a81549073ffffffffffffffffffffffffffffffffffffffff02191690555050905550505050565b505050565b505050565b600061413083836141f4565b61416f576040517f08c379a000000000000000000000000000000000000000000000000000000000815260040161416690615306565b60405180910390fd5b60005b83805490508110156141ec57828482815481106141b8577f4e487b7100000000000000000000000000000000000000000000000000000000600052603260045260246000fd5b90600052602060002090600302016000015414156141d957809150506141ee565b80806141e4906158c9565b915050614172565b505b92915050565b600080600090505b83805490508110156142775782848281548110614242577f4e487b7100000000000000000000000000000000000000000000000000000000600052603260045260246000fd5b9060005260206000209060030201600001541415614264576001915050614279565b808061426f906158c9565b9150506141fc565b505b92915050565b82805461428b90615866565b90600052602060002090601f0160209004810192826142ad57600085556142f4565b82601f106142c657805160ff19168380011785556142f4565b828001600101855582156142f4579182015b828111156142f35782518255916020019190600101906142d8565b5b5090506143019190614505565b5090565b82805461431190615866565b90600052602060002090601f0160209004810192826143335760008555614381565b82601f106143445780548555614381565b8280016001018555821561438157600052602060002091601f016020900482015b82811115614380578254825591600101919060010190614365565b5b50905061438e9190614505565b5090565b60405180606001604052806000815260200160608152602001600073ffffffffffffffffffffffffffffffffffffffff1681525090565b6040518061014001604052806000815260200160608152602001600081526020016060815260200160008152602001600081526020016000815260200160006002811115614440577f4e487b7100000000000000000000000000000000000000000000000000000000600052602160045260246000fd5b8152602001600073ffffffffffffffffffffffffffffffffffffffff168152602001600073ffffffffffffffffffffffffffffffffffffffff1681525090565b60405180610100016040528060008152602001600081526020016060815260200160608152602001606081526020016060815260200160608152602001606081525090565b5080546144d190615866565b6000825580601f106144e35750614502565b601f0160209004906000526020600020908101906145019190614505565b5b50565b5b8082111561451e576000816000905550600101614506565b5090565b600061453561453084615614565b6155ef565b90508281526020810184848401111561454d57600080fd5b614558848285615824565b509392505050565b60008135905061456f81615eb2565b92915050565b600082601f83011261458657600080fd5b8135614596848260208601614522565b91505092915050565b6000813590506145ae81615ec9565b92915050565b6000602082840312156145c657600080fd5b60006145d484828501614560565b91505092915050565b600080604083850312156145f057600080fd5b60006145fe85828601614560565b925050602061460f85828601614560565b9150509250929050565b60008060006060848603121561462e57600080fd5b600061463c86828701614560565b935050602061464d86828701614560565b925050604061465e8682870161459f565b9150509250925092565b6000806040838503121561467b57600080fd5b600061468985828601614560565b925050602061469a8582860161459f565b9150509250929050565b6000602082840312156146b657600080fd5b600082013567ffffffffffffffff8111156146d057600080fd5b6146dc84828501614575565b91505092915050565b600080600080600060a086880312156146fd57600080fd5b600086013567ffffffffffffffff81111561471757600080fd5b61472388828901614575565b955050602086013567ffffffffffffffff81111561474057600080fd5b61474c88828901614575565b945050604086013567ffffffffffffffff81111561476957600080fd5b61477588828901614575565b935050606086013567ffffffffffffffff81111561479257600080fd5b61479e88828901614575565b925050608086013567ffffffffffffffff8111156147bb57600080fd5b6147c788828901614575565b9150509295509295909350565b60008060008060008060c087890312156147ed57600080fd5b600087013567ffffffffffffffff81111561480757600080fd5b61481389828a01614575565b965050602061482489828a0161459f565b955050604087013567ffffffffffffffff81111561484157600080fd5b61484d89828a01614575565b945050606061485e89828a0161459f565b935050608061486f89828a0161459f565b92505060a061488089828a0161459f565b9150509295509295509295565b60006020828403121561489f57600080fd5b60006148ad8482850161459f565b91505092915050565b600080604083850312156148c957600080fd5b60006148d78582860161459f565b92505060206148e88582860161459f565b9150509250929050565b60006148fe8383614de5565b905092915050565b60006149128383614fa7565b905092915050565b614923816157aa565b82525050565b614932816157aa565b82525050565b600061494382615665565b61494d81856156a0565b93508360208202850161495f85615645565b8060005b8581101561499b578484038952815161497c85826148f2565b945061498783615686565b925060208a01995050600181019050614963565b50829750879550505050505092915050565b60006149b882615670565b6149c281856156b1565b9350836020820285016149d485615655565b8060005b85811015614a1057848403895281516149f18582614906565b94506149fc83615693565b925060208a019950506001810190506149d8565b50829750879550505050505092915050565b614a2b816157bc565b82525050565b614a3a81615812565b82525050565b6000614a4b8261567b565b614a5581856156c2565b9350614a65818560208601615833565b614a6e816159fd565b840191505092915050565b6000614a848261567b565b614a8e81856156d3565b9350614a9e818560208601615833565b614aa7816159fd565b840191505092915050565b6000614abd8261567b565b614ac781856156e4565b9350614ad7818560208601615833565b80840191505092915050565b6000614af06017836156d3565b9150614afb82615a0e565b602082019050919050565b6000614b136023836156d3565b9150614b1e82615a37565b604082019050919050565b6000614b36600f836156d3565b9150614b4182615a86565b602082019050919050565b6000614b59600c836156d3565b9150614b6482615aaf565b602082019050919050565b6000614b7c6012836156d3565b9150614b8782615ad8565b602082019050919050565b6000614b9f6012836156d3565b9150614baa82615b01565b602082019050919050565b6000614bc26022836156d3565b9150614bcd82615b2a565b604082019050919050565b6000614be56017836156d3565b9150614bf082615b79565b602082019050919050565b6000614c086026836156d3565b9150614c1382615ba2565b604082019050919050565b6000614c2b600f836156d3565b9150614c3682615bf1565b602082019050919050565b6000614c4e600e836156d3565b9150614c5982615c1a565b602082019050919050565b6000614c716011836156d3565b9150614c7c82615c43565b602082019050919050565b6000614c946011836156d3565b9150614c9f82615c6c565b602082019050919050565b6000614cb76016836156d3565b9150614cc282615c95565b602082019050919050565b6000614cda6028836156d3565b9150614ce582615cbe565b604082019050919050565b6000614cfd600c836156d3565b9150614d0882615d0d565b602082019050919050565b6000614d206017836156d3565b9150614d2b82615d36565b602082019050919050565b6000614d436025836156d3565b9150614d4e82615d5f565b604082019050919050565b6000614d666024836156d3565b9150614d7182615dae565b604082019050919050565b6000614d89601a836156d3565b9150614d9482615dfd565b602082019050919050565b6000614dac6025836156d3565b9150614db782615e26565b604082019050919050565b6000614dcf601f836156d3565b9150614dda82615e75565b602082019050919050565b600061014083016000830151614dfe600086018261511a565b5060208301518482036020860152614e168282614a40565b9150506040830151614e2b604086018261511a565b5060608301518482036060860152614e438282614a40565b9150506080830151614e58608086018261511a565b5060a0830151614e6b60a086018261511a565b5060c0830151614e7e60c086018261511a565b5060e0830151614e9160e0860182614a31565b50610100830151614ea661010086018261491a565b50610120830151614ebb61012086018261491a565b508091505092915050565b600061014083016000830151614edf600086018261511a565b5060208301518482036020860152614ef78282614a40565b9150506040830151614f0c604086018261511a565b5060608301518482036060860152614f248282614a40565b9150506080830151614f39608086018261511a565b5060a0830151614f4c60a086018261511a565b5060c0830151614f5f60c086018261511a565b5060e0830151614f7260e0860182614a31565b50610100830151614f8761010086018261491a565b50610120830151614f9c61012086018261491a565b508091505092915050565b6000606083016000830151614fbf600086018261511a565b5060208301518482036020860152614fd78282614a40565b9150506040830151614fec604086018261491a565b508091505092915050565b600060608301600083015161500f600086018261511a565b50602083015184820360208601526150278282614a40565b915050604083015161503c604086018261491a565b508091505092915050565b600061010083016000830151615060600086018261511a565b506020830151615073602086018261511a565b506040830151848203604086015261508b8282614a40565b915050606083015184820360608601526150a58282614a40565b915050608083015184820360808601526150bf8282614a40565b91505060a083015184820360a08601526150d98282614a40565b91505060c083015184820360c08601526150f38282614a40565b91505060e083015184820360e086015261510d82826149ad565b9150508091505092915050565b615123816157fb565b82525050565b615132816157fb565b82525050565b61514181615805565b82525050565b60006151538284614ab2565b915081905092915050565b60006040820190506151736000830185614929565b6151806020830184615129565b9392505050565b600060208201905081810360008301526151a18184614938565b905092915050565b60006020820190506151be6000830184614a22565b92915050565b600060208201905081810360008301526151de8184614a79565b905092915050565b600060208201905081810360008301526151ff81614ae3565b9050919050565b6000602082019050818103600083015261521f81614b06565b9050919050565b6000602082019050818103600083015261523f81614b29565b9050919050565b6000602082019050818103600083015261525f81614b4c565b9050919050565b6000602082019050818103600083015261527f81614b6f565b9050919050565b6000602082019050818103600083015261529f81614b92565b9050919050565b600060208201905081810360008301526152bf81614bb5565b9050919050565b600060208201905081810360008301526152df81614bd8565b9050919050565b600060208201905081810360008301526152ff81614bfb565b9050919050565b6000602082019050818103600083015261531f81614c1e565b9050919050565b6000602082019050818103600083015261533f81614c41565b9050919050565b6000602082019050818103600083015261535f81614c64565b9050919050565b6000602082019050818103600083015261537f81614c87565b9050919050565b6000602082019050818103600083015261539f81614caa565b9050919050565b600060208201905081810360008301526153bf81614ccd565b9050919050565b600060208201905081810360008301526153df81614cf0565b9050919050565b600060208201905081810360008301526153ff81614d13565b9050919050565b6000602082019050818103600083015261541f81614d36565b9050919050565b6000602082019050818103600083015261543f81614d59565b9050919050565b6000602082019050818103600083015261545f81614d7c565b9050919050565b6000602082019050818103600083015261547f81614d9f565b9050919050565b6000602082019050818103600083015261549f81614dc2565b9050919050565b600060208201905081810360008301526154c08184614ec6565b905092915050565b600060208201905081810360008301526154e28184614ff7565b905092915050565b600060208201905081810360008301526155048184615047565b905092915050565b60006020820190506155216000830184615129565b92915050565b600060408201905061553c6000830185615129565b818103602083015261554e8184614a79565b90509392505050565b600060e08201905061556c600083018a615129565b818103602083015261557e8189614a79565b905061558d6040830188615129565b818103606083015261559f8187614a79565b90506155ae6080830186615129565b6155bb60a0830185615129565b6155c860c0830184615129565b98975050505050505050565b60006020820190506155e96000830184615138565b92915050565b60006155f961560a565b90506156058282615898565b919050565b6000604051905090565b600067ffffffffffffffff82111561562f5761562e6159ce565b5b615638826159fd565b9050602081019050919050565b6000819050602082019050919050565b6000819050602082019050919050565b600081519050919050565b600081519050919050565b600081519050919050565b6000602082019050919050565b6000602082019050919050565b600082825260208201905092915050565b600082825260208201905092915050565b600082825260208201905092915050565b600082825260208201905092915050565b600081905092915050565b60006156fa826157fb565b9150615705836157fb565b9250827fffffffffffffffffffffffffffffffffffffffffffffffffffffffffffffffff0382111561573a57615739615912565b5b828201905092915050565b6000615750826157fb565b915061575b836157fb565b92508261576b5761576a615941565b5b828204905092915050565b6000615781826157fb565b915061578c836157fb565b92508282101561579f5761579e615912565b5b828203905092915050565b60006157b5826157db565b9050919050565b60008115159050919050565b60008190506157d682615e9e565b919050565b600073ffffffffffffffffffffffffffffffffffffffff82169050919050565b6000819050919050565b600060ff82169050919050565b600061581d826157c8565b9050919050565b82818337600083830152505050565b60005b83811015615851578082015181840152602081019050615836565b83811115615860576000848401525b50505050565b6000600282049050600182168061587e57607f821691505b602082108114156158925761589161599f565b5b50919050565b6158a1826159fd565b810181811067ffffffffffffffff821117156158c0576158bf6159ce565b5b80604052505050565b60006158d4826157fb565b91507fffffffffffffffffffffffffffffffffffffffffffffffffffffffffffffffff82141561590757615906615912565b5b600182019050919050565b7f4e487b7100000000000000000000000000000000000000000000000000000000600052601160045260246000fd5b7f4e487b7100000000000000000000000000000000000000000000000000000000600052601260045260246000fd5b7f4e487b7100000000000000000000000000000000000000000000000000000000600052602160045260246000fd5b7f4e487b7100000000000000000000000000000000000000000000000000000000600052602260045260246000fd5b7f4e487b7100000000000000000000000000000000000000000000000000000000600052604160045260246000fd5b6000601f19601f8301169050919050565b7f4f757473696465206f662061756374696f6e2074696d65000000000000000000600082015250565b7f45524332303a207472616e7366657220746f20746865207a65726f206164647260008201527f6573730000000000000000000000000000000000000000000000000000000000602082015250565b7f6e6f74207065726d697373696f6e210000000000000000000000000000000000600082015250565b7f596f75206973206f776e65720000000000000000000000000000000000000000600082015250565b7f61756374696f6e2077617320636c6f7365640000000000000000000000000000600082015250565b7f596f75206e6f74207065726d697373696f6e0000000000000000000000000000600082015250565b7f45524332303a20617070726f766520746f20746865207a65726f20616464726560008201527f7373000000000000000000000000000000000000000000000000000000000000602082015250565b7f4f757469646573206f662061756374696f6e2074696d65000000000000000000600082015250565b7f45524332303a207472616e7366657220616d6f756e742065786365656473206260008201527f616c616e63650000000000000000000000000000000000000000000000000000602082015250565b7f56616c7565206e6f7420666f756e640000000000000000000000000000000000600082015250565b7f4974656d206e6f74204578697374000000000000000000000000000000000000600082015250565b7f4974656d207761732061756374696f6e21000000000000000000000000000000600082015250565b7f596f752061726520746865206f776e6572000000000000000000000000000000600082015250565b7f4d656d6265722077617320726567697374657265642100000000000000000000600082015250565b7f45524332303a207472616e7366657220616d6f756e742065786365656473206160008201527f6c6c6f77616e6365000000000000000000000000000000000000000000000000602082015250565b7f596f75206e6f74206b696e670000000000000000000000000000000000000000600082015250565b7f596f7520617265206e6f7420656e6f7567687420535054000000000000000000600082015250565b7f45524332303a207472616e736665722066726f6d20746865207a65726f20616460008201527f6472657373000000000000000000000000000000000000000000000000000000602082015250565b7f45524332303a20617070726f76652066726f6d20746865207a65726f2061646460008201527f7265737300000000000000000000000000000000000000000000000000000000602082015250565b7f4d656d62657220776173206e6f74207265676973746572656421000000000000600082015250565b7f45524332303a2064656372656173656420616c6c6f77616e63652062656c6f7760008201527f207a65726f000000000000000000000000000000000000000000000000000000602082015250565b7f45524332303a206d696e7420746f20746865207a65726f206164647265737300600082015250565b60038110615eaf57615eae615970565b5b50565b615ebb816157aa565b8114615ec657600080fd5b50565b615ed2816157fb565b8114615edd57600080fd5b5056fea26469706673582212202d667330e59f0878aa0b86225bd9255d2f32a3274704f98e745752dd52fb26ba64736f6c63430008040033",
  "immutableReferences": {},
  "source": "// contracts/MyToken.sol\r\n// SPDX-License-Identifier: MIT\r\npragma solidity ^0.8.0;\r\nimport \"@openzeppelin/contracts/token/ERC20/ERC20.sol\";\r\nimport \"@openzeppelin/contracts/utils/Counters.sol\";\r\nimport {ArrayLib} from \"./Utils.sol\";\r\nimport \"./Schemas.sol\";\r\ncontract Aucijo is ERC20 {\r\n    constructor() ERC20(\"Spirity Token\", \"SPT\") {\r\n        _mint(msg.sender, 0);\r\n    }\r\n    // address deploy smart contract and hold token in auction\r\n    address private StoreToken = 0xaefdf92622C243a246eC10AD9e1b218F0a0EF0C3;\r\n    \r\n    using Counters for Counters.Counter;\r\n    using ArrayLib for Item[];\r\n    \r\n    Counters.Counter private _auctionId;\r\n    Counters.Counter private _memberId;\r\n    Counters.Counter private _itemId;\r\n \r\n    Auction[] auctions;\r\n    mapping(address => Member) members;\r\n    mapping(uint => Item) items;\r\n    mapping(address => bool) registered;\r\n    mapping(uint => bool) itemExist;\r\n    mapping(uint => bool) itemIsAuction;\r\n\r\n    modifier mRegistered() {\r\n        require(registered[msg.sender], 'Member was not registered!');\r\n        _;\r\n    }\r\n\r\n    event AddItem(address indexed _from, uint _id, string _value);\r\n    event AddAuction(uint id, string name,uint itemId,  string description, uint price, uint start_time, uint end_time);\r\n    event BecomeKing(uint indexed id, address currentKing, uint becomeAt);\r\n    \r\n    function registerMember(string memory firstname, string memory lastname, string memory email, string memory _address, string memory phonenumber) public {\r\n        require(!registered[msg.sender],'Member was registered!');\r\n        Member storage member = members[msg.sender];\r\n        member.firstname = firstname;\r\n        member.lastname = lastname;\r\n        member.email = email;\r\n        member._address = _address;\r\n        member.phonenumber = phonenumber;\r\n        registered[msg.sender] = true;\r\n        _memberId.increment();\r\n    }\r\n    function wasRegistered() public view returns(bool){\r\n        return registered[msg.sender];\r\n    }\r\n    function getProfile() public view mRegistered returns(Member memory){\r\n        return members[msg.sender];\r\n    }\r\n    function addItem(string memory name) public mRegistered{\r\n        Item storage item = items[_itemId.current()];\r\n        item.name = name;\r\n        item.owner = msg.sender;\r\n        item.id = _itemId.current();\r\n        itemExist[_itemId.current()] = true;\r\n        members[msg.sender].items.push(item);\r\n        emit AddItem(msg.sender, _itemId.current(), name);\r\n        _itemId.increment();\r\n    }\r\n\r\n    function agree(uint id) public mRegistered{\r\n        require(auctions[id].owner == msg.sender, 'not permission!'); // yu cu phi l ch s hu mi c thc thi\r\n        require(auctions[id].start_time <= block.timestamp && auctions[id].end_time >= block.timestamp, 'Outides of auction time');\r\n        // processing seller: auctions[id].owner\r\n        _transfer(StoreToken, auctions[id].owner, auctions[id].price);\r\n        members[auctions[id].owner].tokens = balanceOf(auctions[id].owner);\r\n        members[auctions[id].owner].items.remove(auctions[id].itemId);\r\n        // proessing purchaser: auctions[id].currentKing\r\n        items[auctions[id].itemId].owner = auctions[id].currentKing;\r\n        members[auctions[id].currentKing].items.push(items[auctions[id].itemId]);\r\n        auctions[id].status = AuctionStatus.CLOSED;\r\n        itemIsAuction[auctions[id].itemId] = false;\r\n        \r\n    } \r\n    function findItemById(uint id) public view mRegistered returns(Item memory){\r\n        return items[id];\r\n    }\r\n    // function revokeToken trong tng hp ngi to hp ng khng agree nhng  qu hn u gi, ngi u gi cao nht c  quy n \r\n    // thu hi token\r\n    function revokeToken(uint id) public mRegistered {\r\n        require(auctions[id].owner != msg.sender,'You is owner');\r\n        require(auctions[id].currentKing == msg.sender,'You not king');\r\n        require(auctions[id].end_time < block.timestamp,'You not permission');\r\n        _transfer(StoreToken, msg.sender, auctions[id].price);\r\n        members[msg.sender].tokens = balanceOf(msg.sender);\r\n        auctions[id].status = AuctionStatus.CLOSED;\r\n    }\r\n    function createAuction(string memory name,uint itemId,  string memory description, uint price, uint start_time, uint end_time) public mRegistered{\r\n        require(keccak256(abi.encodePacked((name))) > 0 && start_time >= block.timestamp && end_time > start_time,'Outside of auction time');\r\n        require(itemExist[itemId],'Item not Exist');\r\n        require(!itemIsAuction[itemId],'Item was auction!');\r\n        itemIsAuction[itemId] = true;\r\n        Auction memory auction = Auction(_auctionId.current(), name, itemId, description, price, start_time, end_time, AuctionStatus.START, msg.sender, msg.sender);\r\n        auctions.push(auction);\r\n         emit AddAuction(_auctionId.current(), name, itemId, description, price, start_time, end_time);\r\n        _auctionId.increment();\r\n    }\r\n    \r\n    function findAuctionById(uint id) public view mRegistered returns(Auction memory){\r\n        return auctions[id];\r\n    }\r\n    function getAllAuction() public view mRegistered returns(Auction[] memory){\r\n        return auctions;\r\n    }\r\n    // function upgradeStatusAuction(uint id) public mRegistered{\r\n    //     require(auctions[id].owner == msg.sender,'You are not the owner');\r\n    //     auctions[id].status = AuctionStatus.CLOSED ;\r\n    // }\r\n    // u gi ch c thc hin khi trong thi gian start v end \r\n    // khi ngi dng u gi, s c mt StoreToken gi s tin ngi u gi   gi s tin ngi u gi\r\n    \r\n    function bid(uint id, uint price) public mRegistered{\r\n        require(auctions[id].status != AuctionStatus.CLOSED,'auction was closed');\r\n        require(auctions[id].start_time <= block.timestamp && auctions[id].end_time >= block.timestamp, 'Outside of auction time');\r\n        require(auctions[id].owner != msg.sender,'You are the owner');\r\n        require(auctions[id].price < price && members[msg.sender].tokens > price, 'You are not enought SPT');\r\n        if(auctions[id].owner != auctions[id].currentKing) _transfer(StoreToken, auctions[id].currentKing, auctions[id].price);\r\n        auctions[id].price = price;\r\n        auctions[id].currentKing = msg.sender;\r\n        transfer(StoreToken, price);\r\n        members[msg.sender].tokens = balanceOf(msg.sender);\r\n        emit BecomeKing(id, msg.sender, block.timestamp);\r\n    }\r\n    function getCurrentTime() public view mRegistered returns(uint){\r\n        return block.timestamp;\r\n    }\r\n    function coinCharge(uint coin) public mRegistered{\r\n        _mint(msg.sender, coin/10000);\r\n        members[msg.sender].tokens = balanceOf(msg.sender);\r\n    }\r\n    \r\n    \r\n}",
  "sourcePath": "D:/aucijo/contracts/base/Aucijo.sol",
  "compiler": {
    "name": "solc",
    "version": "0.8.4+commit.c7e474f2.Emscripten.clang"
  },
  "schemaVersion": "3.4.1",
  "updatedAt": "2021-07-11T16:29:51.118Z",
  "networkType": "ethereum",
  "devdoc": {
    "kind": "dev",
    "methods": {
      "allowance(address,address)": {
        "details": "See {IERC20-allowance}."
      },
      "approve(address,uint256)": {
        "details": "See {IERC20-approve}. Requirements: - `spender` cannot be the zero address."
      },
      "balanceOf(address)": {
        "details": "See {IERC20-balanceOf}."
      },
      "decimals()": {
        "details": "Returns the number of decimals used to get its user representation. For example, if `decimals` equals `2`, a balance of `505` tokens should be displayed to a user as `5,05` (`505 / 10 ** 2`). Tokens usually opt for a value of 18, imitating the relationship between Ether and Wei. This is the value {ERC20} uses, unless this function is overridden; NOTE: This information is only used for _display_ purposes: it in no way affects any of the arithmetic of the contract, including {IERC20-balanceOf} and {IERC20-transfer}."
      },
      "decreaseAllowance(address,uint256)": {
        "details": "Atomically decreases the allowance granted to `spender` by the caller. This is an alternative to {approve} that can be used as a mitigation for problems described in {IERC20-approve}. Emits an {Approval} event indicating the updated allowance. Requirements: - `spender` cannot be the zero address. - `spender` must have allowance for the caller of at least `subtractedValue`."
      },
      "increaseAllowance(address,uint256)": {
        "details": "Atomically increases the allowance granted to `spender` by the caller. This is an alternative to {approve} that can be used as a mitigation for problems described in {IERC20-approve}. Emits an {Approval} event indicating the updated allowance. Requirements: - `spender` cannot be the zero address."
      },
      "name()": {
        "details": "Returns the name of the token."
      },
      "symbol()": {
        "details": "Returns the symbol of the token, usually a shorter version of the name."
      },
      "totalSupply()": {
        "details": "See {IERC20-totalSupply}."
      },
      "transfer(address,uint256)": {
        "details": "See {IERC20-transfer}. Requirements: - `recipient` cannot be the zero address. - the caller must have a balance of at least `amount`."
      },
      "transferFrom(address,address,uint256)": {
        "details": "See {IERC20-transferFrom}. Emits an {Approval} event indicating the updated allowance. This is not required by the EIP. See the note at the beginning of {ERC20}. Requirements: - `sender` and `recipient` cannot be the zero address. - `sender` must have a balance of at least `amount`. - the caller must have allowance for ``sender``'s tokens of at least `amount`."
      }
    },
    "version": 1
  },
  "userdoc": {
    "kind": "user",
    "methods": {},
    "version": 1
  }
}