{
  "contractName": "Aucijo",
  "abi": [
    {
      "inputs": [],
      "stateMutability": "nonpayable",
      "type": "constructor"
    },
    {
      "anonymous": false,
      "inputs": [
        {
          "indexed": false,
          "internalType": "uint256",
          "name": "id",
          "type": "uint256"
        },
        {
          "indexed": false,
          "internalType": "string",
          "name": "name",
          "type": "string"
        },
        {
          "indexed": false,
          "internalType": "uint256",
          "name": "itemId",
          "type": "uint256"
        },
        {
          "indexed": false,
          "internalType": "string",
          "name": "description",
          "type": "string"
        },
        {
          "indexed": false,
          "internalType": "uint256",
          "name": "price",
          "type": "uint256"
        },
        {
          "indexed": false,
          "internalType": "uint256",
          "name": "start_time",
          "type": "uint256"
        },
        {
          "indexed": false,
          "internalType": "uint256",
          "name": "end_time",
          "type": "uint256"
        }
      ],
      "name": "AddAuction",
      "type": "event"
    },
    {
      "anonymous": false,
      "inputs": [
        {
          "indexed": true,
          "internalType": "address",
          "name": "_from",
          "type": "address"
        },
        {
          "indexed": false,
          "internalType": "uint256",
          "name": "_id",
          "type": "uint256"
        },
        {
          "indexed": false,
          "internalType": "string",
          "name": "_value",
          "type": "string"
        }
      ],
      "name": "AddItem",
      "type": "event"
    },
    {
      "anonymous": false,
      "inputs": [
        {
          "indexed": true,
          "internalType": "address",
          "name": "owner",
          "type": "address"
        },
        {
          "indexed": true,
          "internalType": "address",
          "name": "spender",
          "type": "address"
        },
        {
          "indexed": false,
          "internalType": "uint256",
          "name": "value",
          "type": "uint256"
        }
      ],
      "name": "Approval",
      "type": "event"
    },
    {
      "anonymous": false,
      "inputs": [
        {
          "indexed": true,
          "internalType": "address",
          "name": "from",
          "type": "address"
        },
        {
          "indexed": true,
          "internalType": "address",
          "name": "to",
          "type": "address"
        },
        {
          "indexed": false,
          "internalType": "uint256",
          "name": "value",
          "type": "uint256"
        }
      ],
      "name": "Transfer",
      "type": "event"
    },
    {
      "inputs": [
        {
          "internalType": "address",
          "name": "owner",
          "type": "address"
        },
        {
          "internalType": "address",
          "name": "spender",
          "type": "address"
        }
      ],
      "name": "allowance",
      "outputs": [
        {
          "internalType": "uint256",
          "name": "",
          "type": "uint256"
        }
      ],
      "stateMutability": "view",
      "type": "function",
      "constant": true
    },
    {
      "inputs": [
        {
          "internalType": "address",
          "name": "spender",
          "type": "address"
        },
        {
          "internalType": "uint256",
          "name": "amount",
          "type": "uint256"
        }
      ],
      "name": "approve",
      "outputs": [
        {
          "internalType": "bool",
          "name": "",
          "type": "bool"
        }
      ],
      "stateMutability": "nonpayable",
      "type": "function"
    },
    {
      "inputs": [
        {
          "internalType": "address",
          "name": "account",
          "type": "address"
        }
      ],
      "name": "balanceOf",
      "outputs": [
        {
          "internalType": "uint256",
          "name": "",
          "type": "uint256"
        }
      ],
      "stateMutability": "view",
      "type": "function",
      "constant": true
    },
    {
      "inputs": [],
      "name": "decimals",
      "outputs": [
        {
          "internalType": "uint8",
          "name": "",
          "type": "uint8"
        }
      ],
      "stateMutability": "view",
      "type": "function",
      "constant": true
    },
    {
      "inputs": [
        {
          "internalType": "address",
          "name": "spender",
          "type": "address"
        },
        {
          "internalType": "uint256",
          "name": "subtractedValue",
          "type": "uint256"
        }
      ],
      "name": "decreaseAllowance",
      "outputs": [
        {
          "internalType": "bool",
          "name": "",
          "type": "bool"
        }
      ],
      "stateMutability": "nonpayable",
      "type": "function"
    },
    {
      "inputs": [
        {
          "internalType": "address",
          "name": "spender",
          "type": "address"
        },
        {
          "internalType": "uint256",
          "name": "addedValue",
          "type": "uint256"
        }
      ],
      "name": "increaseAllowance",
      "outputs": [
        {
          "internalType": "bool",
          "name": "",
          "type": "bool"
        }
      ],
      "stateMutability": "nonpayable",
      "type": "function"
    },
    {
      "inputs": [],
      "name": "name",
      "outputs": [
        {
          "internalType": "string",
          "name": "",
          "type": "string"
        }
      ],
      "stateMutability": "view",
      "type": "function",
      "constant": true
    },
    {
      "inputs": [],
      "name": "symbol",
      "outputs": [
        {
          "internalType": "string",
          "name": "",
          "type": "string"
        }
      ],
      "stateMutability": "view",
      "type": "function",
      "constant": true
    },
    {
      "inputs": [],
      "name": "totalSupply",
      "outputs": [
        {
          "internalType": "uint256",
          "name": "",
          "type": "uint256"
        }
      ],
      "stateMutability": "view",
      "type": "function",
      "constant": true
    },
    {
      "inputs": [
        {
          "internalType": "address",
          "name": "recipient",
          "type": "address"
        },
        {
          "internalType": "uint256",
          "name": "amount",
          "type": "uint256"
        }
      ],
      "name": "transfer",
      "outputs": [
        {
          "internalType": "bool",
          "name": "",
          "type": "bool"
        }
      ],
      "stateMutability": "nonpayable",
      "type": "function"
    },
    {
      "inputs": [
        {
          "internalType": "address",
          "name": "sender",
          "type": "address"
        },
        {
          "internalType": "address",
          "name": "recipient",
          "type": "address"
        },
        {
          "internalType": "uint256",
          "name": "amount",
          "type": "uint256"
        }
      ],
      "name": "transferFrom",
      "outputs": [
        {
          "internalType": "bool",
          "name": "",
          "type": "bool"
        }
      ],
      "stateMutability": "nonpayable",
      "type": "function"
    },
    {
      "inputs": [
        {
          "internalType": "string",
          "name": "firstname",
          "type": "string"
        },
        {
          "internalType": "string",
          "name": "lastname",
          "type": "string"
        },
        {
          "internalType": "string",
          "name": "email",
          "type": "string"
        },
        {
          "internalType": "string",
          "name": "_address",
          "type": "string"
        },
        {
          "internalType": "string",
          "name": "phonenumber",
          "type": "string"
        }
      ],
      "name": "registerMember",
      "outputs": [],
      "stateMutability": "nonpayable",
      "type": "function"
    },
    {
      "inputs": [],
      "name": "wasRegistered",
      "outputs": [
        {
          "internalType": "bool",
          "name": "",
          "type": "bool"
        }
      ],
      "stateMutability": "view",
      "type": "function",
      "constant": true
    },
    {
      "inputs": [],
      "name": "getProfile",
      "outputs": [
        {
          "components": [
            {
              "internalType": "uint256",
              "name": "id",
              "type": "uint256"
            },
            {
              "internalType": "uint256",
              "name": "tokens",
              "type": "uint256"
            },
            {
              "internalType": "string",
              "name": "firstname",
              "type": "string"
            },
            {
              "internalType": "string",
              "name": "lastname",
              "type": "string"
            },
            {
              "internalType": "string",
              "name": "email",
              "type": "string"
            },
            {
              "internalType": "string",
              "name": "phonenumber",
              "type": "string"
            },
            {
              "internalType": "string",
              "name": "_address",
              "type": "string"
            },
            {
              "components": [
                {
                  "internalType": "uint256",
                  "name": "id",
                  "type": "uint256"
                },
                {
                  "internalType": "string",
                  "name": "name",
                  "type": "string"
                },
                {
                  "internalType": "address",
                  "name": "owner",
                  "type": "address"
                }
              ],
              "internalType": "struct Item[]",
              "name": "items",
              "type": "tuple[]"
            }
          ],
          "internalType": "struct Member",
          "name": "",
          "type": "tuple"
        }
      ],
      "stateMutability": "view",
      "type": "function",
      "constant": true
    },
    {
      "inputs": [
        {
          "internalType": "string",
          "name": "name",
          "type": "string"
        }
      ],
      "name": "addItem",
      "outputs": [],
      "stateMutability": "nonpayable",
      "type": "function"
    },
    {
      "inputs": [
        {
          "internalType": "uint256",
          "name": "id",
          "type": "uint256"
        }
      ],
      "name": "agree",
      "outputs": [],
      "stateMutability": "nonpayable",
      "type": "function"
    },
    {
      "inputs": [
        {
          "internalType": "uint256",
          "name": "id",
          "type": "uint256"
        }
      ],
      "name": "findItemById",
      "outputs": [
        {
          "components": [
            {
              "internalType": "uint256",
              "name": "id",
              "type": "uint256"
            },
            {
              "internalType": "string",
              "name": "name",
              "type": "string"
            },
            {
              "internalType": "address",
              "name": "owner",
              "type": "address"
            }
          ],
          "internalType": "struct Item",
          "name": "",
          "type": "tuple"
        }
      ],
      "stateMutability": "view",
      "type": "function",
      "constant": true
    },
    {
      "inputs": [
        {
          "internalType": "uint256",
          "name": "id",
          "type": "uint256"
        }
      ],
      "name": "revokeToken",
      "outputs": [],
      "stateMutability": "nonpayable",
      "type": "function"
    },
    {
      "inputs": [
        {
          "internalType": "string",
          "name": "name",
          "type": "string"
        },
        {
          "internalType": "uint256",
          "name": "itemId",
          "type": "uint256"
        },
        {
          "internalType": "string",
          "name": "description",
          "type": "string"
        },
        {
          "internalType": "uint256",
          "name": "price",
          "type": "uint256"
        },
        {
          "internalType": "uint256",
          "name": "start_time",
          "type": "uint256"
        },
        {
          "internalType": "uint256",
          "name": "end_time",
          "type": "uint256"
        }
      ],
      "name": "createAuction",
      "outputs": [],
      "stateMutability": "nonpayable",
      "type": "function"
    },
    {
      "inputs": [
        {
          "internalType": "uint256",
          "name": "id",
          "type": "uint256"
        }
      ],
      "name": "findAuctionById",
      "outputs": [
        {
          "components": [
            {
              "internalType": "uint256",
              "name": "id",
              "type": "uint256"
            },
            {
              "internalType": "string",
              "name": "name",
              "type": "string"
            },
            {
              "internalType": "uint256",
              "name": "itemId",
              "type": "uint256"
            },
            {
              "internalType": "string",
              "name": "description",
              "type": "string"
            },
            {
              "internalType": "uint256",
              "name": "price",
              "type": "uint256"
            },
            {
              "internalType": "uint256",
              "name": "start_time",
              "type": "uint256"
            },
            {
              "internalType": "uint256",
              "name": "end_time",
              "type": "uint256"
            },
            {
              "internalType": "enum AuctionStatus",
              "name": "status",
              "type": "uint8"
            },
            {
              "internalType": "address",
              "name": "owner",
              "type": "address"
            },
            {
              "internalType": "address",
              "name": "currentKing",
              "type": "address"
            }
          ],
          "internalType": "struct Auction",
          "name": "",
          "type": "tuple"
        }
      ],
      "stateMutability": "view",
      "type": "function",
      "constant": true
    },
    {
      "inputs": [],
      "name": "getAllAuction",
      "outputs": [
        {
          "components": [
            {
              "internalType": "uint256",
              "name": "id",
              "type": "uint256"
            },
            {
              "internalType": "string",
              "name": "name",
              "type": "string"
            },
            {
              "internalType": "uint256",
              "name": "itemId",
              "type": "uint256"
            },
            {
              "internalType": "string",
              "name": "description",
              "type": "string"
            },
            {
              "internalType": "uint256",
              "name": "price",
              "type": "uint256"
            },
            {
              "internalType": "uint256",
              "name": "start_time",
              "type": "uint256"
            },
            {
              "internalType": "uint256",
              "name": "end_time",
              "type": "uint256"
            },
            {
              "internalType": "enum AuctionStatus",
              "name": "status",
              "type": "uint8"
            },
            {
              "internalType": "address",
              "name": "owner",
              "type": "address"
            },
            {
              "internalType": "address",
              "name": "currentKing",
              "type": "address"
            }
          ],
          "internalType": "struct Auction[]",
          "name": "",
          "type": "tuple[]"
        }
      ],
      "stateMutability": "view",
      "type": "function",
      "constant": true
    },
    {
      "inputs": [
        {
          "internalType": "uint256",
          "name": "id",
          "type": "uint256"
        },
        {
          "internalType": "uint256",
          "name": "price",
          "type": "uint256"
        }
      ],
      "name": "bid",
      "outputs": [],
      "stateMutability": "nonpayable",
      "type": "function"
    },
    {
      "inputs": [],
      "name": "getCurrentTime",
      "outputs": [
        {
          "internalType": "uint256",
          "name": "",
          "type": "uint256"
        }
      ],
      "stateMutability": "view",
      "type": "function",
      "constant": true
    },
    {
      "inputs": [
        {
          "internalType": "uint256",
          "name": "coin",
          "type": "uint256"
        }
      ],
      "name": "coinCharge",
      "outputs": [],
      "stateMutability": "nonpayable",
      "type": "function"
    }
  ],
  "bytecode": "0x608060405273aefdf92622c243a246ec10ad9e1b218f0a0ef0c3600560006101000a81548173ffffffffffffffffffffffffffffffffffffffff021916908373ffffffffffffffffffffffffffffffffffffffff1602179055503480156200006657600080fd5b506040518060400160405280600d81526020017f5370697269747920546f6b656e000000000000000000000000000000000000008152506040518060400160405280600381526020017f53505400000000000000000000000000000000000000000000000000000000008152508160039080519060200190620000eb929190620002a3565b50806004908051906020019062000104929190620002a3565b5050506200011a3360006200012060201b60201c565b620004ff565b600073ffffffffffffffffffffffffffffffffffffffff168273ffffffffffffffffffffffffffffffffffffffff16141562000193576040517f08c379a00000000000000000000000000000000000000000000000000000000081526004016200018a906200038b565b60405180910390fd5b620001a7600083836200029960201b60201c565b8060026000828254620001bb9190620003db565b92505081905550806000808473ffffffffffffffffffffffffffffffffffffffff1673ffffffffffffffffffffffffffffffffffffffff1681526020019081526020016000206000828254620002129190620003db565b925050819055508173ffffffffffffffffffffffffffffffffffffffff16600073ffffffffffffffffffffffffffffffffffffffff167fddf252ad1be2c89b69c2b068fc378daa952ba7f163c4a11628f55a4df523b3ef83604051620002799190620003ad565b60405180910390a362000295600083836200029e60201b60201c565b5050565b505050565b505050565b828054620002b19062000442565b90600052602060002090601f016020900481019282620002d5576000855562000321565b82601f10620002f057805160ff191683800117855562000321565b8280016001018555821562000321579182015b828111156200032057825182559160200191906001019062000303565b5b50905062000330919062000334565b5090565b5b808211156200034f57600081600090555060010162000335565b5090565b600062000362601f83620003ca565b91506200036f82620004d6565b602082019050919050565b620003858162000438565b82525050565b60006020820190508181036000830152620003a68162000353565b9050919050565b6000602082019050620003c460008301846200037a565b92915050565b600082825260208201905092915050565b6000620003e88262000438565b9150620003f58362000438565b9250827fffffffffffffffffffffffffffffffffffffffffffffffffffffffffffffffff038211156200042d576200042c62000478565b5b828201905092915050565b6000819050919050565b600060028204905060018216806200045b57607f821691505b60208210811415620004725762000471620004a7565b5b50919050565b7f4e487b7100000000000000000000000000000000000000000000000000000000600052601160045260246000fd5b7f4e487b7100000000000000000000000000000000000000000000000000000000600052602260045260246000fd5b7f45524332303a206d696e7420746f20746865207a65726f206164647265737300600082015250565b615ea4806200050f6000396000f3fe608060405234801561001057600080fd5b50600436106101585760003560e01c8063701d4a67116100c3578063a457c2d71161007c578063a457c2d7146103db578063a9059cbb1461040b578063d6afc9b11461043b578063dd62ed3e14610459578063e02c387614610489578063f606841e146104a557610158565b8063701d4a671461030757806370a08231146103235780637dc9e79b14610353578063891863ce1461036f5780638bb1dd801461039f57806395d89b41146103bd57610158565b806327e9f2941161011557806327e9f2941461023357806329cb924d1461024f578063313ce5671461026d578063395093511461028b57806357c03de0146102bb578063598647f8146102eb57610158565b806306fdde031461015d578063095ea7b31461017b57806309e8223a146101ab57806316056daa146101c757806318160ddd146101e557806323b872dd14610203575b600080fd5b6101656104c1565b6040516101729190615152565b60405180910390f35b6101956004803603810190610190919061462e565b610553565b6040516101a29190615137565b60405180910390f35b6101c560048036038101906101c0919061479a565b610571565b005b6101cf610a03565b6040516101dc9190615115565b60405180910390f35b6101ed610d78565b6040516101fa919061549a565b60405180910390f35b61021d600480360381019061021891906145df565b610d82565b60405161022a9190615137565b60405180910390f35b61024d6004803603810190610248919061466a565b610e7a565b005b61025761112f565b604051610264919061549a565b60405180910390f35b6102756111c3565b6040516102829190615562565b60405180910390f35b6102a560048036038101906102a0919061462e565b6111cc565b6040516102b29190615137565b60405180910390f35b6102d560048036038101906102d09190614853565b611278565b6040516102e29190615456565b60405180910390f35b6103056004803603810190610300919061487c565b611423565b005b610321600480360381019061031c91906146ab565b611b9a565b005b61033d6004803603810190610338919061457a565b611d51565b60405161034a919061549a565b60405180910390f35b61036d60048036038101906103689190614853565b611d99565b005b61038960048036038101906103849190614853565b6121c9565b6040516103969190615434565b60405180910390f35b6103a7612541565b6040516103b49190615137565b60405180910390f35b6103c5612595565b6040516103d29190615152565b60405180910390f35b6103f560048036038101906103f0919061462e565b612627565b6040516104029190615137565b60405180910390f35b6104256004803603810190610420919061462e565b612712565b6040516104329190615137565b60405180910390f35b610443612730565b6040516104509190615478565b60405180910390f35b610473600480360381019061046e91906145a3565b612c53565b604051610480919061549a565b60405180910390f35b6104a3600480360381019061049e9190614853565b612cda565b005b6104bf60048036038101906104ba9190614853565b612dcf565b005b6060600380546104d0906157f4565b80601f01602080910402602001604051908101604052809291908181526020018280546104fc906157f4565b80156105495780601f1061051e57610100808354040283529160200191610549565b820191906000526020600020905b81548152906001019060200180831161052c57829003601f168201915b5050505050905090565b6000610567610560613711565b8484613719565b6001905092915050565b600c60003373ffffffffffffffffffffffffffffffffffffffff1673ffffffffffffffffffffffffffffffffffffffff16815260200190815260200160002060009054906101000a900460ff166105fd576040517f08c379a00000000000000000000000000000000000000000000000000000000081526004016105f4906153d4565b60405180910390fd5b6000801b8660405160200161061291906150fe565b604051602081830303815290604052805190602001201180156106355750428210155b801561064057508181115b61067f576040517f08c379a000000000000000000000000000000000000000000000000000000000815260040161067690615174565b60405180910390fd5b600d600086815260200190815260200160002060009054906101000a900460ff166106df576040517f08c379a00000000000000000000000000000000000000000000000000000000081526004016106d6906152b4565b60405180910390fd5b600e600086815260200190815260200160002060009054906101000a900460ff1615610740576040517f08c379a0000000000000000000000000000000000000000000000000000000008152600401610737906152d4565b60405180910390fd5b6001600e600087815260200190815260200160002060006101000a81548160ff021916908315150217905550600060405180610140016040528061078460066138e4565b8152602001888152602001878152602001868152602001858152602001848152602001838152602001600160028111156107e7577f4e487b7100000000000000000000000000000000000000000000000000000000600052602160045260246000fd5b81526020013373ffffffffffffffffffffffffffffffffffffffff1681526020013373ffffffffffffffffffffffffffffffffffffffff1681525090506009819080600181540180825580915050600190039060005260206000209060090201600090919091909150600082015181600001556020820151816001019080519060200190610876929190614245565b5060408201518160020155606082015181600301908051906020019061089d929190614245565b506080820151816004015560a0820151816005015560c0820151816006015560e08201518160070160006101000a81548160ff0219169083600281111561090d577f4e487b7100000000000000000000000000000000000000000000000000000000600052602160045260246000fd5b02179055506101008201518160070160016101000a81548173ffffffffffffffffffffffffffffffffffffffff021916908373ffffffffffffffffffffffffffffffffffffffff1602179055506101208201518160080160006101000a81548173ffffffffffffffffffffffffffffffffffffffff021916908373ffffffffffffffffffffffffffffffffffffffff16021790555050507fb94e5c49f48c6fb667365a6e5fc1a77cd310568dde5e3413747e9c2104f6a78d6109cf60066138e4565b8888888888886040516109e897969594939291906154e5565b60405180910390a16109fa60066138f2565b50505050505050565b6060600c60003373ffffffffffffffffffffffffffffffffffffffff1673ffffffffffffffffffffffffffffffffffffffff16815260200190815260200160002060009054906101000a900460ff16610a91576040517f08c379a0000000000000000000000000000000000000000000000000000000008152600401610a88906153d4565b60405180910390fd5b6009805480602002602001604051908101604052809291908181526020016000905b82821015610d6f57838290600052602060002090600902016040518061014001604052908160008201548152602001600182018054610af1906157f4565b80601f0160208091040260200160405190810160405280929190818152602001828054610b1d906157f4565b8015610b6a5780601f10610b3f57610100808354040283529160200191610b6a565b820191906000526020600020905b815481529060010190602001808311610b4d57829003601f168201915b5050505050815260200160028201548152602001600382018054610b8d906157f4565b80601f0160208091040260200160405190810160405280929190818152602001828054610bb9906157f4565b8015610c065780601f10610bdb57610100808354040283529160200191610c06565b820191906000526020600020905b815481529060010190602001808311610be957829003601f168201915b505050505081526020016004820154815260200160058201548152602001600682015481526020016007820160009054906101000a900460ff166002811115610c78577f4e487b7100000000000000000000000000000000000000000000000000000000600052602160045260246000fd5b6002811115610cb0577f4e487b7100000000000000000000000000000000000000000000000000000000600052602160045260246000fd5b81526020016007820160019054906101000a900473ffffffffffffffffffffffffffffffffffffffff1673ffffffffffffffffffffffffffffffffffffffff1673ffffffffffffffffffffffffffffffffffffffff1681526020016008820160009054906101000a900473ffffffffffffffffffffffffffffffffffffffff1673ffffffffffffffffffffffffffffffffffffffff1673ffffffffffffffffffffffffffffffffffffffff168152505081526020019060010190610ab3565b50505050905090565b6000600254905090565b6000610d8f848484613908565b6000600160008673ffffffffffffffffffffffffffffffffffffffff1673ffffffffffffffffffffffffffffffffffffffff1681526020019081526020016000206000610dda613711565b73ffffffffffffffffffffffffffffffffffffffff1673ffffffffffffffffffffffffffffffffffffffff16815260200190815260200160002054905082811015610e5a576040517f08c379a0000000000000000000000000000000000000000000000000000000008152600401610e5190615334565b60405180910390fd5b610e6e85610e66613711565b858403613719565b60019150509392505050565b600c60003373ffffffffffffffffffffffffffffffffffffffff1673ffffffffffffffffffffffffffffffffffffffff16815260200190815260200160002060009054906101000a900460ff16610f06576040517f08c379a0000000000000000000000000000000000000000000000000000000008152600401610efd906153d4565b60405180910390fd5b6000600b6000610f1660086138e4565b8152602001908152602001600020905081816001019080519060200190610f3e929190614245565b50338160020160006101000a81548173ffffffffffffffffffffffffffffffffffffffff021916908373ffffffffffffffffffffffffffffffffffffffff160217905550610f8c60086138e4565b81600001819055506001600d6000610fa460086138e4565b815260200190815260200160002060006101000a81548160ff021916908315150217905550600a60003373ffffffffffffffffffffffffffffffffffffffff1673ffffffffffffffffffffffffffffffffffffffff168152602001908152602001600020600701819080600181540180825580915050600190039060005260206000209060030201600090919091909150600082015481600001556001820181600101908054611053906157f4565b61105e9291906142cb565b506002820160009054906101000a900473ffffffffffffffffffffffffffffffffffffffff168160020160006101000a81548173ffffffffffffffffffffffffffffffffffffffff021916908373ffffffffffffffffffffffffffffffffffffffff16021790555050503373ffffffffffffffffffffffffffffffffffffffff167fc13dfb7e65ffaf5db347a448814a2b0c1f17a29c8b5a05ed1d872751672e908361110a60086138e4565b846040516111199291906154b5565b60405180910390a261112b60086138f2565b5050565b6000600c60003373ffffffffffffffffffffffffffffffffffffffff1673ffffffffffffffffffffffffffffffffffffffff16815260200190815260200160002060009054906101000a900460ff166111bd576040517f08c379a00000000000000000000000000000000000000000000000000000000081526004016111b4906153d4565b60405180910390fd5b42905090565b60006012905090565b600061126e6111d9613711565b8484600160006111e7613711565b73ffffffffffffffffffffffffffffffffffffffff1673ffffffffffffffffffffffffffffffffffffffff16815260200190815260200160002060008873ffffffffffffffffffffffffffffffffffffffff1673ffffffffffffffffffffffffffffffffffffffff16815260200190815260200160002054611269919061567d565b613719565b6001905092915050565b611280614358565b600c60003373ffffffffffffffffffffffffffffffffffffffff1673ffffffffffffffffffffffffffffffffffffffff16815260200190815260200160002060009054906101000a900460ff1661130c576040517f08c379a0000000000000000000000000000000000000000000000000000000008152600401611303906153d4565b60405180910390fd5b600b600083815260200190815260200160002060405180606001604052908160008201548152602001600182018054611344906157f4565b80601f0160208091040260200160405190810160405280929190818152602001828054611370906157f4565b80156113bd5780601f10611392576101008083540402835291602001916113bd565b820191906000526020600020905b8154815290600101906020018083116113a057829003601f168201915b505050505081526020016002820160009054906101000a900473ffffffffffffffffffffffffffffffffffffffff1673ffffffffffffffffffffffffffffffffffffffff1673ffffffffffffffffffffffffffffffffffffffff16815250509050919050565b600c60003373ffffffffffffffffffffffffffffffffffffffff1673ffffffffffffffffffffffffffffffffffffffff16815260200190815260200160002060009054906101000a900460ff166114af576040517f08c379a00000000000000000000000000000000000000000000000000000000081526004016114a6906153d4565b60405180910390fd5b6002808111156114e8577f4e487b7100000000000000000000000000000000000000000000000000000000600052602160045260246000fd5b60098381548110611522577f4e487b7100000000000000000000000000000000000000000000000000000000600052603260045260246000fd5b906000526020600020906009020160070160009054906101000a900460ff166002811115611579577f4e487b7100000000000000000000000000000000000000000000000000000000600052602160045260246000fd5b14156115ba576040517f08c379a00000000000000000000000000000000000000000000000000000000081526004016115b1906151f4565b60405180910390fd5b42600983815481106115f5577f4e487b7100000000000000000000000000000000000000000000000000000000600052603260045260246000fd5b906000526020600020906009020160050154111580156116605750426009838154811061164b577f4e487b7100000000000000000000000000000000000000000000000000000000600052603260045260246000fd5b90600052602060002090600902016006015410155b61169f576040517f08c379a000000000000000000000000000000000000000000000000000000000815260040161169690615174565b60405180910390fd5b3373ffffffffffffffffffffffffffffffffffffffff16600983815481106116f0577f4e487b7100000000000000000000000000000000000000000000000000000000600052603260045260246000fd5b906000526020600020906009020160070160019054906101000a900473ffffffffffffffffffffffffffffffffffffffff1673ffffffffffffffffffffffffffffffffffffffff161415611779576040517f08c379a0000000000000000000000000000000000000000000000000000000008152600401611770906152f4565b60405180910390fd5b80600983815481106117b4577f4e487b7100000000000000000000000000000000000000000000000000000000600052603260045260246000fd5b906000526020600020906009020160040154108015611814575080600a60003373ffffffffffffffffffffffffffffffffffffffff1673ffffffffffffffffffffffffffffffffffffffff16815260200190815260200160002060010154115b611853576040517f08c379a000000000000000000000000000000000000000000000000000000000815260040161184a90615374565b60405180910390fd5b6009828154811061188d577f4e487b7100000000000000000000000000000000000000000000000000000000600052603260045260246000fd5b906000526020600020906009020160080160009054906101000a900473ffffffffffffffffffffffffffffffffffffffff1673ffffffffffffffffffffffffffffffffffffffff166009838154811061190f577f4e487b7100000000000000000000000000000000000000000000000000000000600052603260045260246000fd5b906000526020600020906009020160070160019054906101000a900473ffffffffffffffffffffffffffffffffffffffff1673ffffffffffffffffffffffffffffffffffffffff1614611a4057611a3f600560009054906101000a900473ffffffffffffffffffffffffffffffffffffffff16600984815481106119bc577f4e487b7100000000000000000000000000000000000000000000000000000000600052603260045260246000fd5b906000526020600020906009020160080160009054906101000a900473ffffffffffffffffffffffffffffffffffffffff1660098581548110611a28577f4e487b7100000000000000000000000000000000000000000000000000000000600052603260045260246000fd5b906000526020600020906009020160040154613908565b5b8060098381548110611a7b577f4e487b7100000000000000000000000000000000000000000000000000000000600052603260045260246000fd5b9060005260206000209060090201600401819055503360098381548110611acb577f4e487b7100000000000000000000000000000000000000000000000000000000600052603260045260246000fd5b906000526020600020906009020160080160006101000a81548173ffffffffffffffffffffffffffffffffffffffff021916908373ffffffffffffffffffffffffffffffffffffffff160217905550611b46600560009054906101000a900473ffffffffffffffffffffffffffffffffffffffff1682612712565b50611b5033611d51565b600a60003373ffffffffffffffffffffffffffffffffffffffff1673ffffffffffffffffffffffffffffffffffffffff168152602001908152602001600020600101819055505050565b600c60003373ffffffffffffffffffffffffffffffffffffffff1673ffffffffffffffffffffffffffffffffffffffff16815260200190815260200160002060009054906101000a900460ff1615611c27576040517f08c379a0000000000000000000000000000000000000000000000000000000008152600401611c1e90615314565b60405180910390fd5b6000600a60003373ffffffffffffffffffffffffffffffffffffffff1673ffffffffffffffffffffffffffffffffffffffff168152602001908152602001600020905085816002019080519060200190611c82929190614245565b5084816003019080519060200190611c9b929190614245565b5083816004019080519060200190611cb4929190614245565b5082816006019080519060200190611ccd929190614245565b5081816005019080519060200190611ce6929190614245565b506001600c60003373ffffffffffffffffffffffffffffffffffffffff1673ffffffffffffffffffffffffffffffffffffffff16815260200190815260200160002060006101000a81548160ff021916908315150217905550611d4960076138f2565b505050505050565b60008060008373ffffffffffffffffffffffffffffffffffffffff1673ffffffffffffffffffffffffffffffffffffffff168152602001908152602001600020549050919050565b600c60003373ffffffffffffffffffffffffffffffffffffffff1673ffffffffffffffffffffffffffffffffffffffff16815260200190815260200160002060009054906101000a900460ff16611e25576040517f08c379a0000000000000000000000000000000000000000000000000000000008152600401611e1c906153d4565b60405180910390fd5b3373ffffffffffffffffffffffffffffffffffffffff1660098281548110611e76577f4e487b7100000000000000000000000000000000000000000000000000000000600052603260045260246000fd5b906000526020600020906009020160070160019054906101000a900473ffffffffffffffffffffffffffffffffffffffff1673ffffffffffffffffffffffffffffffffffffffff161415611eff576040517f08c379a0000000000000000000000000000000000000000000000000000000008152600401611ef6906151d4565b60405180910390fd5b3373ffffffffffffffffffffffffffffffffffffffff1660098281548110611f50577f4e487b7100000000000000000000000000000000000000000000000000000000600052603260045260246000fd5b906000526020600020906009020160080160009054906101000a900473ffffffffffffffffffffffffffffffffffffffff1673ffffffffffffffffffffffffffffffffffffffff1614611fd8576040517f08c379a0000000000000000000000000000000000000000000000000000000008152600401611fcf90615354565b60405180910390fd5b4260098281548110612013577f4e487b7100000000000000000000000000000000000000000000000000000000600052603260045260246000fd5b90600052602060002090600902016006015410612065576040517f08c379a000000000000000000000000000000000000000000000000000000000815260040161205c90615214565b60405180910390fd5b6120dd600560009054906101000a900473ffffffffffffffffffffffffffffffffffffffff1633600984815481106120c6577f4e487b7100000000000000000000000000000000000000000000000000000000600052603260045260246000fd5b906000526020600020906009020160040154613908565b6120e633611d51565b600a60003373ffffffffffffffffffffffffffffffffffffffff1673ffffffffffffffffffffffffffffffffffffffff16815260200190815260200160002060010181905550600260098281548110612168577f4e487b7100000000000000000000000000000000000000000000000000000000600052603260045260246000fd5b906000526020600020906009020160070160006101000a81548160ff021916908360028111156121c1577f4e487b7100000000000000000000000000000000000000000000000000000000600052602160045260246000fd5b021790555050565b6121d161438f565b600c60003373ffffffffffffffffffffffffffffffffffffffff1673ffffffffffffffffffffffffffffffffffffffff16815260200190815260200160002060009054906101000a900460ff1661225d576040517f08c379a0000000000000000000000000000000000000000000000000000000008152600401612254906153d4565b60405180910390fd5b60098281548110612297577f4e487b7100000000000000000000000000000000000000000000000000000000600052603260045260246000fd5b906000526020600020906009020160405180610140016040529081600082015481526020016001820180546122cb906157f4565b80601f01602080910402602001604051908101604052809291908181526020018280546122f7906157f4565b80156123445780601f1061231957610100808354040283529160200191612344565b820191906000526020600020905b81548152906001019060200180831161232757829003601f168201915b5050505050815260200160028201548152602001600382018054612367906157f4565b80601f0160208091040260200160405190810160405280929190818152602001828054612393906157f4565b80156123e05780601f106123b5576101008083540402835291602001916123e0565b820191906000526020600020905b8154815290600101906020018083116123c357829003601f168201915b505050505081526020016004820154815260200160058201548152602001600682015481526020016007820160009054906101000a900460ff166002811115612452577f4e487b7100000000000000000000000000000000000000000000000000000000600052602160045260246000fd5b600281111561248a577f4e487b7100000000000000000000000000000000000000000000000000000000600052602160045260246000fd5b81526020016007820160019054906101000a900473ffffffffffffffffffffffffffffffffffffffff1673ffffffffffffffffffffffffffffffffffffffff1673ffffffffffffffffffffffffffffffffffffffff1681526020016008820160009054906101000a900473ffffffffffffffffffffffffffffffffffffffff1673ffffffffffffffffffffffffffffffffffffffff1673ffffffffffffffffffffffffffffffffffffffff16815250509050919050565b6000600c60003373ffffffffffffffffffffffffffffffffffffffff1673ffffffffffffffffffffffffffffffffffffffff16815260200190815260200160002060009054906101000a900460ff16905090565b6060600480546125a4906157f4565b80601f01602080910402602001604051908101604052809291908181526020018280546125d0906157f4565b801561261d5780601f106125f25761010080835404028352916020019161261d565b820191906000526020600020905b81548152906001019060200180831161260057829003601f168201915b5050505050905090565b60008060016000612636613711565b73ffffffffffffffffffffffffffffffffffffffff1673ffffffffffffffffffffffffffffffffffffffff16815260200190815260200160002060008573ffffffffffffffffffffffffffffffffffffffff1673ffffffffffffffffffffffffffffffffffffffff168152602001908152602001600020549050828110156126f3576040517f08c379a00000000000000000000000000000000000000000000000000000000081526004016126ea906153f4565b60405180910390fd5b6127076126fe613711565b85858403613719565b600191505092915050565b600061272661271f613711565b8484613908565b6001905092915050565b612738614446565b600c60003373ffffffffffffffffffffffffffffffffffffffff1673ffffffffffffffffffffffffffffffffffffffff16815260200190815260200160002060009054906101000a900460ff166127c4576040517f08c379a00000000000000000000000000000000000000000000000000000000081526004016127bb906153d4565b60405180910390fd5b600a60003373ffffffffffffffffffffffffffffffffffffffff1673ffffffffffffffffffffffffffffffffffffffff168152602001908152602001600020604051806101000160405290816000820154815260200160018201548152602001600282018054612833906157f4565b80601f016020809104026020016040519081016040528092919081815260200182805461285f906157f4565b80156128ac5780601f10612881576101008083540402835291602001916128ac565b820191906000526020600020905b81548152906001019060200180831161288f57829003601f168201915b505050505081526020016003820180546128c5906157f4565b80601f01602080910402602001604051908101604052809291908181526020018280546128f1906157f4565b801561293e5780601f106129135761010080835404028352916020019161293e565b820191906000526020600020905b81548152906001019060200180831161292157829003601f168201915b50505050508152602001600482018054612957906157f4565b80601f0160208091040260200160405190810160405280929190818152602001828054612983906157f4565b80156129d05780601f106129a5576101008083540402835291602001916129d0565b820191906000526020600020905b8154815290600101906020018083116129b357829003601f168201915b505050505081526020016005820180546129e9906157f4565b80601f0160208091040260200160405190810160405280929190818152602001828054612a15906157f4565b8015612a625780601f10612a3757610100808354040283529160200191612a62565b820191906000526020600020905b815481529060010190602001808311612a4557829003601f168201915b50505050508152602001600682018054612a7b906157f4565b80601f0160208091040260200160405190810160405280929190818152602001828054612aa7906157f4565b8015612af45780601f10612ac957610100808354040283529160200191612af4565b820191906000526020600020905b815481529060010190602001808311612ad757829003601f168201915b5050505050815260200160078201805480602002602001604051908101604052809291908181526020016000905b82821015612c46578382906000526020600020906003020160405180606001604052908160008201548152602001600182018054612b5f906157f4565b80601f0160208091040260200160405190810160405280929190818152602001828054612b8b906157f4565b8015612bd85780601f10612bad57610100808354040283529160200191612bd8565b820191906000526020600020905b815481529060010190602001808311612bbb57829003601f168201915b505050505081526020016002820160009054906101000a900473ffffffffffffffffffffffffffffffffffffffff1673ffffffffffffffffffffffffffffffffffffffff1673ffffffffffffffffffffffffffffffffffffffff168152505081526020019060010190612b22565b5050505081525050905090565b6000600160008473ffffffffffffffffffffffffffffffffffffffff1673ffffffffffffffffffffffffffffffffffffffff16815260200190815260200160002060008373ffffffffffffffffffffffffffffffffffffffff1673ffffffffffffffffffffffffffffffffffffffff16815260200190815260200160002054905092915050565b600c60003373ffffffffffffffffffffffffffffffffffffffff1673ffffffffffffffffffffffffffffffffffffffff16815260200190815260200160002060009054906101000a900460ff16612d66576040517f08c379a0000000000000000000000000000000000000000000000000000000008152600401612d5d906153d4565b60405180910390fd5b612d7d3361271083612d7891906156d3565b613b89565b612d8633611d51565b600a60003373ffffffffffffffffffffffffffffffffffffffff1673ffffffffffffffffffffffffffffffffffffffff1681526020019081526020016000206001018190555050565b600c60003373ffffffffffffffffffffffffffffffffffffffff1673ffffffffffffffffffffffffffffffffffffffff16815260200190815260200160002060009054906101000a900460ff16612e5b576040517f08c379a0000000000000000000000000000000000000000000000000000000008152600401612e52906153d4565b60405180910390fd5b3373ffffffffffffffffffffffffffffffffffffffff1660098281548110612eac577f4e487b7100000000000000000000000000000000000000000000000000000000600052603260045260246000fd5b906000526020600020906009020160070160019054906101000a900473ffffffffffffffffffffffffffffffffffffffff1673ffffffffffffffffffffffffffffffffffffffff1614612f34576040517f08c379a0000000000000000000000000000000000000000000000000000000008152600401612f2b906151b4565b60405180910390fd5b4260098281548110612f6f577f4e487b7100000000000000000000000000000000000000000000000000000000600052603260045260246000fd5b90600052602060002090600902016005015411158015612fda57504260098281548110612fc5577f4e487b7100000000000000000000000000000000000000000000000000000000600052603260045260246000fd5b90600052602060002090600902016006015410155b613019576040517f08c379a000000000000000000000000000000000000000000000000000000000815260040161301090615254565b60405180910390fd5b6130fc600560009054906101000a900473ffffffffffffffffffffffffffffffffffffffff1660098381548110613079577f4e487b7100000000000000000000000000000000000000000000000000000000600052603260045260246000fd5b906000526020600020906009020160070160019054906101000a900473ffffffffffffffffffffffffffffffffffffffff16600984815481106130e5577f4e487b7100000000000000000000000000000000000000000000000000000000600052603260045260246000fd5b906000526020600020906009020160040154613908565b61317060098281548110613139577f4e487b7100000000000000000000000000000000000000000000000000000000600052603260045260246000fd5b906000526020600020906009020160070160019054906101000a900473ffffffffffffffffffffffffffffffffffffffff16611d51565b600a6000600984815481106131ae577f4e487b7100000000000000000000000000000000000000000000000000000000600052603260045260246000fd5b906000526020600020906009020160070160019054906101000a900473ffffffffffffffffffffffffffffffffffffffff1673ffffffffffffffffffffffffffffffffffffffff1673ffffffffffffffffffffffffffffffffffffffff1681526020019081526020016000206001018190555061332b6009828154811061325e577f4e487b7100000000000000000000000000000000000000000000000000000000600052603260045260246000fd5b906000526020600020906009020160020154600a6000600985815481106132ae577f4e487b7100000000000000000000000000000000000000000000000000000000600052603260045260246000fd5b906000526020600020906009020160070160019054906101000a900473ffffffffffffffffffffffffffffffffffffffff1673ffffffffffffffffffffffffffffffffffffffff1673ffffffffffffffffffffffffffffffffffffffff168152602001908152602001600020600701613ce990919063ffffffff16565b60098181548110613365577f4e487b7100000000000000000000000000000000000000000000000000000000600052603260045260246000fd5b906000526020600020906009020160080160009054906101000a900473ffffffffffffffffffffffffffffffffffffffff16600b6000600984815481106133d5577f4e487b7100000000000000000000000000000000000000000000000000000000600052603260045260246000fd5b906000526020600020906009020160020154815260200190815260200160002060020160006101000a81548173ffffffffffffffffffffffffffffffffffffffff021916908373ffffffffffffffffffffffffffffffffffffffff160217905550600a600060098381548110613474577f4e487b7100000000000000000000000000000000000000000000000000000000600052603260045260246000fd5b906000526020600020906009020160080160009054906101000a900473ffffffffffffffffffffffffffffffffffffffff1673ffffffffffffffffffffffffffffffffffffffff1673ffffffffffffffffffffffffffffffffffffffff168152602001908152602001600020600701600b600060098481548110613521577f4e487b7100000000000000000000000000000000000000000000000000000000600052603260045260246000fd5b90600052602060002090600902016002015481526020019081526020016000209080600181540180825580915050600190039060005260206000209060030201600090919091909150600082015481600001556001820181600101908054613588906157f4565b6135939291906142cb565b506002820160009054906101000a900473ffffffffffffffffffffffffffffffffffffffff168160020160006101000a81548173ffffffffffffffffffffffffffffffffffffffff021916908373ffffffffffffffffffffffffffffffffffffffff1602179055505050600260098281548110613639577f4e487b7100000000000000000000000000000000000000000000000000000000600052603260045260246000fd5b906000526020600020906009020160070160006101000a81548160ff02191690836002811115613692577f4e487b7100000000000000000000000000000000000000000000000000000000600052602160045260246000fd5b02179055506000600e6000600984815481106136d7577f4e487b7100000000000000000000000000000000000000000000000000000000600052603260045260246000fd5b906000526020600020906009020160020154815260200190815260200160002060006101000a81548160ff02191690831515021790555050565b600033905090565b600073ffffffffffffffffffffffffffffffffffffffff168373ffffffffffffffffffffffffffffffffffffffff161415613789576040517f08c379a0000000000000000000000000000000000000000000000000000000008152600401613780906153b4565b60405180910390fd5b600073ffffffffffffffffffffffffffffffffffffffff168273ffffffffffffffffffffffffffffffffffffffff1614156137f9576040517f08c379a00000000000000000000000000000000000000000000000000000000081526004016137f090615234565b60405180910390fd5b80600160008573ffffffffffffffffffffffffffffffffffffffff1673ffffffffffffffffffffffffffffffffffffffff16815260200190815260200160002060008473ffffffffffffffffffffffffffffffffffffffff1673ffffffffffffffffffffffffffffffffffffffff168152602001908152602001600020819055508173ffffffffffffffffffffffffffffffffffffffff168373ffffffffffffffffffffffffffffffffffffffff167f8c5be1e5ebec7d5bd14f71427d1e84f3dd0314c0f7b2291e5b200ac8c7c3b925836040516138d7919061549a565b60405180910390a3505050565b600081600001549050919050565b6001816000016000828254019250508190555050565b600073ffffffffffffffffffffffffffffffffffffffff168373ffffffffffffffffffffffffffffffffffffffff161415613978576040517f08c379a000000000000000000000000000000000000000000000000000000000815260040161396f90615394565b60405180910390fd5b600073ffffffffffffffffffffffffffffffffffffffff168273ffffffffffffffffffffffffffffffffffffffff1614156139e8576040517f08c379a00000000000000000000000000000000000000000000000000000000081526004016139df90615194565b60405180910390fd5b6139f38383836140e0565b60008060008573ffffffffffffffffffffffffffffffffffffffff1673ffffffffffffffffffffffffffffffffffffffff16815260200190815260200160002054905081811015613a79576040517f08c379a0000000000000000000000000000000000000000000000000000000008152600401613a7090615274565b60405180910390fd5b8181036000808673ffffffffffffffffffffffffffffffffffffffff1673ffffffffffffffffffffffffffffffffffffffff16815260200190815260200160002081905550816000808573ffffffffffffffffffffffffffffffffffffffff1673ffffffffffffffffffffffffffffffffffffffff1681526020019081526020016000206000828254613b0c919061567d565b925050819055508273ffffffffffffffffffffffffffffffffffffffff168473ffffffffffffffffffffffffffffffffffffffff167fddf252ad1be2c89b69c2b068fc378daa952ba7f163c4a11628f55a4df523b3ef84604051613b70919061549a565b60405180910390a3613b838484846140e5565b50505050565b600073ffffffffffffffffffffffffffffffffffffffff168273ffffffffffffffffffffffffffffffffffffffff161415613bf9576040517f08c379a0000000000000000000000000000000000000000000000000000000008152600401613bf090615414565b60405180910390fd5b613c05600083836140e0565b8060026000828254613c17919061567d565b92505081905550806000808473ffffffffffffffffffffffffffffffffffffffff1673ffffffffffffffffffffffffffffffffffffffff1681526020019081526020016000206000828254613c6c919061567d565b925050819055508173ffffffffffffffffffffffffffffffffffffffff16600073ffffffffffffffffffffffffffffffffffffffff167fddf252ad1be2c89b69c2b068fc378daa952ba7f163c4a11628f55a4df523b3ef83604051613cd1919061549a565b60405180910390a3613ce5600083836140e5565b5050565b6000828054905011613cfa57600080fd5b6000613d0683836140ea565b90506000838281548110613d43577f4e487b7100000000000000000000000000000000000000000000000000000000600052603260045260246000fd5b906000526020600020906003020160405180606001604052908160008201548152602001600182018054613d76906157f4565b80601f0160208091040260200160405190810160405280929190818152602001828054613da2906157f4565b8015613def5780601f10613dc457610100808354040283529160200191613def565b820191906000526020600020905b815481529060010190602001808311613dd257829003601f168201915b505050505081526020016002820160009054906101000a900473ffffffffffffffffffffffffffffffffffffffff1673ffffffffffffffffffffffffffffffffffffffff1673ffffffffffffffffffffffffffffffffffffffff168152505090508360018580549050613e629190615704565b81548110613e99577f4e487b7100000000000000000000000000000000000000000000000000000000600052603260045260246000fd5b9060005260206000209060030201848381548110613ee0577f4e487b7100000000000000000000000000000000000000000000000000000000600052603260045260246000fd5b9060005260206000209060030201600082015481600001556001820181600101908054613f0c906157f4565b613f179291906142cb565b506002820160009054906101000a900473ffffffffffffffffffffffffffffffffffffffff168160020160006101000a81548173ffffffffffffffffffffffffffffffffffffffff021916908373ffffffffffffffffffffffffffffffffffffffff160217905550905050808460018680549050613f959190615704565b81548110613fcc577f4e487b7100000000000000000000000000000000000000000000000000000000600052603260045260246000fd5b9060005260206000209060030201600082015181600001556020820151816001019080519060200190614000929190614245565b5060408201518160020160006101000a81548173ffffffffffffffffffffffffffffffffffffffff021916908373ffffffffffffffffffffffffffffffffffffffff16021790555090505083805480614082577f4e487b7100000000000000000000000000000000000000000000000000000000600052603160045260246000fd5b60019003818190600052602060002090600302016000808201600090556001820160006140af919061448b565b6002820160006101000a81549073ffffffffffffffffffffffffffffffffffffffff02191690555050905550505050565b505050565b505050565b60006140f683836141ba565b614135576040517f08c379a000000000000000000000000000000000000000000000000000000000815260040161412c90615294565b60405180910390fd5b60005b83805490508110156141b2578284828154811061417e577f4e487b7100000000000000000000000000000000000000000000000000000000600052603260045260246000fd5b906000526020600020906003020160000154141561419f57809150506141b4565b80806141aa90615857565b915050614138565b505b92915050565b600080600090505b838054905081101561423d5782848281548110614208577f4e487b7100000000000000000000000000000000000000000000000000000000600052603260045260246000fd5b906000526020600020906003020160000154141561422a57600191505061423f565b808061423590615857565b9150506141c2565b505b92915050565b828054614251906157f4565b90600052602060002090601f01602090048101928261427357600085556142ba565b82601f1061428c57805160ff19168380011785556142ba565b828001600101855582156142ba579182015b828111156142b957825182559160200191906001019061429e565b5b5090506142c791906144cb565b5090565b8280546142d7906157f4565b90600052602060002090601f0160209004810192826142f95760008555614347565b82601f1061430a5780548555614347565b8280016001018555821561434757600052602060002091601f016020900482015b8281111561434657825482559160010191906001019061432b565b5b50905061435491906144cb565b5090565b60405180606001604052806000815260200160608152602001600073ffffffffffffffffffffffffffffffffffffffff1681525090565b6040518061014001604052806000815260200160608152602001600081526020016060815260200160008152602001600081526020016000815260200160006002811115614406577f4e487b7100000000000000000000000000000000000000000000000000000000600052602160045260246000fd5b8152602001600073ffffffffffffffffffffffffffffffffffffffff168152602001600073ffffffffffffffffffffffffffffffffffffffff1681525090565b60405180610100016040528060008152602001600081526020016060815260200160608152602001606081526020016060815260200160608152602001606081525090565b508054614497906157f4565b6000825580601f106144a957506144c8565b601f0160209004906000526020600020908101906144c791906144cb565b5b50565b5b808211156144e45760008160009055506001016144cc565b5090565b60006144fb6144f6846155a2565b61557d565b90508281526020810184848401111561451357600080fd5b61451e8482856157b2565b509392505050565b60008135905061453581615e40565b92915050565b600082601f83011261454c57600080fd5b813561455c8482602086016144e8565b91505092915050565b60008135905061457481615e57565b92915050565b60006020828403121561458c57600080fd5b600061459a84828501614526565b91505092915050565b600080604083850312156145b657600080fd5b60006145c485828601614526565b92505060206145d585828601614526565b9150509250929050565b6000806000606084860312156145f457600080fd5b600061460286828701614526565b935050602061461386828701614526565b925050604061462486828701614565565b9150509250925092565b6000806040838503121561464157600080fd5b600061464f85828601614526565b925050602061466085828601614565565b9150509250929050565b60006020828403121561467c57600080fd5b600082013567ffffffffffffffff81111561469657600080fd5b6146a28482850161453b565b91505092915050565b600080600080600060a086880312156146c357600080fd5b600086013567ffffffffffffffff8111156146dd57600080fd5b6146e98882890161453b565b955050602086013567ffffffffffffffff81111561470657600080fd5b6147128882890161453b565b945050604086013567ffffffffffffffff81111561472f57600080fd5b61473b8882890161453b565b935050606086013567ffffffffffffffff81111561475857600080fd5b6147648882890161453b565b925050608086013567ffffffffffffffff81111561478157600080fd5b61478d8882890161453b565b9150509295509295909350565b60008060008060008060c087890312156147b357600080fd5b600087013567ffffffffffffffff8111156147cd57600080fd5b6147d989828a0161453b565b96505060206147ea89828a01614565565b955050604087013567ffffffffffffffff81111561480757600080fd5b61481389828a0161453b565b945050606061482489828a01614565565b935050608061483589828a01614565565b92505060a061484689828a01614565565b9150509295509295509295565b60006020828403121561486557600080fd5b600061487384828501614565565b91505092915050565b6000806040838503121561488f57600080fd5b600061489d85828601614565565b92505060206148ae85828601614565565b9150509250929050565b60006148c48383614d9c565b905092915050565b60006148d88383614f5e565b905092915050565b6148e981615738565b82525050565b60006148fa826155f3565b614904818561562e565b935083602082028501614916856155d3565b8060005b85811015614952578484038952815161493385826148b8565b945061493e83615614565b925060208a0199505060018101905061491a565b50829750879550505050505092915050565b600061496f826155fe565b614979818561563f565b93508360208202850161498b856155e3565b8060005b858110156149c757848403895281516149a885826148cc565b94506149b383615621565b925060208a0199505060018101905061498f565b50829750879550505050505092915050565b6149e28161574a565b82525050565b6149f1816157a0565b82525050565b6000614a0282615609565b614a0c8185615650565b9350614a1c8185602086016157c1565b614a258161598b565b840191505092915050565b6000614a3b82615609565b614a458185615661565b9350614a558185602086016157c1565b614a5e8161598b565b840191505092915050565b6000614a7482615609565b614a7e8185615672565b9350614a8e8185602086016157c1565b80840191505092915050565b6000614aa7601783615661565b9150614ab28261599c565b602082019050919050565b6000614aca602383615661565b9150614ad5826159c5565b604082019050919050565b6000614aed600f83615661565b9150614af882615a14565b602082019050919050565b6000614b10600c83615661565b9150614b1b82615a3d565b602082019050919050565b6000614b33601283615661565b9150614b3e82615a66565b602082019050919050565b6000614b56601283615661565b9150614b6182615a8f565b602082019050919050565b6000614b79602283615661565b9150614b8482615ab8565b604082019050919050565b6000614b9c601783615661565b9150614ba782615b07565b602082019050919050565b6000614bbf602683615661565b9150614bca82615b30565b604082019050919050565b6000614be2600f83615661565b9150614bed82615b7f565b602082019050919050565b6000614c05600e83615661565b9150614c1082615ba8565b602082019050919050565b6000614c28601183615661565b9150614c3382615bd1565b602082019050919050565b6000614c4b601183615661565b9150614c5682615bfa565b602082019050919050565b6000614c6e601683615661565b9150614c7982615c23565b602082019050919050565b6000614c91602883615661565b9150614c9c82615c4c565b604082019050919050565b6000614cb4600c83615661565b9150614cbf82615c9b565b602082019050919050565b6000614cd7601783615661565b9150614ce282615cc4565b602082019050919050565b6000614cfa602583615661565b9150614d0582615ced565b604082019050919050565b6000614d1d602483615661565b9150614d2882615d3c565b604082019050919050565b6000614d40601a83615661565b9150614d4b82615d8b565b602082019050919050565b6000614d63602583615661565b9150614d6e82615db4565b604082019050919050565b6000614d86601f83615661565b9150614d9182615e03565b602082019050919050565b600061014083016000830151614db560008601826150d1565b5060208301518482036020860152614dcd82826149f7565b9150506040830151614de260408601826150d1565b5060608301518482036060860152614dfa82826149f7565b9150506080830151614e0f60808601826150d1565b5060a0830151614e2260a08601826150d1565b5060c0830151614e3560c08601826150d1565b5060e0830151614e4860e08601826149e8565b50610100830151614e5d6101008601826148e0565b50610120830151614e726101208601826148e0565b508091505092915050565b600061014083016000830151614e9660008601826150d1565b5060208301518482036020860152614eae82826149f7565b9150506040830151614ec360408601826150d1565b5060608301518482036060860152614edb82826149f7565b9150506080830151614ef060808601826150d1565b5060a0830151614f0360a08601826150d1565b5060c0830151614f1660c08601826150d1565b5060e0830151614f2960e08601826149e8565b50610100830151614f3e6101008601826148e0565b50610120830151614f536101208601826148e0565b508091505092915050565b6000606083016000830151614f7660008601826150d1565b5060208301518482036020860152614f8e82826149f7565b9150506040830151614fa360408601826148e0565b508091505092915050565b6000606083016000830151614fc660008601826150d1565b5060208301518482036020860152614fde82826149f7565b9150506040830151614ff360408601826148e0565b508091505092915050565b60006101008301600083015161501760008601826150d1565b50602083015161502a60208601826150d1565b506040830151848203604086015261504282826149f7565b9150506060830151848203606086015261505c82826149f7565b9150506080830151848203608086015261507682826149f7565b91505060a083015184820360a086015261509082826149f7565b91505060c083015184820360c08601526150aa82826149f7565b91505060e083015184820360e08601526150c48282614964565b9150508091505092915050565b6150da81615789565b82525050565b6150e981615789565b82525050565b6150f881615793565b82525050565b600061510a8284614a69565b915081905092915050565b6000602082019050818103600083015261512f81846148ef565b905092915050565b600060208201905061514c60008301846149d9565b92915050565b6000602082019050818103600083015261516c8184614a30565b905092915050565b6000602082019050818103600083015261518d81614a9a565b9050919050565b600060208201905081810360008301526151ad81614abd565b9050919050565b600060208201905081810360008301526151cd81614ae0565b9050919050565b600060208201905081810360008301526151ed81614b03565b9050919050565b6000602082019050818103600083015261520d81614b26565b9050919050565b6000602082019050818103600083015261522d81614b49565b9050919050565b6000602082019050818103600083015261524d81614b6c565b9050919050565b6000602082019050818103600083015261526d81614b8f565b9050919050565b6000602082019050818103600083015261528d81614bb2565b9050919050565b600060208201905081810360008301526152ad81614bd5565b9050919050565b600060208201905081810360008301526152cd81614bf8565b9050919050565b600060208201905081810360008301526152ed81614c1b565b9050919050565b6000602082019050818103600083015261530d81614c3e565b9050919050565b6000602082019050818103600083015261532d81614c61565b9050919050565b6000602082019050818103600083015261534d81614c84565b9050919050565b6000602082019050818103600083015261536d81614ca7565b9050919050565b6000602082019050818103600083015261538d81614cca565b9050919050565b600060208201905081810360008301526153ad81614ced565b9050919050565b600060208201905081810360008301526153cd81614d10565b9050919050565b600060208201905081810360008301526153ed81614d33565b9050919050565b6000602082019050818103600083015261540d81614d56565b9050919050565b6000602082019050818103600083015261542d81614d79565b9050919050565b6000602082019050818103600083015261544e8184614e7d565b905092915050565b600060208201905081810360008301526154708184614fae565b905092915050565b600060208201905081810360008301526154928184614ffe565b905092915050565b60006020820190506154af60008301846150e0565b92915050565b60006040820190506154ca60008301856150e0565b81810360208301526154dc8184614a30565b90509392505050565b600060e0820190506154fa600083018a6150e0565b818103602083015261550c8189614a30565b905061551b60408301886150e0565b818103606083015261552d8187614a30565b905061553c60808301866150e0565b61554960a08301856150e0565b61555660c08301846150e0565b98975050505050505050565b600060208201905061557760008301846150ef565b92915050565b6000615587615598565b90506155938282615826565b919050565b6000604051905090565b600067ffffffffffffffff8211156155bd576155bc61595c565b5b6155c68261598b565b9050602081019050919050565b6000819050602082019050919050565b6000819050602082019050919050565b600081519050919050565b600081519050919050565b600081519050919050565b6000602082019050919050565b6000602082019050919050565b600082825260208201905092915050565b600082825260208201905092915050565b600082825260208201905092915050565b600082825260208201905092915050565b600081905092915050565b600061568882615789565b915061569383615789565b9250827fffffffffffffffffffffffffffffffffffffffffffffffffffffffffffffffff038211156156c8576156c76158a0565b5b828201905092915050565b60006156de82615789565b91506156e983615789565b9250826156f9576156f86158cf565b5b828204905092915050565b600061570f82615789565b915061571a83615789565b92508282101561572d5761572c6158a0565b5b828203905092915050565b600061574382615769565b9050919050565b60008115159050919050565b600081905061576482615e2c565b919050565b600073ffffffffffffffffffffffffffffffffffffffff82169050919050565b6000819050919050565b600060ff82169050919050565b60006157ab82615756565b9050919050565b82818337600083830152505050565b60005b838110156157df5780820151818401526020810190506157c4565b838111156157ee576000848401525b50505050565b6000600282049050600182168061580c57607f821691505b602082108114156158205761581f61592d565b5b50919050565b61582f8261598b565b810181811067ffffffffffffffff8211171561584e5761584d61595c565b5b80604052505050565b600061586282615789565b91507fffffffffffffffffffffffffffffffffffffffffffffffffffffffffffffffff821415615895576158946158a0565b5b600182019050919050565b7f4e487b7100000000000000000000000000000000000000000000000000000000600052601160045260246000fd5b7f4e487b7100000000000000000000000000000000000000000000000000000000600052601260045260246000fd5b7f4e487b7100000000000000000000000000000000000000000000000000000000600052602160045260246000fd5b7f4e487b7100000000000000000000000000000000000000000000000000000000600052602260045260246000fd5b7f4e487b7100000000000000000000000000000000000000000000000000000000600052604160045260246000fd5b6000601f19601f8301169050919050565b7f4f757473696465206f662061756374696f6e2074696d65000000000000000000600082015250565b7f45524332303a207472616e7366657220746f20746865207a65726f206164647260008201527f6573730000000000000000000000000000000000000000000000000000000000602082015250565b7f6e6f74207065726d697373696f6e210000000000000000000000000000000000600082015250565b7f596f75206973206f776e65720000000000000000000000000000000000000000600082015250565b7f61756374696f6e2077617320636c6f7365640000000000000000000000000000600082015250565b7f596f75206e6f74207065726d697373696f6e0000000000000000000000000000600082015250565b7f45524332303a20617070726f766520746f20746865207a65726f20616464726560008201527f7373000000000000000000000000000000000000000000000000000000000000602082015250565b7f4f757469646573206f662061756374696f6e2074696d65000000000000000000600082015250565b7f45524332303a207472616e7366657220616d6f756e742065786365656473206260008201527f616c616e63650000000000000000000000000000000000000000000000000000602082015250565b7f56616c7565206e6f7420666f756e640000000000000000000000000000000000600082015250565b7f4974656d206e6f74204578697374000000000000000000000000000000000000600082015250565b7f4974656d207761732061756374696f6e21000000000000000000000000000000600082015250565b7f596f752061726520746865206f776e6572000000000000000000000000000000600082015250565b7f4d656d6265722077617320726567697374657265642100000000000000000000600082015250565b7f45524332303a207472616e7366657220616d6f756e742065786365656473206160008201527f6c6c6f77616e6365000000000000000000000000000000000000000000000000602082015250565b7f596f75206e6f74206b696e670000000000000000000000000000000000000000600082015250565b7f596f7520617265206e6f7420656e6f7567687420535054000000000000000000600082015250565b7f45524332303a207472616e736665722066726f6d20746865207a65726f20616460008201527f6472657373000000000000000000000000000000000000000000000000000000602082015250565b7f45524332303a20617070726f76652066726f6d20746865207a65726f2061646460008201527f7265737300000000000000000000000000000000000000000000000000000000602082015250565b7f4d656d62657220776173206e6f74207265676973746572656421000000000000600082015250565b7f45524332303a2064656372656173656420616c6c6f77616e63652062656c6f7760008201527f207a65726f000000000000000000000000000000000000000000000000000000602082015250565b7f45524332303a206d696e7420746f20746865207a65726f206164647265737300600082015250565b60038110615e3d57615e3c6158fe565b5b50565b615e4981615738565b8114615e5457600080fd5b50565b615e6081615789565b8114615e6b57600080fd5b5056fea26469706673582212205919b482b74c7030309977ddfdcc0c7282abb87014bdaef20f13d03aa60fd3f464736f6c63430008040033",
  "immutableReferences": {},
  "source": "// contracts/MyToken.sol\r\n// SPDX-License-Identifier: MIT\r\npragma solidity ^0.8.0;\r\nimport \"@openzeppelin/contracts/token/ERC20/ERC20.sol\";\r\nimport \"@openzeppelin/contracts/utils/Counters.sol\";\r\nimport {ArrayLib} from \"./Utils.sol\";\r\nimport \"./Schemas.sol\";\r\ncontract Aucijo is ERC20 {\r\n    constructor() ERC20(\"Spirity Token\", \"SPT\") {\r\n        _mint(msg.sender, 0);\r\n    }\r\n    // address deploy smart contract and hold token in auction\r\n    address private StoreToken = 0xaefdf92622C243a246eC10AD9e1b218F0a0EF0C3;\r\n    \r\n    using Counters for Counters.Counter;\r\n    using ArrayLib for Item[];\r\n    \r\n    Counters.Counter private _auctionId;\r\n    Counters.Counter private _memberId;\r\n    Counters.Counter private _itemId;\r\n \r\n    Auction[] auctions;\r\n    mapping(address => Member) members;\r\n    mapping(uint => Item) items;\r\n    mapping(address => bool) registered;\r\n    mapping(uint => bool) itemExist;\r\n    mapping(uint => bool) itemIsAuction;\r\n\r\n    modifier mRegistered() {\r\n        require(registered[msg.sender], 'Member was not registered!');\r\n        _;\r\n    }\r\n\r\n    event AddItem(address indexed _from, uint _id, string _value);\r\n    event AddAuction(uint id, string name,uint itemId,  string description, uint price, uint start_time, uint end_time);\r\n\r\n    function registerMember(string memory firstname, string memory lastname, string memory email, string memory _address, string memory phonenumber) public {\r\n        require(!registered[msg.sender],'Member was registered!');\r\n        Member storage member = members[msg.sender];\r\n        member.firstname = firstname;\r\n        member.lastname = lastname;\r\n        member.email = email;\r\n        member._address = _address;\r\n        member.phonenumber = phonenumber;\r\n        registered[msg.sender] = true;\r\n        _memberId.increment();\r\n    }\r\n    function wasRegistered() public view returns(bool){\r\n        return registered[msg.sender];\r\n    }\r\n    function getProfile() public view mRegistered returns(Member memory){\r\n        return members[msg.sender];\r\n    }\r\n    function addItem(string memory name) public mRegistered{\r\n        Item storage item = items[_itemId.current()];\r\n        item.name = name;\r\n        item.owner = msg.sender;\r\n        item.id = _itemId.current();\r\n        itemExist[_itemId.current()] = true;\r\n        members[msg.sender].items.push(item);\r\n        emit AddItem(msg.sender, _itemId.current(), name);\r\n        _itemId.increment();\r\n    }\r\n\r\n    function agree(uint id) public mRegistered{\r\n        require(auctions[id].owner == msg.sender, 'not permission!'); // yu cu phi l ch s hu mi c thc thi\r\n        require(auctions[id].start_time <= block.timestamp && auctions[id].end_time >= block.timestamp, 'Outides of auction time');\r\n        // processing seller: auctions[id].owner\r\n        _transfer(StoreToken, auctions[id].owner, auctions[id].price);\r\n        members[auctions[id].owner].tokens = balanceOf(auctions[id].owner);\r\n        members[auctions[id].owner].items.remove(auctions[id].itemId);\r\n        // proessing purchaser: auctions[id].currentKing\r\n        items[auctions[id].itemId].owner = auctions[id].currentKing;\r\n        members[auctions[id].currentKing].items.push(items[auctions[id].itemId]);\r\n        auctions[id].status = AuctionStatus.CLOSED;\r\n        itemIsAuction[auctions[id].itemId] = false;\r\n        \r\n    } \r\n    function findItemById(uint id) public view mRegistered returns(Item memory){\r\n        return items[id];\r\n    }\r\n    // function revokeToken trong tng hp ngi to hp ng khng agree nhng  qu hn u gi, ngi u gi cao nht c  quy n \r\n    // thu hi token\r\n    function revokeToken(uint id) public mRegistered {\r\n        require(auctions[id].owner != msg.sender,'You is owner');\r\n        require(auctions[id].currentKing == msg.sender,'You not king');\r\n        require(auctions[id].end_time < block.timestamp,'You not permission');\r\n        _transfer(StoreToken, msg.sender, auctions[id].price);\r\n        members[msg.sender].tokens = balanceOf(msg.sender);\r\n        auctions[id].status = AuctionStatus.CLOSED;\r\n    }\r\n    function createAuction(string memory name,uint itemId,  string memory description, uint price, uint start_time, uint end_time) public mRegistered{\r\n        require(keccak256(abi.encodePacked((name))) > 0 && start_time >= block.timestamp && end_time > start_time,'Outside of auction time');\r\n        require(itemExist[itemId],'Item not Exist');\r\n        require(!itemIsAuction[itemId],'Item was auction!');\r\n        itemIsAuction[itemId] = true;\r\n        Auction memory auction = Auction(_auctionId.current(), name, itemId, description, price, start_time, end_time, AuctionStatus.START, msg.sender, msg.sender);\r\n        auctions.push(auction);\r\n         emit AddAuction(_auctionId.current(), name, itemId, description, price, start_time, end_time);\r\n        _auctionId.increment();\r\n    }\r\n    \r\n    function findAuctionById(uint id) public view mRegistered returns(Auction memory){\r\n        return auctions[id];\r\n    }\r\n    function getAllAuction() public view mRegistered returns(Auction[] memory){\r\n        return auctions;\r\n    }\r\n    // function upgradeStatusAuction(uint id) public mRegistered{\r\n    //     require(auctions[id].owner == msg.sender,'You are not the owner');\r\n    //     auctions[id].status = AuctionStatus.CLOSED ;\r\n    // }\r\n    // u gi ch c thc hin khi trong thi gian start v end \r\n    // khi ngi dng u gi, s c mt StoreToken gi s tin ngi u gi   gi s tin ngi u gi\r\n    \r\n    function bid(uint id, uint price) public mRegistered{\r\n        require(auctions[id].status != AuctionStatus.CLOSED,'auction was closed');\r\n        require(auctions[id].start_time <= block.timestamp && auctions[id].end_time >= block.timestamp, 'Outside of auction time');\r\n        require(auctions[id].owner != msg.sender,'You are the owner');\r\n        require(auctions[id].price < price && members[msg.sender].tokens > price, 'You are not enought SPT');\r\n        if(auctions[id].owner != auctions[id].currentKing) _transfer(StoreToken, auctions[id].currentKing, auctions[id].price);\r\n        auctions[id].price = price;\r\n        auctions[id].currentKing = msg.sender;\r\n        transfer(StoreToken, price);\r\n        members[msg.sender].tokens = balanceOf(msg.sender);\r\n    }\r\n    function getCurrentTime() public view mRegistered returns(uint){\r\n        return block.timestamp;\r\n    }\r\n    function coinCharge(uint coin) public mRegistered{\r\n        _mint(msg.sender, coin/10000);\r\n        members[msg.sender].tokens = balanceOf(msg.sender);\r\n    }\r\n    \r\n    \r\n}",
  "sourcePath": "D:/aucijo/contracts/base/Aucijo.sol",
  "compiler": {
    "name": "solc",
    "version": "0.8.4+commit.c7e474f2.Emscripten.clang"
  },
  "schemaVersion": "3.4.1",
  "updatedAt": "2021-07-11T13:57:25.145Z",
  "networkType": "ethereum",
  "devdoc": {
    "kind": "dev",
    "methods": {
      "allowance(address,address)": {
        "details": "See {IERC20-allowance}."
      },
      "approve(address,uint256)": {
        "details": "See {IERC20-approve}. Requirements: - `spender` cannot be the zero address."
      },
      "balanceOf(address)": {
        "details": "See {IERC20-balanceOf}."
      },
      "decimals()": {
        "details": "Returns the number of decimals used to get its user representation. For example, if `decimals` equals `2`, a balance of `505` tokens should be displayed to a user as `5,05` (`505 / 10 ** 2`). Tokens usually opt for a value of 18, imitating the relationship between Ether and Wei. This is the value {ERC20} uses, unless this function is overridden; NOTE: This information is only used for _display_ purposes: it in no way affects any of the arithmetic of the contract, including {IERC20-balanceOf} and {IERC20-transfer}."
      },
      "decreaseAllowance(address,uint256)": {
        "details": "Atomically decreases the allowance granted to `spender` by the caller. This is an alternative to {approve} that can be used as a mitigation for problems described in {IERC20-approve}. Emits an {Approval} event indicating the updated allowance. Requirements: - `spender` cannot be the zero address. - `spender` must have allowance for the caller of at least `subtractedValue`."
      },
      "increaseAllowance(address,uint256)": {
        "details": "Atomically increases the allowance granted to `spender` by the caller. This is an alternative to {approve} that can be used as a mitigation for problems described in {IERC20-approve}. Emits an {Approval} event indicating the updated allowance. Requirements: - `spender` cannot be the zero address."
      },
      "name()": {
        "details": "Returns the name of the token."
      },
      "symbol()": {
        "details": "Returns the symbol of the token, usually a shorter version of the name."
      },
      "totalSupply()": {
        "details": "See {IERC20-totalSupply}."
      },
      "transfer(address,uint256)": {
        "details": "See {IERC20-transfer}. Requirements: - `recipient` cannot be the zero address. - the caller must have a balance of at least `amount`."
      },
      "transferFrom(address,address,uint256)": {
        "details": "See {IERC20-transferFrom}. Emits an {Approval} event indicating the updated allowance. This is not required by the EIP. See the note at the beginning of {ERC20}. Requirements: - `sender` and `recipient` cannot be the zero address. - `sender` must have a balance of at least `amount`. - the caller must have allowance for ``sender``'s tokens of at least `amount`."
      }
    },
    "version": 1
  },
  "userdoc": {
    "kind": "user",
    "methods": {},
    "version": 1
  }
}